:108000004007012055010100135E020041010100FB
:108010004101010041010100410101004101010054
:1080200000000000000000000000000075030100D7
:108030004101010000000000E502010041010100D2
:1080400095050100950501009505010095050100C4
:1080500095050100950501009505010095050100B4
:1080600095050100950501009505010095050100A4
:108070009505010095050100950501009505010094
:108080009505010095050100950501009505010084
:108090009505010095050100950501009505010074
:1080A0009505010095050100950501009505010064
:1080B0009505010095050100950501009505010054
:1080C0009505010095050100950501009505010044
:1080D0009505010095050100950501009505010034
:1080E0009505010095050100950501009505010024
:1080F0009505010095050100950501009505010014
:108100009505010095050100950501009505010003
:1081100095050100950501009505010095050100F3
:1081200095050100950501009505010095050100E3
:1081300095050100950501009505010095050100D3
:1081400095050100950501009505010095050100C3
:048150009505010090
:1081580081F0004102E000BF83F0004330B54FEAF0
:1081680041044FEA430594EA050F08BF90EA020F5D
:108178001FBF54EA000C55EA020C7FEA645C7FEAF0
:10818800655C00F0E2804FEA5454D4EB5555B8BF13
:108198006D420CDD2C4480EA020281EA030382EA84
:1081A800000083EA010180EA020281EA0303362D16
:1081B80088BF30BD11F0004F4FEA01314FF4801CE9
:1081C8004CEA113102D0404261EB410113F0004FFB
:1081D8004FEA03334CEA133302D0524263EB4303B2
:1081E80094EA050F00F0A780A4F10104D5F1200E50
:1081F8000DDB02FA0EFC22FA05F2801841F10001AB
:1082080003FA0EF2801843FA05F359410EE0A5F17E
:1082180020050EF1200E012A03FA0EFC28BF4CF0AF
:10822800020C43FA05F3C01851EBE37101F0004565
:1082380007D54FF0000EDCF1000C7EEB00006EEB72
:108248000101B1F5801F1BD3B1F5001F0CD34908FC
:108258005FEA30004FEA3C0C04F101044FEA445253
:1082680012F5800F80F09A80BCF1004F08BF5FEADA
:10827800500C50F1000041EB045141EA050130BDBA
:108288005FEA4C0C404141EB0101013C28BFB1F5CC
:10829800801FE9D291F0000F04BF01460020B1FA17
:1082A80081F308BF2033A3F10B03B3F120020CDAEA
:1082B8000C3208DD02F1140CC2F10C0201FA0CF0C8
:1082C80021FA02F10CE002F11402D8BFC2F1200C2D
:1082D80001FA02F120FA0CFCDCBF41EA0C019040E3
:1082E800E41AA2BF01EB0451294330BD6FEA04042C
:1082F8001F3C1CDA0C340EDC04F11404C4F1200217
:1083080020FA04F001FA02F340EA030021FA04F328
:1083180045EA030130BDC4F10C04C4F1200220FA7F
:1083280002F001FA04F340EA0300294630BD21FABD
:1083380004F0294630BD94F0000F83F4801306BF83
:1083480081F480110134013D4EE77FEA645C18BF77
:108358007FEA655C29D094EA050F08BF90EA020F0E
:1083680005D054EA000C04BF1946104630BD91EA06
:10837800030F1EBF0021002030BD5FEA545C05D109
:108388004000494128BF41F0004130BD14F5800448
:108398003CBF01F5801130BD01F0004545F0FE41BC
:1083A80041F470014FF0000030BD7FEA645C1ABFF1
:1083B800194610467FEA655C1CBF0B46024650EA28
:1083C800013406BF52EA033591EA030F41F4002154
:1083D80030BD00BF90F0000F04BF0021704730B5DA
:1083E8004FF4806404F132044FF000054FF00001AF
:1083F80050E700BF90F0000F04BF0021704730B570
:108408004FF4806404F1320410F0004548BF404244
:108418004FF000013EE700BF42004FEAE2014FEA99
:1084280031014FEA02701FBF12F07F4393F07F4F74
:1084380081F06051704732F07F4208BF704793F077
:108448007F4F04BF41F40021704730B54FF460748A
:1084580001F0004521F000411CE700BF50EA01028D
:1084680008BF704730B54FF000050AE050EA010236
:1084780008BF704730B511F0004502D5404261EBA6
:1084880041014FF4806404F132045FEA915C3FF4E7
:10849800D8AE4FF003025FEADC0C18BF03325FEA84
:1084A800DC0C18BF033202EBDC02C2F1200300FA35
:1084B80003FC20FA02F001FA03FE40EA0E0021FA5A
:1084C80002F11444BDE600BF70B54FF0FF0C4CF448
:1084D800E06C1CEA11541DBF1CEA135594EA0C0FFA
:1084E80095EA0C0F00F0DEF82C4481EA030621EA35
:1084F8004C5123EA4C5350EA013518BF52EA033570
:1085080041F4801143F4801338D0A0FB02CE4FF021
:108518000005E1FB02E506F00042E0FB03E54FF051
:108528000006E1FB03569CF0000F18BF4EF0010E49
:10853800A4F1FF04B6F5007F64F5407404D25FEA45
:108548004E0E6D4146EB060642EAC62141EA5551F8
:108558004FEAC52040EA5E504FEACE2EB4F1FD0C3A
:1085680088BFBCF5E06F1ED8BEF1004F08BF5FEAB8
:10857800500E50F1000041EB045170BD06F000466A
:1085880046EA010140EA020081EA0301B4EB5C0417
:10859800C2BFD4EB0C0541EA045170BD41F480110F
:1085A8004FF0000E013C00F3AB8014F1360FDEBF34
:1085B800002001F0004170BDC4F10004203C35DA10
:1085C8000C341BDC04F11404C4F1200500FA05F393
:1085D80020FA04F001FA05F240EA020001F0004234
:1085E80021F0004110EBD37021FA04F642EB0601AA
:1085F8005EEA430E08BF20EAD37070BDC4F10C04D4
:10860800C4F1200500FA04F320FA05F001FA04F297
:1086180040EA020001F0004110EBD37041F1000183
:108628005EEA430E08BF20EAD37070BDC4F120058E
:1086380000FA05F24EEA020E20FA04F301FA05F2F6
:1086480043EA020321FA04F001F0004121FA04F29E
:1086580020EA020000EBD3705EEA430E08BF20EA6E
:10866800D37070BD94F0000F0FD101F000464000A8
:1086780041EB010111F4801F08BF013CF7D041EA2A
:10868800060195F0000F18BF704703F0004652002E
:1086980043EB030313F4801F08BF013DF7D043EAFF
:1086A8000603704794EA0C0F0CEA135518BF95EAB5
:1086B8000C0F0CD050EA410618BF52EA4306D1D13C
:1086C80081EA030101F000414FF0000070BD50EA5B
:1086D800410606BF1046194652EA430619D094EAE5
:1086E8000C0F02D150EA013613D195EA0C0F05D1CF
:1086F80052EA03361CBF104619460AD181EA030123
:1087080001F0004141F0FE4141F470014FF00000DA
:1087180070BD41F0FE4141F4780170BD70B54FF075
:10872800FF0C4CF4E06C1CEA11541DBF1CEA1355F5
:1087380094EA0C0F95EA0C0F00F0A7F8A4EB0504D7
:1087480081EA030E52EA03354FEA013100F08880CE
:108758004FEA03334FF0805545EA131343EA126397
:108768004FEA022245EA111545EA10654FEA00264C
:108778000EF000419D4208BF964244F1FD0404F505
:10878800407402D25B084FEA3202B61A65EB030561
:108798005B084FEA32024FF480104FF4002CB6EB1E
:1087A800020E75EB030E22BFB61A754640EA0C009E
:1087B8005B084FEA3202B6EB020E75EB030E22BFDE
:1087C800B61A754640EA5C005B084FEA3202B6EB1F
:1087D800020E75EB030E22BFB61A754640EA9C00DE
:1087E8005B084FEA3202B6EB020E75EB030E22BFAE
:1087F800B61A754640EADC0055EA060E18D04FEA6C
:10880800051545EA16754FEA06164FEAC30343EA0B
:1088180052734FEAC2025FEA1C1CC0D111F4801FD8
:108828000BD141EA00014FF000004FF0004CB6E7D1
:1088380011F4801F04BF01430020B4F1FD0C88BF70
:10884800BCF5E06F3FF6AFAEB5EB030C04BFB6EB7B
:10885800020C5FEA500C50F1000041EB045170BD6E
:108868000EF0004E4EEA113114EB5C04C2BFD4EB9B
:108878000C0541EA045170BD41F480114FF0000E1F
:10888800013C90E645EA060E8DE60CEA135594EA9B
:108898000C0F08BF95EA0C0F3FF43BAF94EA0C0F9E
:1088A8000AD150EA01347FF434AF95EA0C0F7FF413
:1088B80025AF104619462CE795EA0C0F06D152EA67
:1088C80003353FF4FDAE1046194622E750EA41064B
:1088D80018BF52EA43067FF4C5AE50EA41047FF45C
:1088E8000DAF52EA43057FF4EBAE12E74FEA4102BF
:1088F80012F5001215D211D56FF47873B3EB6252EA
:1089080012D94FEAC12343F0004343EA505311F010
:10891800004F23FA02F018BF404270474FF00000A2
:10892800704750EA013005D111F0004008BF6FF0E0
:10893800004070474FF00000704700BF7BB972B924
:108948000029BEBF00204FF0004106E008BF002804
:108958001CBF6FF000414FF0FF3000F057B8ADF189
:10896800080C6DE904CE002909DB002B1ADB00F0A6
:1089780069F8DDF804E0DDE9022304B070474042FD
:1089880061EB4101002B1BDB00F05CF8DDF804E033
:10899800DDE9022304B0404261EB4101524263EB3E
:1089A80043037047524263EB430300F04BF8DDF892
:1089B80004E0DDE9022304B0404261EB4101704765
:1089C800524263EB430300F03DF8DDF804E0DDE9D3
:1089D800022304B0524263EB4303704753B94AB9C8
:1089E800002908BF00281CBF4FF0FF314FF0FF30AF
:1089F80000F00CB8ADF1080C6DE904CE00F022F8D7
:108A0800DDF804E0DDE9022304B07047704700BFD9
:108A180010F8012B11F8013B012A28BF9A42F7D020
:108A2800D01A7047034611F8012B03F8012B002ACE
:108A3800F9D17047034613F8012B002AFBD1181A05
:108A4800013870472DE9F04786468C460846089E4F
:108A5800154674461946002B40F0C1808542B2FA8B
:108A680082F245D94AB1C2F1200300FA02FC9540CE
:108A780094402EFA03F343EA0C0C4FEA154EA8B2C1
:108A8800230CBCFBFEF80EFB18CC08FB00F943EAEC
:108A98000C43994528D9EB1808F1FF3704D29945BA
:108AA80002D9A8F102072B44A3EB0903A4B2B3FB34
:108AB800FEFC0EFB1C330CFB00F044EA0344A0420E
:108AC80014D92C190CF1FF3304D2A04202D9ACF10D
:108AD80002032C44241A43EA07401EB1D440002361
:108AE80034607360BDE8F0874746DDE76346F1E729
:108AF80092BB431B01214FEA154EAFB2200CB3FBCA
:108B0800FEFC0EFB1C330CFB07F840EA03439845B8
:108B180061D9EB180CF1FF3004D2984502D9ACF1B9
:108B280002002B44A3EB0803A4B2B3FBFEFC0EFB2C
:108B38001C330CFB07F744EA0344A7424DD92C1910
:108B48000CF1FF3304D2A74202D9ACF102032C4442
:108B5800E41B43EA0040C0E7C2F12003954094407B
:108B680020FA03F12EFA03F34FEA154E9040AFB204
:108B78000343B1FBFEFC0EFB1C10190C0CFB07F8A1
:108B880041EA0041884522D969180CF1FF3004D226
:108B9800884502D9ACF102002944A1EB08019BB237
:108BA800B1FBFEFC0EFB1C110CFB07F743EA01436B
:108BB8009F420ED9EB180CF1FF3104D29F4202D923
:108BC800ACF102012B44DB1B41EA004193E760460C
:108BD800E3E76146F7E76046A4E76346B8E7834200
:108BE80006D916B9002108467CE7C6E900E0F9E78E
:108BF800B3FA83F78FB9834201D3724508D8BEEB25
:108C0800020460EB030301209C461EB9002169E7BA
:108C18003846FAE7C6E9004CF8E7C7F1200CBB4034
:108C28000EFA07F522FA0CF42EFA0CF1BA401C439E
:108C380020FA0CF3B8404FEA144901431FFA84FEA6
:108C4800B3FBF9F809FB18300B0C08FB0EFA43EAE2
:108C580000439A4540D9E31808F1FF3004D29A45F9
:108C680002D9A8F102002344A3EB0A0389B2B3FB9B
:108C7800F9F809FB183308FB0EFE41EA03418E455B
:108C88002CD9611808F1FF3304D28E4502D9A8F116
:108C98000203214443EA0040A1EB0E01A0FB029825
:108CA8004145CE46434602D306D14D4504D201384C
:108CB800B9EB020E68EB0403002EA7D0B5EB0E0249
:108CC80061EB030101FA0CFC22FA07F3F9404CEAC4
:108CD8000303C6E9003199E74046C5E74346D9E7AB
:108CE8002DE9F04706460F46904688B021F05AFF16
:108CF8004FF47A73A0FB034503FB0155E40B012FE6
:108D080044EA45444FEAD53507D122462B4630463A
:108D180027491BF0B8FC002012E0D8F80470254859
:108D28003946FFF775FE70B139462348FFF770FEE4
:108D380048B130463A4621491BF0C1FC6FF00400A7
:108D480008B0BDE8F087204617A3D3E900232946D9
:108D5800FFF7F4FD05460C4610461946184A00234D
:108D6800FFF7ECFD80460F46104619464EF6602286
:108D78000023FFF7E3FD82468946104619464FF463
:108D88007A720023FFF7DAFDCDE902A9CDE90623BF
:108D9800CDE904012A4623463046CDE90087094932
:108DA8001BF071FCB7E700BF005C2605000000005F
:108DB80015E6020026E6020029E6020032E6020075
:108DC80080EE36004AE60200F0B587B0002140F692
:108DD800034005AA09F0B4FE0446002840F0B88014
:108DE8000598C3681B7853B95F4BD3E8AF2F02F0DF
:108DF8000902D3E8EF1FC3E8E42F002CF9D107F0EC
:108E0800D1FF002141F2030005AA09F099FE0446AA
:108E1800002840F09D80059A544DD16805F19003D3
:108E2800D1F80100D1F8051003C3104607F0BAFFC6
:108E3800214641F2010005AA09F082FE04460028F5
:108E480040F086800598C3685A7885F888205A8843
:108E5800A5F88A201A7985F88920B3F80720A5F89B
:108E68008C20B3F80530A5F88E3007F09BFF21461B
:108E780041F2020005AA09F063FE0446002867D102
:108E8800059F05F19806FA68531C41323446186864
:108E98005968083303C493422646F7D1384607F089
:108EA80081FF0BF0C5F80446002851D195F8A2308F
:108EB80013F0200317D12E490A6812F0060F06D0C6
:108EC8002C4A0093CDE9013202221DF0E8FB95F807
:108ED800943013F0400351D125490A6857073AD115
:108EE8006FF0120434E0072140F6334009F068F9C6
:108EF8000646002800F0278107210C301DF0E1F913
:108F08006FF0040303700A23C0F8024084714470B0
:108F180004712246C370314640F6334009F010FE12
:108F28000446A8B9012140F6314009F049F906463E
:108F3800002800F0088101210C301DF0D1F92246EB
:108F4800314640F6314009F0FBFD04460028BED00A
:108F5800204607B0F0BD084A1846CDE90132009313
:108F680001221DF09CFBBBE7EC8000200080002064
:108F7800C48600200304030031040300002142F2E8
:108F8800030005AA09F0DCFD04460028E0D1059B92
:108F9800B94EDA68D2F80100D2F8051003C61846AF
:108FA80007F000FF214642F2020005AA09F0C8FDB9
:108FB80004460028CCD1059CE368B3F8012091B29F
:108FC80049B1D97839B1A5F81C21DA78114606F1EA
:108FD800280021F026FB204607F0E4FE1F2395F821
:108FE8009460A5F8383116F0200618D1022140F611
:108FF8006D4009F0E5F80446002800F0A48002213D
:109008000C301DF05EF9012321460370467032468C
:1090180040F66D4009F094FD0446002898D195F873
:10902800B4301E0712D5002142F21C0005AA09F02F
:1090380087FD044600288BD10598C368D3F8012022
:10904800D3F80530C5E93E2307F0ACFE95F8F030BB
:109058005C0610D5002142F22A0005AA09F070FD2D
:10906800044600287FF474AF0598C3685B7885F8D8
:109078003A3107F097FE082142F2010009F0A0F802
:10908800044600285FD008210C301DF01AF995F825
:10909800F01040F2022311F0400F08BF03230246EC
:1090A80088074CBF43F02C0043F00C008B0695F862
:1090B800F13048BF40F0400013F0090F95F8BA307E
:1090C80018BF40F4006003F00603CF0748BF40F024
:1090D8001000062B08BF40F4C07000211DF0F6FAFE
:1090E8002146002242F2010009F02AFD0446002828
:1090F8007FF42EAF95F89420B5F81C31960625D448
:10910800D3B9194641F2050005AA09F019FD04462C
:1091180000287FF41DAFB5F81C31059C4BB9E368F6
:10912800B3F80120A5F81C219A885448114621F06B
:1091380078FA204607F036FE082140F6014009F08B
:109148003FF8044698B96FF0680401E7002BF3D1A3
:109158004B490A68540702D16FF00404F8E6494AFB
:109168000093CDE9013201221DF099FAF4E70821B4
:109178000C301DF0A6F895F8F0300246D90747BF25
:109188003BA1D1E900014FF000513F481DF09EFA84
:109198002146002240F6014009F0D2FC044600288E
:1091A8007FF4D6AE014605AA4FF6014009F0C8FC87
:1091B800064650B132490B6813F0060F1ED0334BE8
:1091C800CDE901430094234614E0059807F0EAFD31
:1091D80031464FF6024005AA09F0B2FC044620B316
:1091E80027490B6813F0060F08D0294B0096CDE9E4
:1091F80001633346022218461DF051FA1DF0FDFBAB
:10920800044600287FF4A4AE0CF0FEF804460028BB
:109218007FF49EAE2B7F002B3FF49AAE08211D48A9
:109228001DF02DFA09F0D6F992E60598C368B3F84F
:109238000130A5F8D93007F0B5FD95F8D9305B07AE
:10924800DCD521464FF6034005AA09F079FC30B178
:109258000B490B6813F0060FD0D00F4BB0E70598F9
:10926800C3685B7885F8D83007F09CFDC6E700BF77
:109278009088000200800020F080002020810020DB
:10928800C4860020550403001088000278040300F7
:109298009C040300EC800020C504030000000000CB
:1092A8002DE9F04F3A4B85B0D3F8042392070BD53C
:1092B800D3F8042142B10022C3F80421354AD3F877
:1092C8000431136801331360334D0024A8464FF46A
:1092D80080362F4FD7F8043306FA04F919EA030F3A
:1092E8002CD00123A340DB432C49D1E8EF2F02EA1D
:1092F8000300C1E8EC0FBCF1000FF6D122FA04F329
:10930800DB0703D4264B53F82430BBB1204620F0AA
:109318004FF813F0ADFAEFF31183202282F312888D
:10932800BFF36F8F08EB041CDCE902AB504571EB0F
:109338000B010AD283F31188BFF36F8F103514B174
:1093480005B0BDE8F08F0124C4E70020D5E900127C
:109358009FED0D7B28600E4803938CED027B0292F3
:10936800C0F84893204620F023F8039B83F3118824
:10937800BFF36F8F0029E1D0029A5B4600925246F4
:109388008847DBE7AFF30080FFFFFFFFFFFFFFFF2A
:109398000050014064AA0020289A002058AA002002
:1093A8004051014010B5044604491BF06CF92246AF
:1093B8000020034911F088F9002010BD9CD202005A
:1093C8005D9700001FB5104B1B783BB90F491BF088
:1093D80076F96FF07F0005B05DF804FB0C490B6867
:1093E80003F00703022B08D90A4B03220293002338
:1093F8001846CDE9003319F028FC074B186801F02E
:1094080099FA0020E7E700BF42AC0020B7D202007B
:10941800A0860020CCD20200749F00201FB5CA0786
:109428001BD5C30719D50E4A0E49137883F00103DB
:1094380013700A6802F00702022A0ED90A480B4A7A
:10944800002B18BF02460A4B039202930023032203
:109458001846CDE9003319F0F8FB05B05DF804FBB8
:109468003EAC0020A0860020B9DE0200A4DB02008A
:10947800F1D202002DE9F04F874D8BB02B6803F035
:109488000703022B39D90024844B0322029329466F
:1094980023462046CDE9004419F0D7FB2B6803F09A
:1094A8000703022B29D97E4E7E4B0496103ECDE948
:1094B800014303222346294620460396009419F0C7
:1094C800C4FB2B6803F00703022B16D996F82C303F
:1094D8000893B06AFEF7A0FFCDE90601706AFEF7AF
:1094E8009BFF714BCDE90401CDE9014303222346DB
:1094F80029462046009419F0A8FB4FF00008DFF831
:10950800D4916A4EDFF8D0A109F1800B9AF80030A7
:10951800434512DC2B6803F00703022B09D9644B7F
:109528000322029300235C491846CDE9003319F061
:109538008CFB00200BB0BDE8F08F3369198900233C
:109548001A0159F8022009EB03178A4203D00133A4
:10955800092BF5D15F462B6803F00703022B40F275
:1095680097800024534B0322029320462346CDE9DB
:109578000044494919F069FB2B6803F00703022BE3
:1095880040F286803388032203934B4B2046CDE973
:10959800014341492346009419F057FB2B6803F017
:1095A8000703022B74D933692046D3E90023CDE998
:1095B8000423424B0322CDE9014337492346009453
:1095C80019F043FB2B6803F00703022B60D93369BA
:1095D80003221B89204604937B682F490393384B49
:1095E8000094CDE90143234619F02FFB2B6803F0C3
:1095F8000703022B4CD9336920461A7B264904926B
:10960800DB7A032203932F4B0094CDE901432346D1
:1096180019F01BFB2B6803F00703022B38D93369B9
:1096280003225B7B20460393274B1B49CDE901436B
:109638000094234619F009FB2B6803F00703022B5B
:1096480026D9D6E90223CDE90823BB6806937068BA
:10965800FEF7E2FE1D4BCDE90401CDE901430322EB
:10966800234620460C49009419F0EFFA2B6803F0C2
:109678000703022B0CD933690322DB8920460393A5
:10968800134B0549CDE901430094234619F0DDFA4F
:1096980008F10108183639E7A086002001D3020036
:1096A800549F002023D3020037D30200208A0020D1
:1096B80013D4020071D302008ED302009BD30200A0
:1096C800B0D30200C0D30200D4D30200E4D3020016
:1096D80000D40200A8BF02003DAC002070B503789A
:1096E8008AB004460E4607AD032B20D8DFE803F006
:1096F80002191B1D11492846FFF794F9059563784F
:109708001E210493A37830460393E3780C4A02930E
:109718002379019363790093A37917F065FB0AB065
:1097280070BD0849E7E70849E5E70849E3E70A2182
:109738002846074A17F058FBE0E700BF32D402007A
:1097480054D4020039D4020040D402004AD40200A2
:109758002FE3020010B50C4688B06946FFF7BEFF3C
:109768006A46204602491AF08EFF08B010BD00BFB5
:1097780077D40200012310B58CB0044601A902A8D1
:10978800019309F019FF019B43B104A902A8FFF74F
:10979800A5FF2046034904AA1AF075FF00200CB063
:1097A80010BD00BF8AD40200F0B502291646514DFB
:1097B80093B00FD02B685F0709D04F4B012202935B
:1097C800002329461846CDE9003319F03EFA6FF018
:1097D800150410E008F004FF034678B92A68560714
:1097E80007D0464A2946CDE901020090012219F026
:1097F8002CFA6FF00A04204613B0F0BD7068FFF72A
:1098080019F91F280FD92B685C07E0D01F23039391
:109818003B4B01220293002329461846CDE9003329
:1098280019F013FAD3E7012707A908A8079709F041
:10983800C3FE079B73B92A68500708D0314A2946E6
:10984800CDE9013218463A46009319F0FEF96FF057
:109858000404D0E7706808F0CBFE044670B12B68AA
:109868005907C8D0284B0390029300233A4629464B
:109878001846CDE9003319F0E8F9BCE7706801F043
:109888003DF9044628B12B685A07B4D01F4B039002
:10989800EAE774682046FFF7CDF8214602461C48DF
:1098A80003F0FAFB044628B12B685B07A3D0194BD9
:1098B8000390D9E7184B0F221846716821F0B6FBC0
:1098C8000AAFC473394608A8FFF708FF2B6803F0EE
:1098D8000703022B8FD973680322CDE903730F4B5B
:1098E8002946CDE9014320462346009419F0ADF9F5
:1098F80081E700BFA08600209ED40200BFD40200EA
:10990800DCD40200FED402001BD502003AD50200C6
:1099180065D5020074D50200449F00209AD5020044
:1099280037B50025CDE900550821684607F026FC23
:10993800014630B1044819F0A7FC2846294603B06F
:1099480030BDDDE90001FAE7B3D502002DE9F047A3
:10995800044686B017461E468946FFF7E1FF0123F5
:10996800DFF8A4804FEA041A08EB0415EB7240F202
:109978000113AB8118236343A5F80890DFF88C9096
:10998800EE81661C29F80360AF7209EB0307002318
:10999800C5E900017B6019F067F94FF47A72B0FBF2
:1099A800F2F00022C7E90325134A144B11787B61B2
:1099B8008C421349A4BFF6B283F82D600B68A8BF88
:1099C800167003F00703022BB86011D9D044B8F819
:1099D80008300322049318235C4339F804300393B6
:1099E800084B029300231846CDE9003319F02DF9EE
:1099F80006B0BDE8F08700BF3DAC0020449F0020C2
:109A0800A0860020D3D5020080890020208A00206B
:109A18002DE9F04F21F0FCFC2DED028BA94D0446F9
:109A280097B04059002116F077FD6059A64916F005
:109A38005DFA03F083FCA54C054698B123685F07DF
:109A48000AD0A34B03900293002301222146184613
:109A5800CDE9003319F0F9F8284617B0BDEC028BB0
:109A6800BDE8F08F1AF097FB01F0AAF8054628B177
:109A780023685E07F0D0974B0390E4E7964813F00D
:109A8800DFF923680646002840F0008103F0070349
:109A9800022B08D9914B0322CDE901032146034645
:109AA800009019F0D2F86423022201210020FFF768
:109AB8004DFF0122322310460221FFF747FF022201
:109AC800874E192310460321FFF740FF01F0D4F910
:109AD80010223146304621F0A9FA06F11001102271
:109AE800084621F0A3FA4FF07E5341F210074FF0D9
:109AF800010873627B4B3784B362236886F82C8035
:109B080003F00703022B38D90025774BCDE9036012
:109B1800029303222B462846CDE900556B4919F0DC
:109B280094F8236803F00703022B26D900226F4B11
:109B38002846CDE9062300226D4B6449CDE904236C
:109B48006C4B0322CDE90153CDF820802B460397B7
:109B5800009519F07AF8236803F00703022B0CD953
:109B680096F82D3003220393634B2846CDE9015321
:109B780056492B46009519F068F80025DFF8A481AE
:109B88005E4FDFF8A49108F1800A99F80030AB42E3
:109B980000F3D080DFF89481594B1B78002B6FD0ED
:109BA800584B1B78002B6BD0574B1B78002B67D07A
:109BB80019F05AF84FF47A734FF0000BB0FBF3F337
:109BC8000546D9469FED518ADFED518A4B4FDFF8A4
:109BD80060A10B9396F82D309945C0F2D780D6ED49
:109BE8000A7AFCEEE77ACAF800504A4DAA226B704E
:109BF80017EE903AAB7096F82C302A70EB7020F084
:109C0800D1FF4FF47A72A0FB020302FB0131C00BB3
:109C1800002340EA41404FF47A72C90BFEF78EFEEA
:109C28004FF0020C29710021030E6B71030CAB710C
:109C3800030AEB7196F82D70304B2872B94203F184
:109C4800180305F10805C0F202815921314800F0D6
:109C5800F9FD0546002800F0168123685A070AD046
:109C68002D4B03900293002301221846CDE90033BF
:109C7800164918F0EAFF15F1800F8DD00B358BD0FF
:109C8800002140F2071016F0DFFC85E758073FF483
:109C9800E3AE224B2146CDE9015301222B4628464B
:109CA8000396009518F0D1FF236859073FF4D4AE06
:109CB8001B4B0122CDE9015321462B46284603962A
:109CC8000095C7E610000000F7D50200A086002026
:109CD800FCD502002DD602002594000086D602008D
:109CE800449F00200000C842A8D602000000594046
:109CF8000000F03FD0D602000AD70200208A0020D8
:109D08003EAC002042AC00203FAC0020000075446F
:109D180000007A44E4AB002046D702004CD602008B
:109D28006AD60200A8BF02003DAC0020409F002078
:109D3800349F00203B69198900231A0158F8022032
:109D480008EB031B8A4203D00133092BF5D1D34614
:109D5800236803F00703022B15D9DBF808300893B2
:109D68007868FEF759FBCDE90601DBF804300322D9
:109D7800CDE90353A64BA749029300231846CDE922
:109D8800003318F062FF01351837FEE64FF47A7396
:109D98003869DAF80020C189AA1AB3FBF1F19142B7
:109DA8001ED80289022A1FD0032A30D0012A3FD1A7
:109DB80021F00BF9642390FBF3F202FB130007EE8A
:109DC800900AF2EE046AB8EEE77AC7EE267AB3EEA6
:109DD800047A77EE877AC7ED017A0B9BC7E9023BD5
:109DE80009F101091837F5E621F0EFF84FF4C873C7
:109DF80090FBF3F202FB130007EE900AF2EE046AFE
:109E0800B8EEE77AC7EE267A77EE887AE3E721F0AC
:109E1800DCF84FF47A7390FBF3F202FB130007EEC1
:109E2800900AF2EE046AB8EEE77AC7EE267AD2E72D
:109E380007EE905AB8EE670A80EE280A18F0D0F9B3
:109E4800B3EE097ADFED747A40EE077AC3E733F8A8
:109E5800182C53F8080C6A7085F802C0427B01314F
:109E6800EA7053F8142C4FEA126E85F804E04FEAB2
:109E7800124E85F805E04FEA122E85F806E0EA71E1
:109E880002892A72DAE6D8F80030DFF8BC9101338B
:109E9800C8F8003018F0E8FED9F800300746C31AB1
:109EA800B3F57A7F16D3236803F00703022B0CD986
:109EB800D8F8003003220393584B2846CDE90153C4
:109EC80054492B46009518F0C0FE0023C9F80070CD
:109ED800C8F8003041F28732DFF87091D9F80030C5
:109EE800FB1A934218D94E4B0CA9D3F800A0504640
:109EF8000BF048F9054648B323685B070AD0494B7D
:109F0800012202930023CDE900330390184641490A
:109F180018F09BFEC9F8007018F0A6FE4EF65F21F7
:109F2800414A1368C31A8B427FF6AAAED6ED0A7A65
:109F38009FED3E7AF4EEC77AF1EE10FAC8BF77EEDD
:109F4800C77A1060C8BFC6ED0A7A99E62368BDF8DB
:109F580044B003F00703022B4AD9354B0322CDE95D
:109F680001032C490346009018F06FFE236803F0A4
:109F78000703022B3CD9BDF8443058460493FEF73A
:109F880039FA00222B4BFEF79FFAFEF7AFFC2A4B5B
:109F98000390CDE9015303222B4628461D4900951D
:109FA80018F053FE236803F00703022B20D9BDF8ED
:109FB800463003220393214B2846CDE90153154926
:109FC8002B46009518F041FE236803F00703022B87
:109FD8000ED90A22BDF84830284653430393184B3C
:109FE8000322CDE901530B492B46009518F02DFEAD
:109FF80050461EF01CF9236803F00703022B89D989
:10A00800104B0322029300230390CDE900337DE730
:10A0180022D70200A0860020000048425ED7020036
:10A02800749F00207ED70200309F0020CDCCCC3D0D
:10A03800A5D702000000F43FBCD70200D9D7020020
:10A04800F1D7020002D802003C9F0020389F002070
:10A05800F0B520498DB015461F46FEF7D9FC0446D9
:10A06800002834D104AE1F2231463846A8470028BC
:10A078002EDD194D00F130030DEB03022B6802F8B9
:10A08800204C03F00703022B0AD9144B0322CDE915
:10A0980001432946234620460396009418F003FE00
:10A0A8000F4C0F223146204620F0C0FF00232A68BB
:10A0B800E37302F00702022A09D90A4A1846CDE9D1
:10A0C8000132054903220394009318F0ECFD0020A7
:10A0D8000DB0F0BD68D502009C86002013D902009F
:10A0E800449F00203AD902001FB50B4904460B686B
:10A0F80003F00703022B08D9084B0322029300231D
:10A108001846CDE9003318F0CEFD204604B0BDE86E
:10A1180010401CF015BF00BF9C86002059D90200D2
:10A1280000B50B460D4989B00A6802F00702022AF9
:10A1380010D9DA8806929A8805925A8804921B8860
:10A1480003220393064B029300231846CDE90033FC
:10A1580018F0A9FD09B05DF804FB00BF9C8600203B
:10A1680074D9020030B50A460F4987B00B6803F06E
:10A178000703022B15D955780C4812780C4B022D81
:10A1880014BF1C460446022A08BF0346CDE9034310
:10A19800084B0322029300231846CDE9003318F038
:10A1A80082FD07B030BD00BF9C860020CED90200DA
:10A1B800D1D90200D4D902001FB509490B6803F0B0
:10A1C8000703022B08D9074B0322029300231846E2
:10A1D800CDE9003318F067FD05B05DF804FB00BF5A
:10A1E8009C860020F1D9020070B503788AB0044635
:10A1F8000E4607AD032B20D8DFE803F002191B1D1C
:10A2080011492846FEF70EFC059563781E21049334
:10A21800A37830460393E3780C4A02932379019399
:10A2280063790093A37916F0DFFD0AB070BD084981
:10A23800E7E70849E5E70849E3E70A212846074A26
:10A2480016F0D2FDE0E700BF32D4020054D4020079
:10A2580039D4020040D402004AD402002FE302009D
:10A268002DE9F041594C0E46236898B05B0721D57B
:10A278000025574B0391029304222B46214628467A
:10A28800CDE9005518F00FFD23685F0712D5514B33
:10A2980004221B78214605934F4B28461B780493CC
:10A2A8004E4B1B78009503934D4BCDE901532B463C
:10A2B80018F0F9FCDFF85881D8F8003063B9226843
:10A2C80055071DD0474A0093CDE9013201221846AF
:10A2D8003E4918F0E8FC13E018460EA90AF052FFB0
:10A2E800054680B123685C070AD03F4B0390029370
:10A2F800002301221846CDE90033344918F0D3FC75
:10A3080018B0BDE8F081D8F8000006AF1CF0EEFDEB
:10A318003946FFF769FF9DF85D30012B236812D895
:10A3280058070AD0314B0122CDE9015328462B4664
:10A3380026490397009518F0B6FC0521D8F80000C7
:10A348001CF044FDDCE703F00703022B11D9284A6F
:10A35800284B2846012E18BF1346CDE90436264B54
:10A368000322CDE9015319492B460397009518F0AC
:10A378009AFC224D711E2A784B424B419A422B700F
:10A38800BED0236803F00703022B10D91C4A1D4BCB
:10A398000E49012E08BF1346CDE903371A4B032295
:10A3A800029300231846CDE9003318F07CFC2B7883
:10A3B800002BA5D1226802F00702022AA0D9134A6D
:10A3C8000093CDE90132032281E700BF9C8600207B
:10A3D80012DA020040AC002041AC002042AC002060
:10A3E8003CDA020080DA0200A4DA0200CBDA0200CA
:10A3F8000ADA020003DA02000BDB02003FAC00209D
:10A40800B9DE0200A4DB020047DB02006EDB0200BB
:10A41800749F0020F0B599B00E460EA90AF0B2FE5E
:10A42800134D0446A8B906AF39461098FFF7DCFE6D
:10A438002B685A070BD00F4B0122CDE9014329465F
:10A4480023462046CDE90376009418F02CFC19B079
:10A45800F0BD2B685B07FAD0074B0122029300235B
:10A4680029461846CDE90033039618F01CFCEEE7A0
:10A478009C860020ADDB0200D7DB0200F0B599B066
:10A488000E460EA90AF07EFE154D0446B8B906AF71
:10A4980039461098FFF7A8FE2B6803F00703022B34
:10A4A8000BD9104B0322CDE9014329462346204608
:10A4B800CDE90376009418F0F6FB19B0F0BD2B68CF
:10A4C80003F00703022BF8D9074B0322029300235A
:10A4D80029461846CDE90033039618F0E4FBECE76B
:10A4E8009C860020F2DB020020DC020070B596B0EA
:10A4F8000CA90AF047FE1A4E054678B133685A0788
:10A508000AD0184B039002930023CDE900330122AF
:10A518003146184618F0C7FB16B070BD0E9907F003
:10A52800C5FE044648B133685B07F5D00E4B03906F
:10A53800CDE9015300952B46E9E704AD29460E986D
:10A54800FFF752FE336803F00703022BE4D9074BE9
:10A558000322CDE90143039523460094D8E700BFC1
:10A568009C8600207ED702003FDC02005EDC0200F1
:10A57800F0B55A4E074633680D465B07144687B058
:10A588000BD5574BCDE90312029300230422314621
:10A598001846CDE9003318F086FB0023514A1370A2
:10A5A800326802F00702002C5BD052B14E4A1846BE
:10A5B800CDE90132CDE9035401224849009318F04E
:10A5C80072FB3368022C03F0070318D029D9053C25
:10A5D800012C39D94BB1454B0122029300233F4945
:10A5E8001846CDE9003318F05EFB3846FFF77EFFCA
:10A5F8000521384607B0BDE8F0401CF0E7BB022B48
:10A6080009D93B4B03220293002334491846CDE96C
:10A61800003318F048FB384607B0BDE8F040FFF7B4
:10A6280065BF022B09D9334B0322029300232B4920
:10A638001846CDE9003318F036FB0221384607B03A
:10A64800BDE8F0401CF001BC4BB12B4B012202933A
:10A65800002322491846CDE9003318F024FB07B03F
:10A66800F0BD022A36D9254B0322CDE90143204605
:10A6780023461A490395009418F015FB012DEED9CD
:10A68800336803F00703022B09D91D4B0322CDE9D8
:10A698000143204623461149009418F004FB012287
:10A6A800184B1A70336803F00703022BD7D9164BDF
:10A6B800164A1978164B002918BF13460393154BF1
:10A6C80003220293002305491846CDE9003318F008
:10A6D800EAFAC4E7012DE2D8C1E700BF9C86002052
:10A6E8007ADC020040AC0020A8DC020053DD020046
:10A6F800C9DC020001DD02002ADD020089DD02005A
:10A70800A4DD020041AC00203FAC0020B9DE02000D
:10A71800A4DB0200C0DD020070B5404C054622688B
:10A728000B4698B002F0070269B152B13C4B039155
:10A7380002930023012221461846CDE9003318F080
:10A74800B2FA18B070BD022A08D9364A0091CDE98C
:10A75800011218460322214618F0A5FA28461CF0D3
:10A76800FCFA0126304B02211860304B28461E7037
:10A778001CF06BFB22680346002842D052070AD01F
:10A788002B4B03900293002332461846CDE9003341
:10A79800224918F088FA28460EA90AF0F3FC10F0AE
:10A7A800FF05CED106AE31461098FFF71DFD236890
:10A7B80003F00703022B0AD91E4B0322CDE90153EC
:10A7C80028462B4615490396009518F06CFA23681D
:10A7D80003F00703022BB4D9BDF84C00FDF70AFEBD
:10A7E8000022154BFDF770FE144BCDE904010293CE
:10A7F800002303221846CDE90033084918F053FA1C
:10A808009FE702F00702022AC5D90D4A0349CDE99C
:10A8180001020090032218F046FABCE79C8600204B
:10A82800F0DD020005DE0200749F002042AC00202B
:10A838000FDE02005CDE02000000F43F74DE02005E
:10A848002FDE020030B5324B05461B780C468BB024
:10A8580083B930490A68550707D02F4A1846CDE909
:10A8680001320093012218F01EFA6FF07F0420468F
:10A878000BB030BD294B1B7873B926490A685407B9
:10A8880007D0274A029201221846CDE9003318F072
:10A898000AFA6FF01504EAE700B139B91D490B68E7
:10A8A8005807F6D01F4B02930023ECE7F7290FD97E
:10A8B80018490B685A0708D01B4B01220293002342
:10A8C8001846CDE9003318F0EEF96FF07904CEE7B9
:10A8D8001822002104A820F070FB144B002004A9C2
:10A8E800ADF81C40CDE905350DF046FC04460028BE
:10A8F800BDD008490B685B07B9D00D4B0390029394
:10A90800002301221846CDE9003318F0CCF9AEE750
:10A9180042AC00209C86002099DE02003FAC00205B
:10A92800A7DE0200C1DE0200D1DE02004CC0020038
:10A93800F8DE02002DE9F041624B86B01B7813B1B6
:10A94800614A1278A2B961490A6812F0060F0CD060
:10A958005D4A1278CDE903325D4B0222029300234F
:10A968001846CDE9003318F09EF906B0BDE8F0812D
:10A978004FF03108574F97F82D3008EB0318404631
:10A9880020F0F0FA054660B950490B685C07ECD036
:10A99800514B0122CDE901030090034618F083F9D9
:10A9A800E3E70346AB223C4603F8012B07F13006E8
:10A9B800224603CAB24218605960144603F10803DC
:10A9C800F6D10022454905F1310097F82D301831AC
:10A9D8009A421ADB41462846FFF734FF3B4E0446AD
:10A9E800336800B35A070AD03D4B03900293002303
:10A9F800012231461846CDE9003318F054F92846AB
:10AA080006B0BDE8F04120F0A6BA044651F8083C6B
:10AA180003F1100653F804CBB34244F804CBF9D140
:10AA280001321030D1E703F00703022B3BD92D4B3D
:10AA38000322CDE9010331460346009018F033F9AB
:10AA4800336803F00703022B2DD92B7803220393D5
:10AA5800254B3146CDE9014320462346009418F0A2
:10AA680022F9336803F00703022B1CD91F4B03227A
:10AA7800CDE901433146234620460397009418F058
:10AA880012F9336803F00703022B0CD997F82D301D
:10AA980003220393164B3146CDE901432046234652
:10AAA800009418F000F933685B07A8D50020114B13
:10AAB80004220393104BCDE90080029303492B46EF
:10AAC8009BE700BF3FAC002041AC00209C860020E3
:10AAD80023DF0200449F00205EDF0200208A00205E
:10AAE8008FDF0200B3DF0200D3DF0200E4DF0200E1
:10AAF800FADF020012E00200B4E90200F0B5284FC4
:10AB080005463E7891B096B909F08CF9044670B1C3
:10AB180024490B685A0722D0234B0122CDE901634F
:10AB2800334603900096184618F0BDF817E040F237
:10AB38000113ADF828301D4B28460B9309238DF8D7
:10AB48003030FDF777FF40F2FF533E78ADF83830EC
:10AB5800174B8DF831000D950F931EB10024204638
:10AB680011B0F0BD134D05AC0FCD0FC42B680125F6
:10AB780023600322104B00950AA905A809F020F9C3
:10AB880004460028EAD007490B685B07E7D00B4B5F
:10AB98002A46CDE90163039033460096C3E700BF18
:10ABA80042AC00209C8600204BE002004D8600202D
:10ABB8004886002080BB0200488200206FE0020027
:10ABC80070B50024624B90B01C70624B05A91C70D4
:10ABD800614B06A81C70614B614D1C70614B1C7069
:10ABE8000123059308F0E8FC059BE3B108AE314664
:10ABF80006A8FFF7F9FA2B6803F00703022B0AD916
:10AC0800594B0322CDE901432946234620460396A2
:10AC1800009418F048F80F223146544820F006FAFC
:10AC28000022534BDA772B685E0709D5514B042273
:10AC3800029300234A491846CDE9003318F033F847
:10AC48004D480AF0F1F94D480AF0A4FB044680B1DA
:10AC58002B685D070AD04A4B039002930023012218
:10AC68001846CDE900333E4918F01DF8204610B0CB
:10AC780070BD44480AF0A8FB2B68044620B1580769
:10AC8800F4D0414B0394E8E7590708D53F4B042219
:10AC9800CDE9010332490346009018F004F800207A
:10ACA80008F02AF82B68044620B15A07DED0384B42
:10ACB8000390D2E703F00703022B08D9354B032290
:10ACC800CDE9010326490346009017F0ECFF284E12
:10ACD80019F061FA3378B3B92A6802F00702022A38
:10ACE8000AD92D4A184603922C4A1D49CDE901324A
:10ACF8000093032217F0D7FF0F2227491C4820F0A2
:10AD080095F90023F3731A4807F072FC68B12B68B1
:10AD18005B070AD0224B03900293002301221846B6
:10AD2800CDE900330E4917F0BEFF1148FFF7E6FEE4
:10AD38002B6803F00703022B98D91A4B03220293BE
:10AD4800002307491846CDE9003317F0ACFF8DE71B
:10AD58003FAC002042AC002041AC002040AC0020B9
:10AD68009C8600203EAC0020A2E00200549F0020F8
:10AD7800449F0020B5E00200B0810020308200200E
:10AD8800D5E002002082002000E1020030E102004C
:10AD98002DD6020043E1020059E1020063E10200FE
:10ADA8001BD5020094E1020070B5284D06462B68B9
:10ADB8008CB003F00703022B0AD9254B03910293A9
:10ADC8000023032229461846CDE9003317F06BFF0C
:10ADD8000024204B30461C701F4B04AE1C701F4BC8
:10ADE8001C701F4B1C701F4B1C701CF07FF83146E9
:10ADF800FFF7FAF92B6803F00703022B0AD91A4B5D
:10AE08000322CDE9014320462346104903960094C6
:10AE180017F049FF154C206818B109F013FD0023FD
:10AE280023601348FFF76AFE68B12B685B070AD0F6
:10AE3800104B03900293002301221846CDE90033FA
:10AE4800024917F030FF0CB070BD00BF9C8600208F
:10AE5800B7E102003FAC002042AC002041AC00202A
:10AE680040AC00203EAC0020D1E10200749F0020DD
:10AE7800449F0020E9E10200012300B58DB001A93B
:10AE880002A8019308F098FB019B4BB104A902A802
:10AE9800FFF7AAF9102204480DEB020120F0C6F8CA
:10AEA8000DB05DF804FB00BF549F00202DE9F04F62
:10AEB800AA4D04462B680E465A0707789BB013D54F
:10AEC800437904220793037929460693C3780593A7
:10AED8008378049343780393A14B02930023184685
:10AEE800CDE9003317F0DFFEBB2F2A681AD0BC2F3C
:10AEF80000F0EC80BA2F40F0A28102F00702022A8B
:10AF080009D9984B03220293002394491846CDE9A6
:10AF1800003317F0C8FE944B18681BB0BDE8F04F1B
:10AF2800FFF708BD0A2E0ED8530709D08F4B02939E
:10AF3800002301221846CDE90033884917F0B3FEF3
:10AF48001BB0BDE8F08F570713D563790422079328
:10AF5800237982490693E3780593A3780493637869
:10AF680003937F4B029300231846CDE9003317F073
:10AF78009AFE073EB30809932B6894F8068003F0FD
:10AF88000703022B10D97A4A7A4B7449B8F1000F9B
:10AF980008BF13460393784B0322029300231846F5
:10AFA800CDE9003317F07FFE0026DFF804A207344E
:10AFB800724B93F82D20B24265DD0023182094F8D7
:10AFC800009094F801B0678800FB03F101EB0A0CCC
:10AFD8003AF80110494574D1DCF810202B68D18962
:10AFE800B94210D003F00703022BD78145D9644B2F
:10AFF800032202930023CDE903971846CDE90033D5
:10B00800564917F050FE2B6803F00703022B34D97A
:10B01800CDF80C904FF000095A4B03220293484692
:10B028004B46CDE900994D4917F03DFE2B6803F0DA
:10B038000703022B21D9544A544B4846CB4518BF25
:10B0480013460393524B0322CDE9019343494B46E0
:10B05800CDF8009017F027FE2B6803F00703022BAA
:10B068000BD94C4B0322CDE9019348464B463B494B
:10B078000397CDF8009017F016FE099B01369E4203
:10B0880004F1040494D3B8F1000218BF0122424B22
:10B098001A702B6803F00703022B7FF651AF3A4A68
:10B0A8003A4BB8F1000F18BF134603933B4B0322EA
:10B0B80002930023CDE900331846284917F0F3FD21
:10B0C8003EE701339342FFF67FAFD6E7B31F9BB24B
:10B0D80002F007072BB9002F3FF432AF304A029233
:10B0E80027E70F2B28BF0F231E461A46A11D0EA8BF
:10B0F8001FF03CFF06F168030DEB03060023022F47
:10B1080006F8303C0AD90EAA0392264A1846CDE919
:10B11800013212490322009317F0C5FD01270BA93C
:10B128000CA80B9708F048FA0B9B2BB92A68500714
:10B138003FF406AF1C4AD2E70EA807F059FA0446B6
:10B14800002837D02B6859073FF4FAAE174B039005
:10B1580002930023CDE900333A46ADE79C860020F0
:10B168000EE20200CCE20200749F002032E20200EC
:10B178000ADA020003DA020057E20200449F0020C4
:10B1880070E2020095E20200B9DE0200A4DB0200D0
:10B19800AEE2020000D402003EAC0020BAE2020097
:10B1A800EDE2020007E30200FED402001BD5020014
:10B1B800208A00200EA8FFF7A1FC064650B12B6894
:10B1C8005A073FF4BDAE244B0390CDE901430094E8
:10B1D8002346C1E70EA8FDF72DFC0EA902461F481D
:10B1E80001F05AFF044650B12B685B073FF4A8AE44
:10B1F8001B4B0390CDE9016300963346ACE7194B2E
:10B208000F2218460EA91FF011FF12AEC473314663
:10B218000CA8FEF7E9FF2B6803F00703022B7FF663
:10B228008FAE0EABCDE903630F4B0322CDE901438B
:10B23800204623460D49009417F035FD80E612F0AC
:10B24800060F3FF47DAE0A4B0222029300230397B8
:10B25800CDE9003330E700BF3AD5020065D50200DA
:10B2680074D50200449F00209AD502009C860020D5
:10B278001EE3020030B50C491C460B6815465B07F7
:10B2880085B009D5094B042202930023039418467C
:10B29800CDE9003317F007FD28462146FFF706FEE3
:10B2A800204605B030BD00BF9C86002036E3020072
:10B2B80010B5094C0A44914200D110BD11F8013B68
:10B2C80058400309E35C0001C0B243401809205C00
:10B2D8001B01DBB25840EEE764E302002DE9F04FB2
:10B2E80091B0009302F004030293C2F3C203013346
:10B2F800840705460E46DDF868900392059340F0F2
:10B30800BB81041D30B1072909D86FF01B0011B0AB
:10B31800BDE8F08F01F00706341DC6F10806009B52
:10B328004FF000084FF0040A591E4FF0FF3347460C
:10B338000193C3465346CDF810800DB100982060A4
:10B348000598002800F3E8809848009A824203D3C1
:10B3580097488242C0F0E080039AA4EB050E92075A
:10B368004FEA9E0000F103810F2F00F2B180002DFB
:10B3780000F0058107F140020DEB020C019A0CF870
:10B38800200C0CF8102C049801300490E7E07A287F
:10B398005DD84B280ED8472859D829282DD82528D4
:10B3A80052D054D820287AD02338D0F1000B4BEB58
:10B3B800000B74E04C382E2849D8DFE800F07048BC
:10B3C800484848484848484848484B4848484848F2
:10B3D80048484859484B4B595959704B6D48704823
:10B3E800184B184848827F4B48484B487F0000203C
:10B3F8004FF0000B4FF0040A38E001222A38C0B29F
:10B4080002FA00F010EA0E0F49D110F0625C2FD159
:10B4180010EA020B43D06046013C5444B4FBFAF4F2
:10B428000AFB04F4002D61D0A3EB050CA444B44539
:10B438003FF66BAF002868D1042B47D159F8043B7D
:10B448002360042304342AE0019A013A01924FF060
:10B45800000B24E011F8010C6C2834D1002011F8FD
:10B46800023C83466C2BC5D14FF0080A5346D3E7FC
:10B4780009F1070929F00709073424F00704F9E856
:10B4880002AB35B106982044B0423FF63EAFC4E95E
:10B4980000AB4FF0000B08344FF0080A534611F880
:10B4A800010F002878D0BBF1000F7FF470AF25287A
:10B4B800F5D14FF0010B019B013301934FF0040AC2
:10B4C800ECE7584694E700208346A5E7082B02D00E
:10B4D8006FF015001BE709F1070929F00709B9EC16
:10B4E800027B84ED007B08230834D8E768B9042B75
:10B4F80002D109F10409A4E7082BE9D109F10709E8
:10B5080029F0070909F10809EDE7059801380590C0
:10B5180059F8040B009010E7039A900720D54FF0D4
:10B52800010CA4EB050E4FEA9E00BEF5007FCFD2BA
:10B538000F2FCDD8F5B107F140020DEB020E019A9D
:10B54800C0B20EF8200C0EF8102CBCF1000F3FF41E
:10B558001AAF60F07F000EF8200C08F101080137DF
:10B56800C5F108024FF6DA7E0434069297E74FF0E9
:10B57800000CDAE7BCF1000F01D00136EFE7029AC0
:10B588000236002AEBD10098CDE90631FDF752FAD0
:10B59800DDE906310644E2E7631BB3F5806F97D215
:10B5A80045B9A6F10804E018B1E600BF2CB40200C2
:10B5B800B8250300029A9B0828602B709DF810306C
:10B5C800C2B1EB7085F80280B8F1000F05D00022F7
:10B5D80008A8C5F1010C97420ED14FF0000AC5F139
:10B5E80001030DF1200901930DF1300B574512D1DC
:10B5F800601B8CE66B70E5E710F8013B190608D56F
:10B6080004EB0C0EB64503F07F033FF67EAE04F85C
:10B61800013B0132DFE7B8F1000F03D099F90020B0
:10B62800002A17DB029BD3B11AF80B2004F8012B70
:10B638000022019B98182044B0423FF666AE99F864
:10B648000000009904F8010B204603921FF08EFCBD
:10B65800039A14440AF1010A09F10109C6E799F8A5
:10B66800002055F822300093029B009845F82230BC
:10B67800FDF7E0F9421CDCE76FF00D0047E600BF7C
:10B68800014B1860704700BF5082002080B5054606
:10B698000E461746984614F0F5FF03461FF0B8FE0D
:10B6A8000446DFF81890424649F8003039463046DB
:10B6B800A84754F8090004F0B7FD00BF10000000C7
:10B6C8002DE9F047058B04462807904611D4022936
:10B6D80005F0070540F0CC80204617F089FE78B1C8
:10B6E8000138218B042811D8DFE800F0C2106D85DD
:10B6F800950001290CBF45F0100545F0200525836C
:10B7080088F31188BFF36F8FBDE8F08701F0070A4F
:10B71800AA4500F0A5800027B9463E46A368002B3D
:10B7280000F0BC8041F00801218388F31188BFF341
:10B738006F8FA168002900F0BA800D68002900F019
:10B74800B680334652462046D1F80480C047002DC3
:10B7580076D02B6829461D46F0E701F007035A1FEB
:10B76800012A1BD8002221F00701062B276889B27D
:10B77800C4E9002209D13B4603E0628B01326283AF
:10B788001B68002BF9D141F002012046218317F0F4
:10B798002FFE00287AD041F0200176E0042B0AD150
:10B7A80021F0070189B22046218317F021FE10B14C
:10B7B80041F020012183218B01F0070AAA454FD0CF
:10B7C8000027B946AAE7236921F0070141F00601DD
:10B7D800062DD3F8009021832DD1B9F1000F3FD069
:10B7E80041F00801218388F31188BFF36F8F204649
:10B7F8003949C84729E021F00701236941F00401CC
:10B8080089B2042DD3F804902183E6D000274FF0A5
:10B81800040A3E4682E721F00701236941F0050149
:10B8280089B2052DD3F808902183D6D000274FF090
:10B83800050A3E4672E700274FF0060A3E466DE7C6
:10B848002B4687E7B9F1000FD1D1EFF311882023F8
:10B8580083F31288BFF36F8F238B23F008032383AE
:10B86800258BEA062ED525F01003238305F007055E
:10B878006669218B002EBFF670AF00232768C4E9E4
:10B88800003321F0070141F001012183218B4FF0A2
:10B89800000901F0070AAA457FF440AF002F9CD0A9
:10B8A80041F00801218388F31188BFF36F8F002FBF
:10B8B800C8D03D68394633465246204617F0C4FD85
:10B8C8002F46F4E7AB067FF51BAF25F02003238353
:10B8D80005F0070500E700BF7D3402002DE9F743B6
:10B8E8000F4606460821C06A17F0A8FF80463C6844
:10B8F800DFF84890241A3C6004EA0905AC4203D8F2
:10B90800002003B0BDE8F08308236A46214630468C
:10B9180017F01CFF0028F4D16946304617F098FF4D
:10B9280040B1BDF80230BDF8042005EA090513440A
:10B938001D443C60A4EB0804E0E700BF0000FFFFE3
:10B9480073B504464FF6FF72C06A082117F076FFF8
:10B95800002563680F4EADF800208DF80620A289F7
:10B96800191833401344181A60606846ADF802107D
:10B97800ADF8045017F049FF6946204618F028F83A
:10B988002046211D17F01BFF284663683340A3603B
:10B9980002B070BD0000FFFF2DE9F04704468CB0EF
:10B9A80000F1140738461EF09EFDA06A8368DB6824
:10B9B80098470346E06248B99C490A6855071AD077
:10B9C8009B4A0090CDE90102012212E0A06A836837
:10B9D800DB6898470368013B1F2B12D993490B6812
:10B9E8005C0708D0934B0293002301221846CDE947
:10B9F800003317F013FF6FF0150528460CB0BDE8AB
:10BA0800F087A06A216809AA1DF0E4FA28B18749DD
:10BA18000B685807EFD0884BE5E7A5892DB10A9B3D
:10BA2800B5FBF3F203FB12552DB180490B685A0799
:10BA3800E1D0824BD7E7E389012B09D87B490B6812
:10BA48005B07D8D07E4B0095CDE901532B46BBE769
:10BA5800E36A049593F805904FF0FF334FF0FF32F7
:10BA6800384613F0B9FE0821E06A17F0E7FEA84649
:10BA78000646E3891FFA85FA534508D8E389434502
:10BA880023D1384613F020FF6FF02C05B5E7A189C4
:10BA98002B04891B13FA81F14A4608232046049196
:10BAA80017F062FE78B1204604A917F088FE08F165
:10BAB800010808234A46204604991FFA88F817F017
:10BAC80053FE0028DAD00135D3E753450BD104994A
:10BAD80008234A462046891B17F046FE18B9204617
:10BAE80004A917F06CFE204604A9FFF7F7FE0546E7
:10BAF80018B1384613F0E8FE7FE7049B4FEA134875
:10BB08004FEA08486360C4F80880D4E901139942F1
:10BB18000FD30823204605AA17F018FE054600286B
:10BB2800E7D105AB13F8012B914535D10135082D27
:10BB3800F8D1636820461B0C1B0404A9049317F072
:10BB48003EFE4A462046A389049917F00DFE051EBD
:10BB5800CFDB636800F086804FF6FF7906EB0308B9
:10BB6800A3891FFA88F29B1B9A42CDF810802FD325
:10BB780000236168002B44D0090C09042046049175
:10BB880004A917F01CFE2046049917F025FE054667
:10BB9800002D00F08380ACE7204605A917F058FE79
:10BBA800626810B9921B6260AFE7BDF81850BDF823
:10BBB8001610E06AC4F80880294417F03FFE404494
:10BBC8009042A060EED1002DECD06FF01C0576E01D
:10BBD80008234146204607AA17F0B8FD0546002865
:10BBE80087D1204607A917F033FE30B1BDF81C30C5
:10BBF8004B4502D1BDF820300BB1B044B0E701236A
:10BC0800B7E7204617F0E8FD054600287FF471AF36
:10BC180063680C4AA18913400B44A3EB4603636095
:10BC280013402046A36017F0FBFEB0E70087002012
:10BC3800A9E30200CBE30200E8E3020000E402000B
:10BC480014E402000000FFFF4A4620465B1A17F082
:10BC58008BFD051EFFF64DAF08D0E26AA368126897
:10BC68001344A360D4E901318B42EDD86168A389FC
:10BC780001EB46029A428BD1DFF85080A26801EAB4
:10BC880008039A4284D0204617F0A6FD05460028EE
:10BC98007FF42FAF636803EA0803A360A389A2882F
:10BCA800A3EB46039A4206D0384613F00DFE012353
:10BCB80000252374A1E6204617F09BFE054638466A
:10BCC80013F002FE002DF2D097E600BF0000FFFF40
:10BCD8002DE9F04F1D46037C95B004460691049269
:10BCE8008BB967490A68520707D0664A1846CDE9F2
:10BCF80001320093012217F091FD6FF00C063046D7
:10BD080015B0BDE8F08FC26A0821104617F096FDFD
:10BD180029460590104617F091FDA389059A074614
:10BD2800A3EB8203AB42C0F0A8801DB1049B002B9B
:10BD380000F0A3806368099320460AAA09A9DDF8E0
:10BD480024A017F0C2FD06460028D8D1BDF8283037
:10BD5800069A934206D06268099B9A42ECD1002D5C
:10BD680035D1CCE720460AA917F072FD0028F2D099
:10BD7800BDF82A90BDF82C303DB39D4227D14FEA3B
:10BD88001A4A4FEA0A4AD144AA46E36ADDF810B0D3
:10BD98001B685B4203F020030793079B4946534502
:10BDA80028BF534620460CAA984617F0CFFC002817
:10BDB8004AD1424658460CA91FF009F938B9BAEBDE
:10BDC800080AC144C344E8D199E7002B97D0002F53
:10BDD8003DD1B94604F1140A4FF0FF324FF0FF335A
:10BDE800504613F0F9FCE3899E4243D0A16862688B
:10BDF80009EB01039A422FD3069B2046ADF8303059
:10BE0800FF23049A8DF836302B46ADF83210ADF882
:10BE1800345017F0A4FD29460746E06A17F00EFDD6
:10BE2800A3680344A36057B90CA817F0EEFC20469A
:10BE38000CA917F0CDFD002814BF07462F46504621
:10BE480013F042FD3E465AE7C1DC064657E7059B1C
:10BE58001F441FFA87F9BDE72046FFF771FD074623
:10BE68000028ECD1204617F0DBFD07460028E6D174
:10BE78000136B8E76FF01B07E1E76FF015063EE7FC
:10BE88000087002095E302002DE9F0471E46037C59
:10BE980088B004460F469046BDF8409083B93049B3
:10BEA8000A68520707D02F4A1846CDE90132009395
:10BEB800012217F0B3FC6FF00C0008B0BDE8F08762
:10BEC8000821C06A17F0BAFCA389A3EB4003B34268
:10BED80043D30025D4F804A0CDF814A04D4551460D
:10BEE800DDF814A009D9636853451ED1BDF8183090
:10BEF800BB421AD06FF00100DFE7204606AA05A969
:10BF080017F0E3FC0028D8D1BDF81830BB4206D1A1
:10BF1800204606A917F09CFC08B10135ADB262684D
:10BF2800059B9A42DAD15146E0E7BDF81C30002B58
:10BF3800E0D0A945DED8BDF81A00090CB3424FEA93
:10BF4800014128BF334601444246204617F0FEFB14
:10BF58000028B2D1BDF81C00AFE76FF01500ACE7C0
:10BF68000087002095E302001FB5034678B91449FD
:10BF78000A68520706D0134A0090CDE9010201224F
:10BF880017F026FE6FF0150005B05DF804FB836816
:10BF980073B90B490A68520707D00B4A1846CDE90E
:10BFA80001320093012217F013FE6FF00400EBE753
:10BFB8001B681BB105B05DF804EB18471846E3E7AA
:10BFC800088700203EE402004FE402001FB5034644
:10BFD80078B914490A68520706D0134A0090CDE987
:10BFE8000102012217F0F4FD6FF0150005B05DF8AD
:10BFF80004FB836873B90B490A68520707D00B4AD8
:10C008001846CDE901320093012217F0E1FD6FF0E7
:10C018000400EBE75B681BB105B05DF804EB18475B
:10C028001846E3E7088700203EE402004FE40200D8
:10C0380030B585B008B101B182B916490B685A0705
:10C0480008D0154B0122029300231846CDE900338E
:10C0580017F0BEFD6FF0150005B030BD84680CB157
:10C06800E5687DB90B490B685B0708D00B4B0122CB
:10C07800029300231846CDE9003317F0A9FD6FF0AD
:10C088000400E9E741F8040BE36805B0BDE8304077
:10C09800184700BF088700206DE402004FE4020043
:10C0A8001FB5044678B91E490B685B0707D01D4BBE
:10C0B8000122CDE901030090034617F089FD6FF0D6
:10C0C800150004B010BD036873B915490A68520712
:10C0D80007D0154A1846CDE901320093012217F01E
:10C0E80077FD6FF00100ECE79A680AB112697AB936
:10C0F8000B490B685B0708D00C4B01220293002305
:10C108001846CDE9003317F063FD6FF00400D8E757
:10C118004168184690470028D3D12060D1E700BF76
:10C128000887002099E40200AAE402004FE4020014
:10C1380030B51346044685B078B91E490B685D07CB
:10C1480007D01D4B0122CDE901030090034617F0EB
:10C158003FFD6FF0150005B030BD006870B9154996
:10C168000B685A0707D0154B0122CDE9010300904F
:10C17800034617F02DFD6FF00100ECE782680AB165
:10C1880095687DB90B490B685B0708D00C4B0122F9
:10C19800029300231846CDE9003317F019FD6FF01C
:10C1A8000400D8E70A46AC46616805B0BDE83040EF
:10C1B800604700BF0887002099E40200AAE4020053
:10C1C8004FE40200034A13680BB952681360002059
:10C1D800704700BF5482002030B50C460E4985B028
:10C1E8000291D0F8D4110546CDE9003100F1F001F3
:10C1F8004FF0FF33204612F041FE50B9012384F876
:10C208006C30D5F8D03123B1204605B0BDE83040B8
:10C21800184705B030BD00BFE93C020038B50C46F0
:10C228001146054617F05EFD034638B9284604490D
:10C2380017F058FD03460020236038BD0120FBE7B6
:10C24800D1E802002DE9F04F0123814605694668CF
:10C258008FB005F21447D7E8EF2F002A03D1C7E8BB
:10C26800E13F0029F7D10CBF1A46002240F0BF80F9
:10C27800B368B16A05F5F8781C1F104617F0B6FDCB
:10C2880084427DD8013A00F0AC80B2FA82F24FF0D5
:10C298000044D44072682046073222F00302C5F8F1
:10C2A8008822B16A17F0A2FDC5F88C02B36A40462D
:10C2B8006343033323F0030302EB4302230103EB3D
:10C2C8004403093323F0030303EBC403C5F88022B6
:10C2D8001A440832C5F87C227368C5F88442C5F848
:10C2E8007832444BC5E9B363D9F80030C5F8243235
:10C2F800316800F0EBF9044600283FD1D9F810B0B6
:10C30800D9F804A0D9F800300BF53A7905900493D0
:10C318004846DAE90734012B08BF103C1EF04CFAF6
:10C32800DAF82400344904AB009301EBC02123461A
:10C3380048464FF4006213F0FBFC2021DAF8243061
:10C348002E4A06A814F050FD06A9484613F0CEFD63
:10C358002B490BF536701EF0E8F9DAE90501836818
:10C368005C684CB15B46274AA047044630B9DAE915
:10C37800050183681B692BB96FF05704002129E078
:10C3880001327AE70122984704460028F6D11E4B6D
:10C398002846C5F8D0311D4BC5F8D4311C4B039342
:10C3A800D5F838320293D5F83032CDE90083D5F884
:10C3B8009032B26AD5F8101400F050F904460028FB
:10C3C800DCD105F1F00012F0FFFD0028C5F81804D3
:10C3D8000ADB0221384617F0B9FC20460FB0BDE849
:10C3E800F08F6FF00B04C9E76FF01504C6E76FF024
:10C3F8007704F2E73F3D020078AD0020CFE4020069
:10C40800253D0200193D02001DC40000CB3E02007C
:10C41800853D020013B5044640B100230122CDE951
:10C428000032074BD0E9091212F0D8FC236F1B68C1
:10C4380023B1606F02B0BDE81040184702B010BDCC
:10C44800D1E8020013B504460846216901F21441F7
:10C45800D1E8AF1F022910D193B1A0B10121CDE9D4
:10C4680000311346D0E9091212F0B8FC074B984284
:10C4780008BF6FF00B0002B010BD6FF00F00FAE7B5
:10C488006FF04C00F7E76FF00100F4E72EF8FFFFBC
:10C498002DE9F74388461546066906F21443D3E8A2
:10C4A800AF3F022B5FD1136823B96FF0150003B0BB
:10C4B800BDE8F0831B78002BF7D0D6F81094B9F1BB
:10C4C800000F33D106F5EC774FF0FF324FF0FF3312
:10C4D800384613F081F930462A6801A9FFF79EFE15
:10C4E800019C1CB9384617F02FFCDEE705F108035C
:10C4F80023676B6984F86C906367646460B138463D
:10C5080017F022FC21463046A36E2A68FFF764FE26
:10C518000020C8F80040CAE72022296804F1480032
:10C528001EF084FD384617F00FFCF1E730460F493E
:10C5380017F0D8FB04460028B7D005F108030367B5
:10C548006B6940644367002380F86C3020222968B7
:10C5580048301EF06BFD22460121304600F060F89D
:10C568000028D5D0A1E76FF00F00A0E7D1E80200BE
:10C5780010B50C46006900F21443D3E8AF3F022B14
:10C588000FD189B10A4900F536701EF0FAF8204635
:10C598001DF0E8FB7822002120461EF00EFD002049
:10C5A80010BD6FF00F00FBE76FF00100F8E700BF68
:10C5B800789F00202DE9F04F05460E46904600274B
:10C5C800D0F8C4A085B0AAF5BE7421463046FCF761
:10C5D8001FFAE0B9114BA4F1480B0293DAF81030B6
:10C5E8003246CDE9008329464FF0FF335846AAF575
:10C5F800E27912F043FC60B97823012203FB079328
:10C6080083F86C20DAF80C300BB158469847783428
:10C6180017B105B0BDE8F08F0127D6E7F93E020053
:10C628001FB5144690B18AB1012912D10A4B00F105
:10C63800F0010293D0F8D431483201934FF0FF3320
:10C648002046009312F01AFC04B010BD6FF01500DC
:10C65800FAE70020F8E700BFF93E02002DE9F043B1
:10C6680087B00E46DDE90E811446DDE910251F4628
:10C6780030B329B3DFF850C000F1F009002D08BF2E
:10C6880065469EB9CDE9034400F5E2742046059657
:10C698001DF002FE03ABCDE900432A463B46414666
:10C6A800484612F009FD07B0BDE8F0830022414674
:10C6B8000E9248462A4607B0BDE8F04312F052BE33
:10C6C8006FF01500EFE700BFBDC50000F0B50E46DE
:10C6D800044689B0002872D0436B0BB9394B4363C9
:10C6E80001232246E3630023D4F8981004F14000A4
:10C6F80042F8301FCDE901334FF0FF330093D4F8EF
:10C708009C301DF001F8304A06AB92E8030083E83C
:10C718000300184612F068FA0546D8B904F1340047
:10C7280012F044FA0546A8B9616B284805AA1CF01E
:10C73800C7FF054670B9059B9A6872B10C33D4F8E7
:10C748009400C4F8A03017F004FCC4F8D40030B941
:10C758006FF00B05284609B0F0BD0346EFE7D4F8A3
:10C76800940017F0F6FBC4F8D8000028F0D0D4F8ED
:10C778008C30D4F8A010C4F8A8300423C4F8AC3026
:10C78800C4F8C4300223A362114BB4F89420D4F83F
:10C79800D470C4F8B810C4F8D010D4F8901023623C
:10C7A80004F1A403A4F8B020C4F8A470C4F8C0101D
:10C7B800A4F8C820C4F8BC00A661E362CAE76FF019
:10C7C8001505C7E7DBE4020094BB0200E5E40200BC
:10C7D800B4C002002DE9F84F81462F480F4617F0E4
:10C7E800FAFB064670B92D4C0546A0464FF0010BE2
:10C7F800DFF8ACA0544507D3B9F1000F02D04FF0D1
:10C80800010AE5B9BDE8F88F237B6BB12368DB68C3
:10C818000BB12046984723681B6943B96368042213
:10C828002046196800F08EF901361034E2E72046F8
:10C8380098470028F2D00BFA06F31D43F4E7A946FF
:10C8480095FAA5F4B4FA84F40AFA04F3260108EB7D
:10C8580004146FEA030B25EA0305237B63B158F838
:10C8680006301B6993B94644736804222046196848
:10C8780009EA0B0900F066F9002DE1D127B14FF460
:10C88800A470002113F0E0FE4D46BAE72046984711
:10C898000028F1D1E7E700BFA89F0020A4B9020053
:10C8A800B4B9020008B5034608462BB1044A136020
:10C8B80000F07EFB002008BD6FF01500FBE700BF0D
:10C8C8008082002008B50023074A4FF40041137006
:10C8D800064A07481360074A1360FFF7E3FFBDE8FD
:10C8E800084000F07FB800BF43AC0020A09F0020A4
:10C8F800DB3F0200A49F002070B50B4D297841B999
:10C908000120FFF767FF094C094EB44202D3012307
:10C918002B7070BD63685B791BB1236820469B68E8
:10C9280098471034F1E700BF43AC0020A4B90200D7
:10C93800B4B9020010B50446064817F04CFB3CB1E8
:10C94800054BD3E8EF1F0139C3E8E21F002AF8D1ED
:10C9580010BD00BFA09F0020A49F00202DE9F0413A
:10C96800164B05461B689847154CDFF85880A86099
:10C97800444501D3BDE8F08163685B793BB1297810
:10C988004B0706D52368294620461B68984710346C
:10C99800EEE728462E88C1F3C20700F06DF9C6F30A
:10C9A80082160246002EEDD00028EBDB0123394623
:10C9B800204600F0E1F8B042E9D3E3E780820020A6
:10C9C800A4B90200B4B90200044A054B9B1AB1EBA2
:10C9D800D30F34BF52F83100002070474CB8020022
:10C9E800A4B9020000210B480B4B30B51B1A0B4CA5
:10C9F800DB080430994200D130BD10F83120256899
:10CA080002F0070225F007052A4344F8042B0131F8
:10CA1800F0E700BF4CB80200A4B902009C860020D1
:10CA2800F8B5064600240A4F0A4DED1BED08AC4246
:10CA380003D14FF0FF342046F8BD57F8340020B139
:10CA48003146FBF7E5FF0028F5D00134EFE700BFDA
:10CA58004CB80200A4B9020000282DE9F047884626
:10CA680015461F461DDA4FF0000A5446DFF8A0901D
:10CA7800234EA6EB09063609B24509F1100902D181
:10CA88002046BDE8F08759F80C0C3B462A4641463B
:10CA98000079FFF7E1FF844238BF04460AF1010A32
:10CAA800EAE7184B184AD21AB5EBD20F26D203EB95
:10CAB800C5031C79BC4228BF3C460722134EC0B2AE
:10CAC80000EB400056F82530824023EA020304F0C8
:10CAD8000702824013430021032223FA02F000F0E8
:10CAE8000700814202F1030238BF01461E2AF4D131
:10CAF80023F007030B4346F82530C1E70024DCE7A1
:10CB0800B4B902004CB80200A4B902009C86002007
:10CB1800A4B90200F8B506460F460024074D084B95
:10CB2800ED1AED08AC4200D3F8BD002122B23B4615
:10CB38003046013417F070FAA4B2F3E7A4B9020042
:10CB48004CB8020038B50D4611460A4B4268C31A64
:10CB58001B1104460133137143689971FFF7DAFF1B
:10CB6800012263681D6063685A71BDE8384017F098
:10CB780050BA00BFA4B9020070B14168097973B115
:10CB8800002A17DBCBB20C4903EB430351F8220010
:10CB9800D84000F0070070474FF0FF31EFE7074932
:10CBA8000748401AB2EBD00F3ABF01EBC20108792F
:10CBB80018467047042070479C8600204CB8020035
:10CBC800A4B902002DE9F04F87B004AF0446D7E9B5
:10CBD8000EA90E46934698463D6BBAF1000F22D037
:10CBE800C7F80490CDF800901021534600207A6BC6
:10CBF800FEF774FBB0F5006F014615D31C490B68AE
:10CC080013F0060F0BD040F2FF730393194B022267
:10CC1800029300231846CDE9003317F02AFA0C379F
:10CC2800BD46BDE8F08F514604F007040BF0070B32
:10CC3800E40044EA8B1444EA412444EA05541735D5
:10CC48000D4425F00705ADEB050D04ADBAF1000F55
:10CC580007D0CDF8009053467A6B05F11000FEF727
:10CC68003DFB434622463146284617F0E9F9D6E708
:10CC78000C870020FAE40200406820B1034BC01A78
:10CC880040F38F0070474FF0FF3070479C860020BC
:10CC98000EB403B503AB53F8042B014604480193C3
:10CCA80003F0BCFE02B05DF804EB03B0704700BFB0
:10CCB800B7400200CA0605D48B064CBF0249034997
:10CCC800FFF7E6BF704700BFD0E802005D2403000D
:10CCD8002DE9F04F87B09DF8446004460D46904614
:10CCE8009946002E00F0A280159B03F0020A03F07B
:10CCF80001030493159B03F0080B03F48073059359
:10CD080017F088F9024600283DD020469449FFF7DD
:10CD1800BFFF0746BAF1000F09D0159B13F0440F67
:10CD280033D12A4620468F49FFF7B2FF0744049BB8
:10CD380053B18D4B204653F826208C4B8C49002A42
:10CD480008BF1A46FFF7A4FF059B002B49D0BBF18B
:10CD5800000F64D1B8F1000F66D0424620468549DD
:10CD6800FFF796FF0546129B3D44002B6DD1149B9F
:10CD7800002B73D1159BDB0700F1EB80204615993A
:10CD8800FFF798FFD8E00746C4E77B4B18680028F0
:10CD9800CCD07A4B4FF47A7A1B684FF46161B5FBBB
:10CDA800F3F5B5FBF0F300FB13550AFB05F5B3FBF0
:10CDB800F1F2B5FBF0FE4FF03C0C01FB123100FB29
:10CDC8001E55B1FBFCF30AFB05F5B5FBF0F50CFBB2
:10CDD800131120460091CDE901E56949FFF758FF95
:10CDE800A4E7BBF1000F1DD0664B204653F8262060
:10CDF8006549FFF74DFF0546B8F1000F05D04246DB
:10CE080020465C49FFF744FF0544B9F1000FAAD05A
:10CE18004A4620465D49FFF73BFF0544A3E74FF02C
:10CE28000009E1E75D46E7E745469CE7B9F1010FF0
:10CE3800129B06D1002B66D1149B002B7CD00025B9
:10CE48000CE0002BF8D052485EE05248129B224674
:10CE5800514916F0E4F9149B002B6AD0DFF844819D
:10CE6800DFF84491149F2046102F159928BF1027EA
:10CE78004FF0000BFFF71EFF5D4547DC139B49464B
:10CE880020461A78FFF704FF4FF0010B1BF0070F3D
:10CE980003D141462046FFF7FBFE5F453DD9139B72
:10CEA8004946204613F80B20FFF7F2FE0BF1010B61
:10CEB800BBF1100FEAD14FF0000A20463749FFF7BF
:10CEC800E7FE5246DFF8E4B0139B20469A5CA2F1D5
:10CED80020015F2928BF2E225946FFF7D9FE0AF103
:10CEE800010ABAF1100F1DD01AF0070F03D14146FD
:10CEF8002046FFF7CDFE57455246E5D84146204625
:10CF0800FFF7C6FEEBE7234835469FE74146204634
:10CF1800FFF7BEFE0BF1010BAEE720462049FFF7F5
:10CF2800B7FEC3E7139B3B441393149BDB1B14937B
:10CF380098D1002E7FF41EAF6268A168D2E9002361
:10CF4800206817F0A6F8002263681A6007B0BDE8E9
:10CF5800F08F2046054A0649FFF79AFE0EE700BF04
:10CF680037E502003BE50200E0C0020032E50200BE
:10CF7800B4E9020060E50200B09F0020AC9F0020E9
:10CF880044E50200F4C0020064E502006AE502001C
:10CF9800D3400200B7400200250A010075E50200EF
:10CFA80027240300292403006FE50200BEEF0200D6
:10CFB80000210123064A904206D8064A01B90123F6
:10CFC8001360054B18607047012140085B00F2E7C9
:10CFD80040420F00AC9F0020B09F0020014B03602F
:10CFE8000020704708C1020070B5114B0D461C683F
:10CFF800DCB1104B196800238B4202DB6FF0010093
:10D0080070BD224612F8106B864202D014460133D6
:10D01800F2E7E06810B96FF01200F1E71DF06AF965
:10D028000028F8D000202C60EAE76FF00C00E7E752
:10D03800D882002014C5020070B588B005460C4699
:10D04800C0B269461646FFF7CFFF00281BDB0098E1
:10D05800C8B143682268029383680195CDE9033615
:10D068000023CDE906230593C56817F071F86DB163
:10D078002846084901AA1BF0B1FF079808B9059B83
:10D08800236008B070BD6FF01500FAE76FF012006A
:10D09800F7E700BF5B4102002DE9F0410F4B054661
:10D0A8001C680E461746ACB14FF0FF324FF0FF3305
:10D0B8000B4812F091FB63683246D3F80880294682
:10D0C8003B462046C0470446054812F0FDFB204673
:10D0D800BDE8F0816FF00104F9E700BFB49F0020BC
:10D0E800B087002000230360044B5A6812B9C3E9D3
:10D0F8000000704710605860704700BFB89F00205C
:10D10800014B1860704700BFB49F0020002330B562
:10D1180085B00546CDE9023301904FF0FF334FF05B
:10D12800FF320B4812F058FB0A4B1C684CB92846D2
:10D1380000F0CCF80446064812F0C6FB204605B0BD
:10D1480030BD636820461B6801A998472468EDE74D
:10D15800B0870020B89F00200022024BC3E90022BC
:10D16800704700BFB89F00207FB50BAB05930393B2
:10D17800054B0122029300231846CDE90033FFF73F
:10D1880021FD07B05DF804FB87E502000022024B91
:10D19800C3E90022FFF7E0BFC09F00202DE9F74355
:10D1A80007460C4609B100230B6000261E4DDFF828
:10D1B80080904D450FD31D4B1D6885B355F8148CD1
:10D1C8003846414601AA143D16F0ECFF10B3D6B913
:10D1D80014BB2E461EE0D5F800803846414601AA09
:10D1E80016F0E0FF50B116B954B92E4606E00022F9
:10D1F8004046316816F0D6FF0028F5D11435D8E737
:10D20800019B2360F1E700224046316816F0CAFF0F
:10D218000028DDD16D69D0E7019B2360D9E730464E
:10D2280003B0BDE8F08300BFB4B90200C09F00207E
:10D2380040BA02002DE9F04188B0DDF83880044694
:10D248000D4616461F460790B8F1000F07D0D8F8CC
:10D25800001009BBD8F804E0BEF1000F25D1204624
:10D2680007A9FFF79BFFE0B1D0F808803B4632469C
:10D2780029460798C047A0B112490B685B0710D030
:10D28800114BCDE903400293002301221846CDE952
:10D298000033FFF769FF04E007AA16F083FF0028B0
:10D2A800D8D1002008B0BDE8F081D8F8083032465F
:10D2B8000E9329463B46F446079808B0BDE8F0416E
:10D2C800604700BF2C87002087E50200F8B50646B6
:10D2D8000025174C174FBC4208D3174B1C682CB3BA
:10D2E800143CB6B9E368E3B96469F8E72EB9E368B2
:10D2F8005BB9284605461434EDE70022314620681C
:10D3080016F050FF0028F2D1F3E79847002DF0D12E
:10D31800F0E700223146206816F044FF0028E1D1EA
:10D32800E2E79847002D08BF0546DDE72846F8BD27
:10D33800B4B9020040BA0200C09F002038B50C4DB5
:10D348004FF0FF334FF0FF320A4812F045FA2B78BE
:10D358003BB9FFF71BFF00F06DF8044610B9012335
:10D368002B700024034812F0AFFA204638BD00BFE6
:10D3780044AC0020B08700202DE9F04706468946D6
:10D38800048FDFF8ACA0013498B0A4B200F108070C
:10D39800651EADB2B5F5004F47D04A23294605AA08
:10D3A800384616F00EFC04F57F543F34A4B280468C
:10D3B8002146012338460DF10B0216F002FCB8F1A4
:10D3C800000F014610DC002810DC338FAB4209D176
:10D3D80032466B1E22F8383F4FF40041022338468C
:10D3E800FEF776FC2C46D3E7002808DC29463846A9
:10D3F80016F0E3FB2146384616F0DFFBE5E708F1B7
:10D4080060030DEB03080023524608F84C3C05A8BE
:10D41800CDF8009003AB0397ADF81040FFF70AFF73
:10D428000028DFD018B0BDE8F0870020FAE700BF79
:10D438001D4202007FB50123694605200193FFF7CD
:10D44800D3FD044660BB052002AA01A9FFF7F4FD3D
:10D45800044610B110F10C0F22D10399B1F5803FA9
:10D4680023D200231846009A9468084484421AD3A9
:10D478000133062BF9D10E4DA982EB825368284659
:10D48800AB60D368EB6316F05DFF044640B9094E04
:10D4980028466E60FFF726FE28466E60FFF730FECE
:10D4A800204604B070BD9BB2E5E76FF02004F7E7B3
:10D4B800C89F00208482002010B504461BF09AFF04
:10D4C80003490246204617F0DEF8002010BD00BFD1
:10D4D800C3E502001346002273B5044601920A21EF
:10D4E800586801AA01F016FC019D95B920EAE0747C
:10D4F8004FF40046294640F2E7304FF47A72002391
:10D50800C4FB0601FBF76AFA13F09EF8284602B03E
:10D5180070BD2A462046024917F0D1F8019DF5E76B
:10D52800EFE5020008B5034A034917F0ACF80020FC
:10D5380008BD00BFDCE60200E3E602002DE9F34186
:10D548001746002304460A21B86801AA019301F08E
:10D55800E1FB019DC6B24DB12A462046134917F09A
:10D56800AEF8019D284602B0BDE8F081042E09D925
:10D57800324620460E4917F0A2F8204617F0DBF88D
:10D588000125EFE77868FFF74BFAB0F1000804DAF5
:10D5980020467A68074917F092F800213346084672
:10D5A8000FFA88F216F038FDDCE700BF0EE702003C
:10D5B80035E702004CE7020010B504460FF0B8FA50
:10D5C80007490246204617F05EF82046054917F03D
:10D5D8005AF82146044813F015F9002010BD00BF81
:10D5E800ABE70200CAE70200F5D500002DE9F041DB
:10D5F80098B004460D46D0F8AC601DF039F90346E2
:10D608001DF006FF324A33491058334A002B18BF21
:10D618001A460092314A2346844218BF0A462846D1
:10D628002F4917F030F8D4E90A23CDE9002328461A
:10D6380094F90E30227B2B4917F025F8202210A9E7
:10D64800204612F063FC28490246636F284617F00B
:10D658001AF8204604A91DF022F910BB0AA81DF0EB
:10D6680028F908BBDDE90A236421DDF81080059F4D
:10D67800A8FB010C01FB07C1FBF7B0F942460346C2
:10D688001A49284616F0FFFF20460AA91DF000F99E
:10D69800024670B12846164916F0F5FF18B0BDE8E5
:10D6A800F0810AA81DF005F92846124916F0EBFF8B
:10D6B800EAE764220A9B2846F11A4A43B2FBF6F2CB
:10D6C8000091CDE901620C49324616F0DCFFE5E72E
:10D6D8001000000029240300D4E7020076FB0200B2
:10D6E800D7E70200E3E702000FE8020026E802009D
:10D6F8006EE802004BE802009BE80200F0B5002546
:10D70800044691B0294608AF1C2209A81DF055FC13
:10D71800134E1A22202138461DF04FFC214611488D
:10D7280013F070F807AA4FF4805130461DF0A4F8A2
:10D738006423079A2046C2F580514B431B0B05937F
:10D748004FF480530097CDE90313CDE90132064920
:10D758002B46324616F097FF284611B0F0BD00BFA1
:10D7680040D3002075D70000E7E8020070B50446F2
:10D778000D46D0F8AC6088B007A91DF089F80246BC
:10D7880028B128460E4916F07EFF08B070BD204625
:10D798001DF06EF86422079B0096F11A4A43B2FB0B
:10D7A800F6F2CDE90131074BCDE90362002818BF35
:10D7B800034622462846044916F065FFE5E700BF00
:10D7C8006EE80200D4E7020030E902002DE9F043D8
:10D7D80087B00546684611F0DBFD1423009E08213A
:10D7E80003FB0066164A284616F040FF154F009CBA
:10D7F800DFF85C80DFF85C90B44203D3002007B008
:10D80800BDE8F08323680BB11A7832B923463A464B
:10D81800142101A813F0E8FA01AB42460821284672
:10D8280016F024FF20461CF065FD074B0821002850
:10D8380008BF4B46054A284616F018FF1434DBE7A4
:10D84800A3E90200ADE9020094E902001DF002001C
:10D85800B2E902009AE902002DE9F041144688462F
:10D86800074610220021606813F060FBB8F1020F30
:10D87800064607D8202308213846244A16F0F6FE23
:10D88800336816E00A220021A06813F04FFBC5B2E6
:10D898002B46082138461D4A16F0E8FEB8F1030F5A
:10D8A8001AD1102D0CD0202DEAD0082D0BD13378A9
:10D8B800DBB208213846164A16F0D8FE002009E0E7
:10D8C80033889BB2F5E738460821124A16F0CEFE97
:10D8D8006FF01500BDE8F08110220021E06813F018
:10D8E80025FB0821034604460B4A384616F0BEFEBF
:10D8F800102D06D0202D07D0082DE4D1E4B23470C5
:10D90800DCE7A4B23480D9E73460D7E7DFE9020066
:10D918000AEA0200F4E902001BEA02002DE9F04FCE
:10D9280091464FF0FF350122584B85B0074688468F
:10D938001A60202603F0A0F82C46DFF870A14946AB
:10D948005246404603F0BCF8411C06D16A1C50D12F
:10D958004F49384616F0B3FE1CE073281FD07728CD
:10D9680032D0612816D1DFF848B110220021DBF847
:10D97800000013F0DBFA05460028E0D11DF048FD51
:10D98800444B1B58162BDAD1DBF8002042493846A5
:10D9980016F095FE6FF0150005B0BDE8F08F002277
:10D9A800DFF80CB11146DBF8000013F0BFFA0446AB
:10D9B8000028C4D11DF02CFD364B1B58162BBED1A8
:10D9C800DBF800203549E2E70022DFF8E4B0114631
:10D9D800DBF8000013F0AAFA06460028AFD11DF0C4
:10D9E80017FD2C4B1B58162BA9D1DBF800202C490E
:10D9F800CDE7631C01D12B49ABE75FFA86F8C6F384
:10DA0800C406002C3FD06B4629461A46A6EB050CE7
:10DA18000CE0B8F1100F1DD0B8F1200F20D0B8F1EC
:10DA2800080F2AD10878187031443344A64203D825
:10DA38000CEB01001028ECD9102CA14628BF4FF0A0
:10DA4800100929464B46384601F03CF81035A4EB3E
:10DA58000904D6E7088880B21870000A5870E3E70E
:10DA680008684FEA102E187083F801E04FEA104E4C
:10DA7800000E83F802E0D870D6E7082138460A4A33
:10DA880016F0F4FD86E7204686E700BF04830020F1
:10DA980070EA0200140000002FEA020042EA0200C5
:10DAA80055EA02008DEA0200F4E9020069EA020080
:10DAB800C8A3002070B50F4E04460D46337871B1E7
:10DAC80023B10D49BDE8704016F0F9BD012333704C
:10DAD80020460A4916F0D7FD0123337004E083F08D
