:10800000900C012051130100D58602003D130100A0
:108010003D1301003D1301003D1301003D1301001C
:108020000000000000000000000000005D150100DD
:108030003D13010000000000E11401003D130100A8
:1080400075170100751701007517010075170100FC
:1080500075170100751701007517010075170100EC
:1080600075170100751701007517010075170100DC
:1080700075170100751701007517010075170100CC
:1080800075170100751701007517010075170100BC
:1080900075170100751701007517010075170100AC
:1080A000751701007517010075170100751701009C
:1080B000751701007517010075170100751701008C
:1080C000751701007517010075170100751701007C
:1080D000751701007517010075170100751701006C
:1080E000751701007517010075170100751701005C
:1080F000751701007517010075170100751701004C
:10810000751701007517010075170100751701003B
:10811000751701007517010075170100751701002B
:10812000751701007517010075170100751701001B
:10813000751701007517010075170100751701000B
:1081400075170100751701007517010075170100FB
:04815000751701009E
:04815400FFFFFFFF2B
:1081580081F0004102E000BF83F0004330B54FEAF0
:1081680041044FEA430594EA050F08BF90EA020F5D
:108178001FBF54EA000C55EA020C7FEA645C7FEAF0
:10818800655C00F0E2804FEA5454D4EB5555B8BF13
:108198006D420CDD2C4480EA020281EA030382EA84
:1081A800000083EA010180EA020281EA0303362D16
:1081B80088BF30BD11F0004F4FEA01314FF4801CE9
:1081C8004CEA113102D0404261EB410113F0004FFB
:1081D8004FEA03334CEA133302D0524263EB4303B2
:1081E80094EA050F00F0A780A4F10104D5F1200E50
:1081F8000DDB02FA0EFC22FA05F2801841F10001AB
:1082080003FA0EF2801843FA05F359410EE0A5F17E
:1082180020050EF1200E012A03FA0EFC28BF4CF0AF
:10822800020C43FA05F3C01851EBE37101F0004565
:1082380007D54FF0000EDCF1000C7EEB00006EEB72
:108248000101B1F5801F1BD3B1F5001F0CD34908FC
:108258005FEA30004FEA3C0C04F101044FEA445253
:1082680012F5800F80F09A80BCF1004F08BF5FEADA
:10827800500C50F1000041EB045141EA050130BDBA
:108288005FEA4C0C404141EB0101013C28BFB1F5CC
:10829800801FE9D291F0000F04BF01460020B1FA17
:1082A80081F308BF2033A3F10B03B3F120020CDAEA
:1082B8000C3208DD02F1140CC2F10C0201FA0CF0C8
:1082C80021FA02F10CE002F11402D8BFC2F1200C2D
:1082D80001FA02F120FA0CFCDCBF41EA0C019040E3
:1082E800E41AA2BF01EB0451294330BD6FEA04042C
:1082F8001F3C1CDA0C340EDC04F11404C4F1200217
:1083080020FA04F001FA02F340EA030021FA04F328
:1083180045EA030130BDC4F10C04C4F1200220FA7F
:1083280002F001FA04F340EA0300294630BD21FABD
:1083380004F0294630BD94F0000F83F4801306BF83
:1083480081F480110134013D4EE77FEA645C18BF77
:108358007FEA655C29D094EA050F08BF90EA020F0E
:1083680005D054EA000C04BF1946104630BD91EA06
:10837800030F1EBF0021002030BD5FEA545C05D109
:108388004000494128BF41F0004130BD14F5800448
:108398003CBF01F5801130BD01F0004545F0FE41BC
:1083A80041F470014FF0000030BD7FEA645C1ABFF1
:1083B800194610467FEA655C1CBF0B46024650EA28
:1083C800013406BF52EA033591EA030F41F4002154
:1083D80030BD00BF90F0000F04BF0021704730B5DA
:1083E8004FF4806404F132044FF000054FF00001AF
:1083F80050E700BF90F0000F04BF0021704730B570
:108408004FF4806404F1320410F0004548BF404244
:108418004FF000013EE700BF42004FEAE2014FEA99
:1084280031014FEA02701FBF12F07F4393F07F4F74
:1084380081F06051704732F07F4208BF704793F077
:108448007F4F04BF41F40021704730B54FF460748A
:1084580001F0004521F000411CE700BF50EA01028D
:1084680008BF704730B54FF000050AE050EA010236
:1084780008BF704730B511F0004502D5404261EBA6
:1084880041014FF4806404F132045FEA915C3FF4E7
:10849800D8AE4FF003025FEADC0C18BF03325FEA84
:1084A800DC0C18BF033202EBDC02C2F1200300FA35
:1084B80003FC20FA02F001FA03FE40EA0E0021FA5A
:1084C80002F11444BDE600BF70B54FF0FF0C4CF448
:1084D800E06C1CEA11541DBF1CEA135594EA0C0FFA
:1084E80095EA0C0F00F0DEF82C4481EA030621EA35
:1084F8004C5123EA4C5350EA013518BF52EA033570
:1085080041F4801143F4801338D0A0FB02CE4FF021
:108518000005E1FB02E506F00042E0FB03E54FF051
:108528000006E1FB03569CF0000F18BF4EF0010E49
:10853800A4F1FF04B6F5007F64F5407404D25FEA45
:108548004E0E6D4146EB060642EAC62141EA5551F8
:108558004FEAC52040EA5E504FEACE2EB4F1FD0C3A
:1085680088BFBCF5E06F1ED8BEF1004F08BF5FEAB8
:10857800500E50F1000041EB045170BD06F000466A
:1085880046EA010140EA020081EA0301B4EB5C0417
:10859800C2BFD4EB0C0541EA045170BD41F480110F
:1085A8004FF0000E013C00F3AB8014F1360FDEBF34
:1085B800002001F0004170BDC4F10004203C35DA10
:1085C8000C341BDC04F11404C4F1200500FA05F393
:1085D80020FA04F001FA05F240EA020001F0004234
:1085E80021F0004110EBD37021FA04F642EB0601AA
:1085F8005EEA430E08BF20EAD37070BDC4F10C04D4
:10860800C4F1200500FA04F320FA05F001FA04F297
:1086180040EA020001F0004110EBD37041F1000183
:108628005EEA430E08BF20EAD37070BDC4F120058E
:1086380000FA05F24EEA020E20FA04F301FA05F2F6
:1086480043EA020321FA04F001F0004121FA04F29E
:1086580020EA020000EBD3705EEA430E08BF20EA6E
:10866800D37070BD94F0000F0FD101F000464000A8
:1086780041EB010111F4801F08BF013CF7D041EA2A
:10868800060195F0000F18BF704703F0004652002E
:1086980043EB030313F4801F08BF013DF7D043EAFF
:1086A8000603704794EA0C0F0CEA135518BF95EAB5
:1086B8000C0F0CD050EA410618BF52EA4306D1D13C
:1086C80081EA030101F000414FF0000070BD50EA5B
:1086D800410606BF1046194652EA430619D094EAE5
:1086E8000C0F02D150EA013613D195EA0C0F05D1CF
:1086F80052EA03361CBF104619460AD181EA030123
:1087080001F0004141F0FE4141F470014FF00000DA
:1087180070BD41F0FE4141F4780170BD70B54FF075
:10872800FF0C4CF4E06C1CEA11541DBF1CEA1355F5
:1087380094EA0C0F95EA0C0F00F0A7F8A4EB0504D7
:1087480081EA030E52EA03354FEA013100F08880CE
:108758004FEA03334FF0805545EA131343EA126397
:108768004FEA022245EA111545EA10654FEA00264C
:108778000EF000419D4208BF964244F1FD0404F505
:10878800407402D25B084FEA3202B61A65EB030561
:108798005B084FEA32024FF480104FF4002CB6EB1E
:1087A800020E75EB030E22BFB61A754640EA0C009E
:1087B8005B084FEA3202B6EB020E75EB030E22BFDE
:1087C800B61A754640EA5C005B084FEA3202B6EB1F
:1087D800020E75EB030E22BFB61A754640EA9C00DE
:1087E8005B084FEA3202B6EB020E75EB030E22BFAE
:1087F800B61A754640EADC0055EA060E18D04FEA6C
:10880800051545EA16754FEA06164FEAC30343EA0B
:1088180052734FEAC2025FEA1C1CC0D111F4801FD8
:108828000BD141EA00014FF000004FF0004CB6E7D1
:1088380011F4801F04BF01430020B4F1FD0C88BF70
:10884800BCF5E06F3FF6AFAEB5EB030C04BFB6EB7B
:10885800020C5FEA500C50F1000041EB045170BD6E
:108868000EF0004E4EEA113114EB5C04C2BFD4EB9B
:108878000C0541EA045170BD41F480114FF0000E1F
:10888800013C90E645EA060E8DE60CEA135594EA9B
:108898000C0F08BF95EA0C0F3FF43BAF94EA0C0F9E
:1088A8000AD150EA01347FF434AF95EA0C0F7FF413
:1088B80025AF104619462CE795EA0C0F06D152EA67
:1088C80003353FF4FDAE1046194622E750EA41064B
:1088D80018BF52EA43067FF4C5AE50EA41047FF45C
:1088E8000DAF52EA43057FF4EBAE12E74FEA4102BF
:1088F800B2F1E04324BFB3F5001CDCF1FE5C0DD9F6
:1089080001F0004C4FEAC0024CEA5070B2F1004F3F
:1089180040EB830008BF20F00100704711F0804F42
:1089280021D113F13872BCBF01F00040704741F407
:1089380080114FEA5252C2F11802C2F1200C10FA0B
:108948000CF320FA02F018BF40F001004FEAC123EF
:108958004FEAD32303FA0CFC40EA0C0023FA02F393
:108968004FEA4303CCE77FEA625307D150EA013369
:108978001EBF4FF0FE4040F44000704701F0004039
:1089880040F0FE4040F40000704700BF7BB972B968
:108998000029BEBF00204FF0004106E008BF0028B4
:1089A8001CBF6FF000414FF0FF3000F057B8ADF139
:1089B800080C6DE904CE002909DB002B1ADB00F056
:1089C8004FF8DDF804E0DDE9022304B070474042C7
:1089D80061EB4101002B1BDB00F042F8DDF804E0FD
:1089E800DDE9022304B0404261EB4101524263EBEE
:1089F80043037047524263EB430300F031F8DDF85C
:108A080004E0DDE9022304B0404261EB4101704714
:108A1800524263EB430300F023F8DDF804E0DDE99C
:108A2800022304B0524263EB4303704753B94AB977
:108A3800002908BF00281CBF4FF0FF314FF0FF305E
:108A480000F00CB8ADF1080C6DE904CE00F008F8A0
:108A5800DDF804E0DDE9022304B07047704700BF89
:108A68002DE9F04786468C460846089E154674460A
:108A78001946002B40F0C1808542B2FA82F245D9EE
:108A88004AB1C2F1200300FA02FC954094402EFA44
:108A980003F343EA0C0C4FEA154EA8B2230CBCFBB7
:108AA800FEF80EFB18CC08FB00F943EA0C43994585
:108AB80028D9EB1808F1FF3704D2994502D9A8F153
:108AC80002072B44A3EB0903A4B2B3FBFEFC0EFB85
:108AD8001C330CFB00F044EA0344A04214D92C19BF
:108AE8000CF1FF3304D2A04202D9ACF102032C44AA
:108AF800241A43EA07401EB1D4400023346073604F
:108B0800BDE8F0874746DDE76346F1E792BB431BC4
:108B180001214FEA154EAFB2200CB3FBFEFC0EFB51
:108B28001C330CFB07F840EA0343984561D9EB185E
:108B38000CF1FF3004D2984502D9ACF102002B4465
:108B4800A3EB0803A4B2B3FBFEFC0EFB1C330CFB27
:108B580007F744EA0344A7424DD92C190CF1FF3317
:108B680004D2A74202D9ACF102032C44E41B43EA25
:108B78000040C0E7C2F120039540944020FA03F179
:108B88002EFA03F34FEA154E9040AFB20343B1FB00
:108B9800FEFC0EFB1C10190C0CFB07F841EA004107
:108BA800884522D969180CF1FF3004D2884502D9CA
:108BB800ACF102002944A1EB08019BB2B1FBFEFC19
:108BC8000EFB1C110CFB07F743EA01439F420ED929
:108BD800EB180CF1FF3104D29F4202D9ACF102012B
:108BE8002B44DB1B41EA004193E76046E3E761461B
:108BF800F7E76046A4E76346B8E7834206D916B9A3
:108C0800002108467CE7C6E900E0F9E7B3FA83F7F4
:108C18008FB9834201D3724508D8BEEB020460EBDA
:108C2800030301209C461EB9002169E73846FAE78C
:108C3800C6E9004CF8E7C7F1200CBB400EFA07F56F
:108C480022FA0CF42EFA0CF1BA401C4320FA0CF369
:108C5800B8404FEA144901431FFA84FEB3FBF9F800
:108C680009FB18300B0C08FB0EFA43EA00439A453F
:108C780040D9E31808F1FF3004D29A4502D9A8F187
:108C880002002344A3EB0A0389B2B3FBF9F809FBFA
:108C9800183308FB0EFE41EA03418E452CD96118B2
:108CA80008F1FF3304D28E4502D9A8F1020321440A
:108CB80043EA0040A1EB0E01A0FB02984145CE46D5
:108CC800434602D306D14D4504D20138B9EB020E12
:108CD80068EB0403002EA7D0B5EB0E0261EB03018D
:108CE80001FA0CFC22FA07F3F9404CEA0303C6E93F
:108CF800003199E74046C5E74346D9E710F8012B0C
:108D080011F8013B012A28BF9A42F7D0D01A7047C0
:108D1800034611F8012B03F8012B002AF9D17047FB
:108D2800034613F8012B002AFBD1181A01387047A3
:108D38002DE9F04706460F46904688B024F096FB8A
:108D48004FF47A73A0FB034503FB0155E40B012F95
:108D580044EA45444FEAD53507D122462B463046EA
:108D680027491EF0F1F8002012E0D8F804702548D1
:108D78003946FFF7C3FF70B139462348FFF7BEFFF6
:108D880048B130463A4621491EF0FAF86FF004001F
:108D980008B0BDE8F087204617A3D3E90023294689
:108DA800FFF7F4FD05460C4610461946184A0023FD
:108DB800FFF7ECFD80460F46104619464EF6602236
:108DC8000023FFF7E3FD82468946104619464FF413
:108DD8007A720023FFF7DAFDCDE902A9CDE906236F
:108DE800CDE904012A4623463046CDE900870949E2
:108DF8001EF0AAF8B7E700BF005C260500000000D7
:108E08003A1703004B1703004E17030057170300C8
:108E180080EE36006F170300F0B58BB0002140F6E6
:108E2800034009AA0BF070F80446002840F0BB8004
:108E3800099CE3681B7863B90CF0FEFA604BD3E831
:108E4800AF2F02F00902D3E8EF1FC3E8E02F002894
:108E5800F9D1204609F096F8002141F2030009AA49
:108E68000BF052F80446002840F09D80099A554DB1
:108E7800D16805F17803D1F80100D1F8051003C3D2
:108E8800104609F07FF8214641F2010009AA0BF0CB
:108E98003BF80446002840F086800998C3685A7851
:108EA80085F870205A88A5F872201A7985F87120FB
:108EB800B3F80720A5F87420B3F80530A5F8763084
:108EC80009F060F8214641F2020009AA0BF01CF8EB
:108ED8000446002867D1099F05F18006FA68531CEB
:108EE8004132344618685968083303C49342264609
:108EF800F7D1384609F046F80CF0C2FC04460028C1
:108F080051D195F88A3013F0200317D12E490A68F9
:108F180012F0060F06D02D4A0093CDE90132022245
:108F280020F04AF895F87C3013F0400352D12649D6
:108F38000A6857073AD16FF0120434E0072140F667
:108F480033400AF0B7FA0646002800F03F810721AF
:108F58000C301FF017FE6FF0040303700A23C0F8EB
:108F680002408471447004712246C370314640F651
:108F780033400AF0C9FF0446A8B9012140F6314040
:108F88000AF098FA0646002800F0208101210C30EA
:108F98001FF007FE2246314640F631400AF0B4FF82
:108FA80004460028BED020460BB0F0BD084A18463B
:108FB800CDE90132009301221FF0FEFFBBE700BF9D
:108FC800D48000200080002038860020A7350300C8
:108FD800D5350300002142F2030009AA0AF094FFE4
:108FE80004460028DFD1099BAD4EDA68D2F80100AB
:108FF800D2F8051003C6184608F0C4FF214642F20D
:10900800020009AA0AF080FF04460028CBD1099C77
:10901800E368B3F8012091B249B1D97839B1A5F81C
:109028000421DA78114606F1280023F06AFF204669
:1090380008F0A8FF95F87C6016F0200618D10221E8
:1090480040F66D400AF036FA0446002800F0BE806B
:1090580002210C301FF096FD012321460370467053
:10906800324640F66D400AF04FFF044600289AD178
:1090780095F89C301E0712D5002142F21C0009AA5F
:109088000AF042FF044600288DD10998C368D3F836
:109098000120D3F80530C5E9382308F073FF95F8A7
:1090A800D8305C062AD5022142F22E000AF002FAD4
:1090B8000446002800F08A8002210C301FF062FD6F
:1090C800B5F8B03121460380002242F22E000AF0A2
:1090D8001BFF044600287FF466AF014609AA42F246
:1090E8002A000AF011FF044600287FF45CAF0998B3
:1090F800C3685B7885F8203108F044FF082142F204
:1091080001000AF0D7F9044600285FD008210C3086
:109118001FF038FD95F8D81040F2022311F0400FE7
:1091280008BF0323024688074CBF43F02C0043F0D6
:109138000C008B0695F8D93048BF40F0400013F07A
:10914800090F95F8A23018BF40F4006003F0060339
:10915800CF0748BF40F01000062B08BF40F4C0708E
:1091680000211FF040FF2146002242F201000AF0D0
:10917800CBFE044600287FF416AF95F87C20B5F89E
:109188000431960625D4D3B9194641F2050009AA37
:109198000AF0BAFE044600287FF405AFB5F804319A
:1091A800099C4BB9E368B3F80120A5F804219A8813
:1091B8003C48114623F0A5FE204608F0E3FE0821AE
:1091C80040F601400AF076F9044698B96FF0680451
:1091D800E9E6002BF3D134490A68540702D16FF04D
:1091E8000404E0E6314A0093CDE9013201221FF080
:1091F800E3FEF4E708210C301FF0C4FC95F8D830E2
:109208000246D90747BF24A1D1E900014FF0005118
:1092180027481FF0E8FE2146002240F601400AF0E8
:1092280073FE044600287FF4BEAE014609AA4FF635
:1092380001400AF069FE1C4E00283FD0336813F045
:10924800060F09D01B4B0222CDE9014331462346C4
:10925800009418461FF0B0FE0BF0C6FF0446002825
:109268007FF4A1AE0DF01EFE044600287FF49BAEED
:10927800EB79002B40F0BC80336803F00703022B26
:109288007FF691AE0C4B0322CDE901030649034654
:1092980000901FF091FE86E6908800020080002072
:1092A800D88000200881002038860020F935030086
:1092B800108800021C360300F03603003368099F4B
:1092C80003F00703022BFC6851D9B4F801304C496C
:1092D800032B96BF4B4A4C4A52F82320CDE903236F
:1092E8004A4B0322029300231846CDE900331FF0AE
:1092F80063FE336803F00703022B38D9B4F8013052
:10930800B4F80320022B4AD1052A48D8404B53F819
:109318002230CDE903323F4B032202930023384920
:109328001846CDE900331FF047FE336803F0070302
:10933800022B1CD9D4F8091063790791B4F80710E7
:10934800032B0691A17998BF334ACDE9043198BF20
:1093580052F82320314B88BF2B4A029300230392F3
:1093680018460322CDE9003325491FF025FE38466B
:1093780008F008FE00214FF6024009AA0AF0C4FDD1
:10938800044670B1336813F0060F3FF465AF244B01
:1093980002930023CDE900330222194959E71A4BF9
:1093A800B7E70998C368B3F80130A5F8C13008F0E9
:1093B800E9FD95F8C1305B077FF54EAF21464FF6C2
:1093C800034009AA0AF0A0FD50B1336813F0060F54
:1093D8003FF442AF134B0094CDE901432346DBE74A
:1093E8000998C3685B7885F8C03008F0CBFD33E78F
:1093F80008210D481FF0C9FD0AF082FAD3E500BF25
:109408003886002070F3020043330300403603001F
:1094180058F302005936030048F30200713603007E
:109428009E360300C7360300D480002000000000E9
:109438002DE9F04F3A4B85B0D3F8042392070BD5AA
:10944800D3F8042142B10022C3F80421354AD3F8E5
:109458000431136801331360334D0024A8464FF4D8
:1094680080362F4FD7F8043306FA04F919EA030FA8
:109478002CD00123A340DB432C49D1E8EF2F02EA8B
:109488000300C1E8EC0FBCF1000FF6D122FA04F397
:10949800DB0703D4264B53F82430BBB1204622F017
:1094A800E7FB15F0A9FFEFF31183202282F312885E
:1094B800BFF36F8F08EB041CDCE902AB504571EB7E
:1094C8000B010AD283F31188BFF36F8F103514B1E3
:1094D80005B0BDE8F08F0124C4E70020D5E90012EB
:1094E8009FED0D7B28600E4803938CED027B029262
:1094F800C0F84893204622F0BBFB039B83F31188F6
:10950800BFF36F8F0029E1D0029A5B460092524662
:109518008847DBE7AFF30080FFFFFFFFFFFFFFFF98
:1095280000500140CCAB0020689A0020C0AB00205E
:1095380040510140000000002DE9FF4780461646D3
:109548000F46002900F0A280B1FA81F4341B002EE6
:1095580004F10A04C0F2A28030461BF0C7FE04449E
:1095680030461BF0C9FEA4EB06090546694630469D
:109578001BF0EAFEA9EB05036A4640467D333946EF
:1095880024F014FAA64282460D4600F38380B9F10E
:109598003F0F00F381804FF0FF33A9F12000C9F19C
:1095A800200103FA00F003FA09F223FA01F103FAA1
:1095B80009F3024328EA03030A4327EA0202134392
:1095C8000CBF01200020002D00F08A80B5FA85F339
:1095D800E31A40F2FE7203F23E43934200F389809D
:1095E800002B23EAE376D4BF01223246121BA2F2F3
:1095F8003341A2F23447A2F25344C1F1200C2AFAB3
:1096080001F325FA04F4C7F1200E05FA0CFC25FA3B
:1096180001F105FA0EFE43EA0C03A2F2544CA2F241
:10962800544223432AFA07F425FA0CFC44EA0E04B0
:1096380044EA0C04C7F1200C14F0010F54D0A8B16F
:109648004FF0FF3000FA02F200FA07F4144320FA50
:109658000CF2B840144303F001022AEA000A25EA92
:1096680004054AEA020A5AEA050A3DD0013341F1E3
:109678000002C2F3130253EA020138D0184642EA44
:10968800065141EC100B04B0BDE8F087B0FA80F445
:1096980020345BE7012096E7002094E7C6F1000933
:1096A80048461BF029FE241A48461BF025FEA61B37
:1096B8000546694648462E441BF0B8FE6A464046B1
:1096C80006F17C03394624F071F982460D4640467E
:1096D80039461BF021FE81458CBF0020012072E72E
:1096E800BAFA8AF3203373E7C1F31302C6E70136E7
:1096F800C4E79FED010BC6E7000000000000F07F03
:10970800032970B50546144606D013491DF038FCE8
:109718006FF01504204670BD966810493046FFF773
:10972800EDFA40B10E493046FFF7E8FA014618B1A4
:1097380028460C49EAE70121606802F017FD044653
:1097480028B10246084928461DF01AFCE2E72846D7
:1097580006491DF0F9FBDDE74CFB02002018030069
:1097680075FB020079FB02009CFB0200C4FB0200AF
:1097780038B5054602F092FB044620B1024603497B
:1097880028461DF0FDFB204638BD00BFEBFB02005C
:10979800022938B5054606D00B491DF0F1FB6FF0DC
:1097A8001504204638BD50681BF0ECFE044628B16D
:1097B8000246064928461DF0E3FBF2E7284604491D
:1097C8001DF0C2FBEDE700BF16FC020037FC0200EB
:1097D8005FFC0200032938B5054606D00B491DF089
:1097E800CFFB6FF01504204638BDD2E9010101F026
:1097F800DBFF044628B10246054928461DF0C0FB98
:10980800F1E7284603491DF09FFBECE786FC0200C0
:10981800B1FC0200D9FC020070B5084A1368042B99
:109828000ADC0668C3EBC3054E514C198188013325
:10983800A18081791360A17170BD00BFE89E0020EE
:1098480038B5054601F02AFE044630B102460549FE
:1098580028461DF095FB204638BD284602491DF0D4
:1098680073FBF8E7FBFC020025FD020010B5044677
:1098780001F09CFB204602491DF066FB002010BD4C
:109888003DFD020010B50E4B04461A784AB100227D
:109898001A700BF0ADFF20460A491DF055FB002059
:1098A80010BD01221A7001F0F9FA204606491DF090
:1098B8004BFB4FF480320023044819F001F9EEE71E
:1098C80089AD00204BFD02005DFD020010890020DB
:1098D8001FB500240D4B214620461C7016F076F962
:1098E8000121084616F072F909490B6803F00703CD
:1098F800022B08D9074B0322CDE901432046234612
:1099080000941BF013FE04B010BD00BF89AD002009
:10991800188600206FFD02001FB50021012016F0F7
:1099280055F909490B6803F00703022B08D9074BBF
:109938000322029300231846CDE900331BF0F6FDFD
:1099480005B05DF804FB00BF188600208EFD0200FC
:10995800F0B5CA0785B048D5C30746D5244E254C6F
:109968003378254FDBB9226802F00702022A08D9AA
:10997800224A2146CDE901321846032200931BF002
:10998800D5FD01243C7001F089FA4FF480320023A0
:109998001B48347005B0BDE8F04019F091B80025B7
:1099A8003D700BF025FF236803F00703022B09D94C
:1099B800144B0322CDE9015321462B462846009536
:1099C8001BF0B4FD01F034FC236803F00703022BFD
:1099D80009D90D4B03220293002306491846CDE905
:1099E80000331BF0A3FD0023337005B0F0BD00BFAA
:1099F80088AD00201886002089AD0020B2FD020045
:109A080010890020C3FD0200E9FD02001FB5104BBC
:109A18001B78CBB10F490B6803F00703022B08D959
:109A28000D4B0322029300231846CDE900331BF0A7
:109A38007DFD01F0FDFB4FF480320023074805B09F
:109A48005DF804EB19F03CB805B05DF804FB00BF05
:109A580089AD00201886002037FE020010890020FA
:109A68001FB502F069F8164904460B6803F00703AE
:109A7800E0B110F10B0F0BD1022B14D9114B0322BB
:109A8800029300231846CDE900331BF04FFD0AE08E
:109A98004BB10D4B03900293002301221846CDE9E8
:109AA80000331BF043FD204604B010BD022BFAD949
:109AB800064B0322CDE9010300900346E5E700BF0A
:109AC8001886002051FE02008CFE0200B4FE02003F
:109AD8002DE9F041022907469AB008D036491DF011
:109AE8004FFA6FF0150420461AB0BDE8F0815068AF
:109AF80023F090FE05460020304C314911AA206021
:109B080013F0F6FB002D02DB2368AB4206DC22686B
:109B180038462C49013A1DF033FAE2E7C5EBC50394
:109B280011AA02EB030868336B4413F8243CEC00D9
:109B380006AE032B33D8DFE803F0022C2E3022497F
:109B48003046FFF7E5F8631B683305966B4413F856
:109B5800232C1E21049213F8222C09A8039213F82F
:109B6800212C029213F8202C019213F81F2C00923A
:109B780013F81E3C154A19F079FE4146002009F0F9
:109B88000FFD044688B10246114938461DF0F8F920
:109B9800A9E71049D4E71049D2E71049D0E70A21CC
:109BA80030460F4A19F062FECDE738460D4909AA3A
:109BB8001DF0CAF997E700BFCAFE0200E89E002020
:109BC80021980000E4FE020000FF020022FF0200CC
:109BD80045FF020007FF02000EFF020018FF020007
:109BE800AE4D030065FF0200022938B5054606D0D0
:109BF8001A491DF0C5F96FF01504204638BD5068A4
:109C080023F008FE041E07DC01F00CFB1449024691
:109C180028461DF0B5F9EEE701F004FBA042F3DB9E
:109C2800104B1A781AB100221A700BF0E1FD0021CE
:109C380040F6CD4019F002FB224628460A491DF09D
:109C480083F9204601F050FB04460028D5D002468F
:109C5800064928461DF094F9CFE700BF81FF0200AE
:109C6800A1FF020089AD0020C5FF0200E1FF02004C
:109C780070B588B004F088FC454D064680B12B6865
:109C88005A070AD0434B039002930023CDE90033CF
:109C98000122294618461BF049FC002008B070BD77
:109CA8001CF0DAFE044648B12B685B07F5D03A4B46
:109CB8000390CDE9016300963346E9E740F6CD40CD
:109CC800002119F0BBFA2B6803F00703022B09D90E
:109CD800324B0322CDE9014329462346204600940E
:109CE8001BF024FC2E4815F0D1FE0446C8B12B68A1
:109CF8005E07D2D02B4B03900293002324491846C9
:109D0800CDE9003301221BF011FC2B685907C4D0A0
:109D1800254B039402930023CDE9003301221C490B
:109D2800B8E715F077FE044628B12B685807B4D079
:109D38001E4B0394E0E71E4A05AB07CA83E80700F9
:109D4800184601F0B3F9034648B12A685207A4D06F
:109D5800184B0390CDE9014300942346DEE72A68B7
:109D680002F00702022A07D9134A0949CDE901027C
:109D7800009003221BF0DAFB1049114823F0A2F9E6
:109D88004FF0FF314FF0FF3019F058FAF8E700BFF5
:109D9800188600201F000300500003007100030014
:109DA800599900008E000300C7000300AC000300AF
:109DB80050E70200EB0003000A010300159A0000B7
:109DC8001089002070B5084A1368042B0ADC06685D
:109DD800C3EBC3054E514C1981880133A1808179A9
:109DE8001360A17170BD00BF3C9F002070B503785F
:109DF80004460A2B0D4600F0AE8012D8012B14D071
:109E0800083B012B0FD846786EB11F2E28BF1F269E
:109E180041683246E81D23F0BAFF00232E44F3714F
:109E280001E0FF2B0BD0012070BD4378002BFAD046
:109E380043681B78C3F3400381F84A30F3E743785B
:109E4800012BF0D94368B3F90030752B69D03ADC9F
:109E5800302B68D02ADC062B67D023DC012B66D098
:109E6800022B66D0EB79002BDDD161686378022B79
:109E7800D9DD0A78002AD6D09A42D4DC4878083846
:109E8800012864D8012A62D0202A28BF2022541E23
:109E9800E4B222460231E81D23F079FF00232C4466
:109EA800E371C0E70D2BDDD12F4931E04C2B42D0B7
:109EB80005DC3D2B41D0472BD4D12C4928E0592B28
:109EC800D0D12B4924E0B3F5387F1AD00CDCA02B75
:109ED80035D005DC772B34D0782BC3D1254917E052
:109EE800C22BBFD1244913E040F2994293422AD0B1
:109EF80009DC40F2FF22934227D040F28F3293428E
:109F0800B0D11E4904E040F2A7529342AAD11C499D
:109F18001F2205F1270023F0B0FC002385F8463006
:109F2800A0E71849F4E71849F2E71849F0E7184993
:109F3800EEE71849ECE71849EAE71849E8E718494D
:109F4800E6E71849E4E71849E2E71849E0E701328B
:109F580011449B1A8BE74378012B02BF43681B7897
:109F680081F848305FE700BF390303000B030300A3
:109F78009D030300330303007E0303008F030300E4
:109F880084030300FD0203006A0303001F030300A8
:109F98004F0303004B03030005030300960303006C
:109FA8008A03030029030300580303001203030074
:109FB80070B506462D4C8EB079B123685A070AD081
:109FC8002B4B03910293002301222146CDE9003354
:109FD80018461BF0C8FA0EB070BD04A90CF01AFCA4
:109FE80010F0FF0312D1226802F00702022A1CD9DE
:109FF8000A21BDF8282018464A4303921D4A2146E3
:10A00800CDE90132009303221BF0ADFA236803F077
:10A018000703022B09D9184B032202930023134983
:10A028001846CDE900331BF09EFA30461FF0F4F9CC
:10A03800124B1860124B1B6803B198470025114B4F
:10A0480002219D60104B30461D701FF07CFA10F005
:10A05800FF00C0D023685B07BDD00C4B0122CDE9BF
:10A06800015302492B4603900095B1E7148600205E
:10A07800B2030300CD030300F7030300509F002041
:10A08800449F0020D081002030B400200104030048
:10A0980030B51D4C0546084621688BB001F0070114
:10A0A800022915D90A214B43CDE90623FEF7A2F967
:10A0B8000022164BFEF708FA154BCDE9040102936E
:10A0C8000023032221461846CDE900331BF04BFA42
:10A0D800104B09A91868099028461FF0B0FA80B1FA
:10A0E80010F1780F0DD023685B070AD00A4B039054
:10A0F8000293002301221846CDE9003302491BF0E0
:10A1080032FA0BB030BD00BF148600200000F43FC7
:10A11800210403005CE702006C040300F0B52B4D3A
:10A128000E4629680746134693B001F0070172B13D
:10A1380059B1274BCDE90362029300230122294636
:10A148001846CDE900331BF00EFA13B0F0BD022912
:10A1580009D9204A2946CDE9013218460322039637
:10A1680000931BF000FA384608A90CF053FB04468C
:10A1780070B12B685A07E8D0174B0390029300235D
:10A18800CDE900330122184610491BF0ECF9DCE751
:10A19800012EDAD99DF84530012BD6D90F4A06ABE6
:10A1A8005068916803C3384606A91FF0C6FA00280C
:10A1B800CBD010F1780FC8D02B685B07C5D0084BFF
:10A1C8000390CDE9014300942346DBE71486002081
:10A1D80087040300A8040300C30403005CE702002B
:10A1E800EA0403002DE9F04F8DB00E461546099399
:10A1F8001BF0ABF904460F469DB9AE490B6803F056
:10A208000703022B08D9AC4B0322CDE9015328469A
:10A218002B4600951BF0A7F9002030810DB0BDE852
:10A22800F08FDFF8DC82A54ED8F80000D6E90023CD
:10A23800A21A61EB0303B2F57A7F00F1010073F112
:10A248000003C8F8000014DB9A490B6803F0070301
:10A25800022B09D99A4B0390029300230322184634
:10A26800CDE900331BF07FF90023C6E90047C8F8A1
:10A2780000302B78AA2B00F0ED81AB2B40F0F08258
:10A28800099B302B0ED88B490B685B0708D08D4B88
:10A298000122029300231846CDE900331BF063F92D
:10A2A8000120BBE7884A6B1C164605F131041746A6
:10A2B80018685968083303C7A3423A46F7D196F895
:10A2C8002D300C2B11D97B490A6812F0060F09D0E2
:10A2D80003937E4B0222029300231846CDE90033F4
:10A2E8001BF041F90C2386F82D300027DFF8149273
:10A2F800DFF814B296F82D30BB4200F3A780012294
:10A30800734B6C4C1A70236803F00703022B40F25E
:10A31800898000276F4B0322029321463B4638462B
:10A32800CDE900771BF01FF9236803F00703022B20
:10A3380078D9694B0322CDE9017321463B4638465B
:10A34800039600971BF00FF9236803F00703022B0D
:10A3580068D9624B03220393614B2146CDE901730F
:10A3680038463B4600971BF0FEF8236803F00703C6
:10A37800022B57D9338C032203935A4B2146CDE93C
:10A38800017338463B4600971BF0EDF8236803F04D
:10A398000703022B46D9706AFEF73EF8524BCDE907
:10A3A8000401CDE9017303223B4621463846009754
:10A3B8001BF0D9F8236803F00703022B32D9B06ADF
:10A3C800FEF72AF8494BCDE90401CDE901730322D0
:10A3D8003B462146384600971BF0C5F8236803F032
:10A3E8000703022B1ED996F82C3003220393404B07
:10A3F8002146CDE9017338463B4600971BF0B3F878
:10A40800236803F00703022B0CD996F82D3003229A
:10A418000393384B2146CDE9017338463B460097F4
:10A428001BF0A1F84FF00009334FDFF88880DFF800
:10A43800DCB096F82D304B456ADC304B9B68002B1E
:10A448003FF42EAF28460999984729E799F8003034
:10A4580022460BEB031CE04604F1100AC6461068BE
:10A4680051680832AEE803005245F046F6D1DFF8ED
:10A478008880590108EB4312013328F80130012381
:10A48800137100230137C2E906C6936057801BF099
:10A498005CF84FF47A720023FEF778FA99F800A076
:10A4A800103408EB4A180AF1010AC8E9040189F8CE
:10A4B80000A01FE7148600201D0503004089002026
:10A4C8002A0503004D050300F49E00206A050300D9
:10A4D8008AAD00209D050300BA050300049F0020F3
:10A4E800CB050300D9050300E8050300F9050300BF
:10A4F8000B0603001C060300088A0020449F002066
:10A50800F09E00208BAD00204889002049060300FA
:10A51800236803F00703022B40F298804FF0000AEB
:10A528003B8803220393BD4B414602935046534652
:10A53800CDE900AA1BF017F8226802F00702022AE8
:10A5480040F284807A885346CDE902B2414603221C
:10A558005046CDE900AA1BF006F8226802F007026F
:10A56800022A73D93879AE49AE4A5346504518BFC6
:10A578000A460392AC4A4146CDE901A2504603225D
:10A58800CDF800A01AF0EFFF226802F00702022AB5
:10A598005CD9BA695346128941460392A34A504688
:10A5A800CDE901A2CDF800A003221AF0DCFF226851
:10A5B80002F00702022A49D9BA695346927A4146FB
:10A5C80003929B4A5046CDE901A2CDF800A0032290
:10A5D8001AF0C9FF226802F00702022A36D9BA69BE
:10A5E8005346D28941460392924A5046CDE901A288
:10A5F800CDF800A003221AF0B6FF226802F0070285
:10A60800022A23D9B868FDF707FF8B4ACDE9040170
:10A61800CDE901A25346032241465046CDF800A099
:10A628001AF0A1FF226802F00702022A0ED9D7E920
:10A638000401824ACDE90401CDE901A2534603226F
:10A6480041465046CDF800A01AF08DFF09F10109E6
:10A658002037EEE6099B082B7FF6EFAE00246B78D7
:10A6680028460B93AB78202107EE903A274610F83E
:10A67800036F10F8012FA1F12003C1F1200C02FA99
:10A6880003F322FA0CFC43EA0C038A4008392243FC
:10A6980043EA070B11F1080F14465F460A92E8D106
:10A6A800F8EE677ADFF8A8A14FF00009CAED0A7A38
:10A6B8004FF009088AF82C60614E05F10F070B9BD3
:10A6C8004B4515DD099B434512D9099B08F108083C
:10A6D80098452CD95B490B6813F0060F08D05A4BE4
:10A6E8000222029300231846CDE900331AF03BFFFB
:10A6F8001AF02BFF00234FF47A72FEF747F9DFF8C0
:10A7080054810646D8F80030C31A042B7FF695AE5C
:10A7180000274B4CDFF840A1DFF82891DFF83CB167
:10A728009AF800309F425CDBC8F8006085E6002399
:10A7380017F8060C3A1F12F8011F974241EA032343
:10A74800F9D100249AF82D10A1422BDD620136F8C8
:10A7580002E006EB441C864541D1DCF8181017F8D6
:10A76800040C97F801C0A1F808C0411E062926D894
:10A77800DFE801F0040B1C1F2525220032445BB2E0
:10A7880007EE903AF8EEE77A05E03244DBB207EEDE
:10A79800903AF8EE677AC2ED027A0A9B06EB441407
:10A7A800C4E9043B09F10109083788E732441BB2C0
:10A7B800E6E732449BB2EAE732449360EDE7214989
:10A7C8000B6813F0060FE8D0204B03900293002388
:10A7D80002221846CDE900331AF0C5FEDDE7013440
:10A7E800B2E7D9F8003003F00703022B13D9D4E9F4
:10A7F8000423CDE90623A068FDF70EFECDE9040188
:10A8080023880322CDE902B3002349461846CDE93F
:10A8180000331AF0A8FE0137203481E7340603001C
:10A82800160503001A0503006606030076060300F2
:10A838008C0603009F060300B2060300C706030048
:10A84800088A002014860020DB060300F8060300AF
:10A85800F49E0020EC9E00208BAD0020160703001C
:10A8680008490A6812F0060F3FF4E7AD0393064B58
:10A878000222029300231846CDE900331AF073FE32
:10A88800DBE500BF148600203A070300F0B51E4D33
:10A8980006462B6887B003F00703022B16D90C78FD
:10A8A8001A4A49781A4B022C14BF18461046022936
:10A8B80008BF1346CDE90303164B03220293002376
:10A8C80029461846CDE900331AF04DFE1249134BBC
:10A8D800002401270B604FF6FF7330460C740F817C
:10A8E800CB810FF0BDFA68B12B685B070AD00C4B1F
:10A8F8000390CDE901433A46234620460249009495
:10A908001AF031FE07B0F0BD148600205807030086
:10A918005B0703005E070300F0810020E985002043
:10A92800800703001FB580B10B490B685B0709D08E
:10A938000A4B03900293002301221846CDE9003305
:10A948001AF011FE05B05DF804FB054805B05DF886
:10A9580004EB17F04BBE00BF14860020EB00030089
:10A968005087002070B503788AB004460E4607ADBC
:10A97800032B20D8DFE803F002191B1D11492846D4
:10A98800FEF7C6F9059563781E210493A37830462F
:10A998000393E3780C4A0293237901936379009334
:10A9A800A37918F063FF0AB070BD0849E7E70849C2
:10A9B800E5E70849E3E70A212846074A18F056FF61
:10A9C800E0E700BF00FF020022FF020007FF0200CD
:10A9D8000EFF020018FF0200AE4D030070B592B0E2
:10A9E800244D0AAE0C461EF028FE3146FFF7BAFF8A
:10A9F8002B6803F00703022B22D90A22E38853436A
:10AA08000993A38808936088FDF7F4FC00221A4B89
:10AA1800FDF75AFDCDE906012088FDF7EBFC002281
:10AA2800154BFDF751FD154BCDE9040102930023A9
:10AA3800032229461846CDE9003303961AF093FD00
:10AA48002388062B02D16388062B10D02B6813F0BD
:10AA5800060F09D00A4B0222029300230549184623
:10AA6800CDE900331AF07FFD002012B070BD01203F
:10AA7800FBE700BF148600200000F43FA207030094
:10AA88000108030070B58EB006AE0C4615461EF0E0
:10AA9800D4FD3146FFF766FF09490B6803F0070349
:10AAA800022B0BD9074B032202930023CDE904455F
:10AAB8001846CDE9003303961AF055FD0EB070BD67
:10AAC80014860020430803002DE9F04F904699466C
:10AAD800064697B020B96FF0010017B0BDE8F08FB7
:10AAE800544907AA1BF0BFFF0028F4D00799002992
:10AAF800F1D04FF0000A06240C220AA822F0BDFE6D
:10AB08004D4B08AFD8681A8A9B7CDFF844B18DF8A2
:10AB180034A00890ADF82420BB710AAD2B785946B3
:10AB28008DF818306B780EAA06A88DF819308DF8B4
:10AB38001AA018F0C7FE0E9B02353B55013CEDD11B
:10AB48001F2248460EA9C0470028C6DBDFF8F89048
:10AB580000F158030DEB0300D9F8003000F8204C41
:10AB680003F00703022B0CD90EAB0393334B0322DC
:10AB7800CDE90143494623462046049600941AF03D
:10AB8800F2FC2F4C4FF00008A2464FF0280B94F827
:10AB980027600BFB08F53EB307223946204622F012
:10ABA8003DFE064600283DD1E81D50441F220EA94F
:10ABB80022F063FED9F80030AA4403F00703022B01
:10ABC8008AF8266001D8002087E70EAB03931D4B57
:10ABD800CDF81080CDE901630322334630461A4987
:10ABE80000961AF0C0FCEEE70898BA88BB79206096
:10ABF800E81DA280A3711F220EA9504422F03DFE39
:10AC08000123554485F82730D9F8003085F82660A7
:10AC180003F00703022BD6D90EAB0393CDF81080AF
:10AC28000A4BD7E708F10108B8F1050F04F1280429
:10AC3800ADD1C8E7730803005CE70200770803009A
:10AC48008CAD0020A208030014860020C908030068
:10AC5800B04D03002DE9F0410F46437890B00493BE
:10AC6800837828210393C378264A029303790446FC
:10AC7800019343790093837906A818F0F7FD3846C5
:10AC8800FEF74EF83946024606A803F00BFB0546C8
:10AC980080B11D490B685B0709D01C4B03900293D8
:10ACA800002301221846CDE900331AF05CFC10B0ED
:10ACB800BDE8F081164EB04696F827302BB1072232
:10ACC8002146304622F0AAFDA8B923681F22336026
:10ACD800A3883946B380A37928246C43E01DB37157
:10ACE800404422F0CAFD0023444484F8263001235E
:10ACF80084F82730DBE70135052D06F12806DBD17E
:10AD0800D5E700BFEF080300148600200F090300F1
:10AD18008CAD00202DE9F0478EB0A1B31EF08DFC5C
:10AD28001B4F0024B9460DF1180841460646FFF7A7
:10AD380019FE184BD3F800A0544524DA39460722E7
:10AD4800304622F06BFD4B370546F8B94B235C4380
:10AD580009EB0403DB79B3B107344C442146304690
:10AD6800FFF778FF0C490B6803F00703022B0AD999
:10AD78000A4B0322CDE9015328462B46CDE9034867
:10AD880000951AF0F0FB0EB0BDE8F0870134D3E768
:10AD980054AE0020409F0020148600203109030093
:10ADA8002DE9F04F3A4F9DB0884601A91C4605464B
:10ADB8004FF0000BFFF7D6FD3B46DFF8DC90D9F8E3
:10ADC80000605E4523DC132E3EDC4B235E432B687C
:10ADD800BA19BB51AB889380AB7982F847809371DD
:10ADE800002382F84930D3711CB12046294907F065
:10ADF80051FE0025D9F80060731CC9F80030AE4236
:10AE080022DD3C464FF00008A6EB050A3CE0194657
:10AE1800072228469A4622F001FD0AF14B03B0B9F1
:10AE28004B2202FB0B7292F94730A3EB0803002B6D
:10AE3800B8BF5B42052BC8BF82F8478024B1524691
:10AE48002046144907F026FE1DB0BDE8F08F0BF12F
:10AE5800010BB6E794F9472094F9923008F10108FC
:10AE68009A4204F14B090EDA4B22214609A822F036
:10AE78008EFF4B224946204622F089FF4B22484646
:10AE880009A922F084FF4C46D045E3DB0135B6E73B
:10AE980054AE0020F59D0000409F002070B564244A
:10AEA8008CB008F0BBFD00B9BCB908F0B7FD364E50
:10AEB8000346C8B9326855070AD0344AC4F1640455
:10AEC800CDE9010231460122039400901AF04BFBB0
:10AED8006FF00A0420460CB070BD4FF4A470002136
:10AEE80018F0ACF9013CDCE70024294B40F2DC52B5
:10AEF800214628481C6022F071FF0AF079FC80B1D5
:10AF080010F1780F0DD0336859070AD0224B0390FF
:10AF1800CDE90143012223463146204600941AF028
:10AF280022FB1E4D07AC0FCD0FC42B68236033687E
:10AF380003F00703022B0DD960233022CDE9033239
:10AF4800174B0322029300230F491846CDE900331B
:10AF58001AF009FB134907A80AF0F0FB0446002879
:10AF6800B8D033685B07B5D008F058FD0E4BCDE973
:10AF780003400293002301221846CDE90033024919
:10AF88001AF0F1FAA6E700BF14860020560903005C
:10AF9800409F002054AE00207B09030070E70200A8
:10AFA800A5090300A9AD0000E009030070B5364DFE
:10AFB800364C2B688CB073B9226812F0060F08D093
:10AFC800334A2146CDE901321846022200931AF08D
:10AFD800CAFA0CB070BD184604AE1EF02EFB3146FE
:10AFE800FFF7C0FC236803F00703022B0AD9294B9B
:10AFF80003220293002321461846CDE90033039625
:10B008001AF0B1FA244E3378ABB1244928680FF00E
:10B01800E5FD70B1236813F0060F0AD0204B0390AA
:10B028000293002302221846CDE9003317491AF08B
:10B038009AFA00233370132128681EF01CFB00289D
:10B04800C7D023685B070AD0164B039002930023EE
:10B0580001221846CDE900330C491AF084FA236816
:10B0680013F0060F09D0104B022202930023074960
:10B078001846CDE900331AF076FA28680BF00AF87A
:10B0880000232B60A5E700BF509F002014860020F6
:10B09800130A0300360A030030B40020D0810020D0
:10B0A800540A0300860A0300A40A03002DE9F041AC
:10B0B8004C4D04462B688EB003F00703022B09D9C8
:10B0C800494B03220293002329461846CDE9003351
:10B0D8001AF049FA94E80700444B83E8070044480B
:10B0E80008F0EEFF044688B12B685D070AD0414B93
:10B0F80003900293002301221846CDE90033394911
:10B108001AF031FA20460EB0BDE8F0814FF0FF3258
:10B118004FF0FF33384817F08FFA03F035FA04463A
:10B1280028B12B685807EDD0344B0394E1E701466A
:10B13800C822334822F052FE32480BF079FE04460A
:10B1480028B12B685907DDD02F4B0390D1E72F4842
:10B158000BF088FE044628B12B685A07D2D02C4B36
:10B168000390C6E71BF078FC044628B12B685B0700
:10B17800C8D0284B0390BCE727480EF091F92B68FC
:10B1880003F00703022B09D9244B0322CDE901431D
:10B1980020462346134900941AF0E5F90027184E73
:10B1A8000DF1180896F82730B3B141463046FFF73D
:10B1B800D9FB2B6803F00703022B0DD9F31DCDE94A
:10B1C8000483174B03220293002306491846CDE94E
:10B1D800003303971AF0C7F90137052F06F128063F
:10B1E800E0D18FE714860020BF0A0300449F0020A7
:10B1F8002DA90000EB00030050870020E40A03009B
:10B208008CAD0020249F00200F0B0300C08100207C
:10B218003A0B030050000300B88100206A0B0300BA
:10B228007D0B0300014B1868704700BF409F00204A
:10B238002DE9F04F254E264F336891B003F00703F0
:10B24800022B0BD93B6803220393224B314602930E
:10B2580000231846CDE900331AF085F900251E4C65
:10B26800DFF87C80DFF86490DFF878A03B689D42C7
:10B2780002DB11B0BDE8F08F0DF1200B59462046D6
:10B28800FFF770FB3368013503F00703022B17D96A
:10B29800E379BBB1E31D94F82720AAB104F1270292
:10B2A80094F94710CDE9043B0023CDE9062118465F
:10B2B80003224946CDE90285CDE900331AF053F956
:10B2C8004B34D3E7054BE6E75246E9E714860020FE
:10B2D800409F0020AE0B030054AE0020980B0300E3
:10B2E800C20B0300A20B03002DE9F047041EDFF890
:10B2F8007C8194B003DD5B4B1B68A34214DAD8F859
:10B30800003058070AD0584B0394029300230122B7
:10B318001846CDE9003355491AF025F96FF015059F
:10B32800284614B0BDE8F087514D286818B31EF0C0
:10B3380084F90CA9FFF716FBD8F8003013F0060FB4
:10B348000BD00CAB03934B4B0222029300234146D4
:10B358001846CDE900331AF006F9132128681EF0C3
:10B368008AF928680AF096FE00232B604FF4804083
:10B37800002117F063FF4B2704F1FF3907FB09F79A
:10B388003D4E0CA907EB060A5046FFF7EBFAD8F832
:10B39800003003F00703022B12D99AF80730EBB1FB
:10B3A800FB1D33440CAACDE90432344B032202932B
:10B3B80000232E491846CDE9003303941AF0D3F838
:10B3C8004B2303FB096999F84A304BB9D8F8002098
:10B3D8005107A3D02A4A0394029298E7294BE1E740
:10B3E8004FF006124FF44813CDE90623264B08AD5B
:10B3F8000FCB85E80F0029461D4B504606AA0BF0D7
:10B408006DFAD8F800300546B0B15B0788D000F176
:10B4180016030A2B96BF1D4A1D4B52F823300122F2
:10B42800CDE903031B4B02930023CDE900331846F3
:10B438000E491AF098F873E703F00703022B7FF61A
:10B448006FAF99F8073053B107373E44124B0322C8
:10B4580002930023CDE90346CDE90033E7E7094E1F
:10B46800F4E700BF409F0020030C0300148600206F
:10B47800509F00201C0C030054AE00204A0C03000F
:10B48800810C0300980B030084E7020090EC020093
:10B49800F50B03009E0C0300C40C03007FB5254B7D
:10B4A800254D186880B92B685A0708D0234B01220C
:10B4B800CDE901032946034600901AF054F86FF0CD
:10B4C8007F04204604B070BD1D4E337873B92A68D6
:10B4D80012F0060F08D01B4A2946CDE9013218465A
:10B4E800022200931AF03FF80024EAE716490FF009
:10B4F80075FB2B68044668B15B07E2D0134B0390D9
:10B5080002930023012229461846CDE900331AF098
:10B518002AF8D6E703F00703022B08D90C4B0322BD
:10B52800CDE901032946034600901AF01CF80023D0
:10B538003370D9E7509F002014860020E50C0300E3
:10B5480030B40020FA0C0300D0810020540A030014
:10B55800190D03002DE9F0418EB00D4607461EF087
:10B568006CF8424C06AE31468046FFF7FBF923687B
:10B57800132D03F0070360D0162D63D0082D66D174
:10B58800022B0AD93A4B0396029300230322214641
:10B598001846CDE9003319F0E6FF364D2B7893B104
:10B5A800236803F00703022B09D9334B03220293C4
:10B5B80000232E491846CDE9003319F0D4FFFFF7D0
:10B5C8006DFF00232B70414600200BF089F80546DB
:10B5D800F0B1236813F0060F0BD0284BCDE9030612
:10B5E8000293002302221846CDE900331F4919F0BF
:10B5F800BAFF234C2368AB4204D128460AF04AFD1F
:10B608000023236028460AF045FD28460AF042FD3B
:10B61800AF4208D01A4C23689F4204D138460AF03A
:10B6280039FD002323600022164B9A60164B5B6895
:10B6380003B198470EB0BDE8F081022BADD9134B8A
:10B648000396A1E7022BA8D9114B03969CE7022B7E
:10B65800A3D9104B03220293002321461846CDE9B3
:10B668000356CDE9003319F07EFF96E714860020D3
:10B67800460D030030B40020EF0D0300190E03003F
:10B68800509F0020D0810020449F0020700D0300AF
:10B698009D0D0300C90D03002DE9F04F0024DFF8CC
:10B6A80000A199B0204638490FAACAF8004011F005
:10B6B8001FFEDAF80030354E8BB9326802F0070207
:10B6C800022A08D9324A3146CDE901321846032206
:10B6D800009319F048FF002019B0BDE8F08F3368D7
:10B6E80003F00703022B09D92A4B0322CDE90143B2
:10B6F800314623462046009419F035FF4FF00008E4
:10B708000FAD07AFDAF800309845E4DADFF8949027
:10B7180039462846FFF726F90024CB4699F8273002
:10B72800E3B107222946484622F078F80346A8B92B
:10B73800326802F00702022A0CD9174A07345C441F
:10B74800CDE90102CDE90384032210490597009051
:10B7580019F009FF08F101080735D3E72834C82C88
:10B7680009F12809DAD1336813F0060FF2D00B4B30
:10B77800022202930023CDE903871846CDE900335E
:10B78800024919F0F0FEE5E7CD9D0000148600207F
:10B79800450E03005D0E03006D0E0300900E0300BE
:10B7A8003C9F00208CAD00202DE9F04F8BB00F4658
:10B7B800614D099000B179B92B68590709D05F4BE1
:10B7C8000293002301221846CDE900335A4919F0A3
:10B7D800CAFE6FF0150612E0DFF888B1DBF800301A
:10B7E8008BB92A68520708D0554A2946CDE9013253
:10B7F80018460122009319F0B6FE6FF07F06304616
:10B808000BB0BDE8F08F4F4B1B7813B14E4E338908
:10B8180023B92B685B07DCD04C4BD1E70846FDF712
:10B828007FFA431E1F2B81460ED92B685F07D0D0A5
:10B83800474B039002930023012229461846CDE97D
:10B84800003319F090FEC4E7831D1846089321F0D1
:10B85800DDFF044670B92B685E0708D03D4B012216
:10B86800CDE9010329460346009019F07CFE6FF0EC
:10B878000B06C4E7BC23037019F067FE4A464FF075
:10B888000009030EA370030CE370030A61702371AF
:10B89800607180468A46A01D394622F078FACDE9C3
:10B8A8000199CDF80090BDF8203031892246DBF8A7
:10B8B80000000FF0B3F82B68064688B159070BD083
:10B8C800254B0390CDE9019301224B462946484672
:10B8D800CDF8009019F047FE204621F090FF8EE742
:10B8E80003F00703022B0DD9099B032203931B4B7B
:10B8F8002946CDE90103CDE9068A0346049700905D
:10B9080019F031FEDBF800001DF097FE034670B910
:10B918002A68520707D0124A0749CDE90102009068
:10B92800012219F020FE204621F069FF51E739462F
:10B93800FFF790F9D0E700BF14860020BA0E030085
:10B94800E50C030030B40020D0810020CD0E0300A8
:10B95800080F0300200F0300410F0300670F0300C7
:10B96800A20F0300509F00202DE9F04F064687B034
:10B9780070B964490B685F0707D0634B0090CDE945
:10B9880001030346012219F0EEFD6FF0150512E0E0
:10B99800DFF8A0A1DAF800308BB95A490A685607CF
:10B9A80007D05A4A1846CDE901320093012219F00E
:10B9B800DAFD6FF07F05284607B0BDE8F08F18461E
:10B9C8001DF03BFE044648B94E490B685D07DCD0C4
:10B9D8004F4B0090CDE901030346D3E74FF0000831
:10B9E8004C4D95F8273063B107222146284621F0AF
:10B9F80015FF30B93146E81DFDF780F907460028E4
:10BA080068D008F10108B8F1050F05F12805E8D15B
:10BA18003C490B685B07B8D03F4B012202930023D7
:10BA280003961846CDE9003319F09DFDADE70620D1
:10BA380021F0ECFE044678B9D8F80030590708D050
:10BA4800364B0122CDE9010341460346009019F027
:10BA58008AFD6FF00B05AEE7BA23037019F075FD88
:10BA6800030EA370030CE370030A61702371607105
:10BA7800CDE901770097062381468B46224629891E
:10BA8800DAF800000EF0CAFFD8F80030054680B199
:10BA98005A070AD0224B0390CDE9017301223B4695
:10BAA80041463846009719F05EFD204621F0A7FE72
:10BAB80081E703F00703022BF7D91A4B0322CDE9DC
:10BAC800010341460346CDE9049B0396009019F013
:10BAD8004AFDEAE7144BDFF82C801B781BB1134DA5
:10BAE8002B89002BA3D1D8F8003058073FF44DAF6D
:10BAF8000F4B01220293002302491846CDE9003377
:10BB080041E700BF14860020C30F0300E50C0300C3
:10BB1800A20F03008CAD0020E30F0300200F0300E9
:10BB2800071003003310030030B40020D081002038
:10BB3800CD0E0300509F00202DE9F0435C4E5D4D73
:10BB480033682A6887B083B9500708D05A4A29460B
:10BB5800CDE9013201220093184619F004FD6FF077
:10BB68001504204607B0BDE8F083544F3B7873B105
:10BB780012F0060F09D0524B0222029300232946E5
:10BB88001846CDE9003319F0EEFC0024E9E74D4CE6
:10BB980002F00702218909B1608948B9002ADED07C
:10BBA800494B0122029300234249CDE90033D3E7F0
:10BBB800022A0AD9454ACDE90310CDE901322946BE
:10BBC80003221846009319F0CEFC4FF00108404BB1
:10BBD8003C4930682360A4F814800EF07BFF2B6882
:10BBE800044680B110F1780F0DD05907B9D0394B00
:10BBF800039002930023CDE90033012218462D4912
:10BC080019F0B1FCADE703F00703022B09D9324B59
:10BC180003220293002327491846CDE9003319F07F
:10BC2800A2FC4FF00108306887F800801DF005FD80
:10BC3800044650B92B685A0791D0284B4246CDE9A3
:10BC480001031C490346009087E7DFF89C80002623
:10BC5800C14698F827302BB307222146404621F0E9
:10BC6800DDFD0746F0B9073609EB0600FFF77CFE55
:10BC78002B68044648B15B073FF473AF184B039039
:10BC8800CDE9017300973B46B7E703F00703022BA2
:10BC98007FF67BAF134B0322CDE901030549034629
:10BCA800009070E72836C82E08F12808D1D16CE733
:10BCB800509F002014860020E50C030030B40020BB
:10BCC80065100300D081002083100300A610030034
:10BCD800EDA10000E01003000E110300A20F030005
:10BCE800371103005E1103008CAD00202DE9F041EF
:10BCF800074614460D4686B0002940F084805C4E05
:10BD0800336803F00703022B09D95A4B0091CDE998
:10BD1800011303220B462846314619F024FC257CE2
:10BD280005BB03234FF0010823744FF6FF73214628
:10BD380038462560A4F80880E3810EF091F868B1D0
:10BD480033685A070AD04C4B0390CDE901532B4670
:10BD5800009501221846464919F005FC002006B056
:10BD6800BDE8F081032D14D1042300252374434B2F
:10BD780025601B892146238102333846E3810EF072
:10BD88006FF80028EAD033685B07E7D03C4B039094
:10BD9800DBE7042DE2D1336803F00703022B09D94E
:10BDA800384B03220293002331491846CDE900336A
:10BDB80019F0D9FBFFF7C0FE3268034602F007020C
:10BDC800C0B110F10B0F0CD1022AC7D92E4B032298
:10BDD800029300231846CDE90033254919F0C3FB27
:10BDE800BCE7002ABAD0294B039002930023CDE97F
:10BDF8000033AEE7022AB1D9254A1D49CDE901022F
:10BE080000900322EAE7137C3BB9CB68252221493D
:10BE1800186806F0BFFD0120A1E7032B0FD1CC68FD
:10BE280025221C49206806F0B5FD1B4920681CF036
:10BE3800C2FF0028EFD1A288104B1A81EBE7042B30
:10BE4800E9D114492868252206F0A4FD00238DF8BD
:10BE5800143042F60213286805A9ADF816301CF014
:10BE6800AAFF0028D7D12A8A044B5A81D3E700BFFA
:10BE7800148600208511030097110300D08100204B
:10BE8800BF110300E31103000C1203008CFE020033
:10BE98005312030031B40020D88500202DE9F04F5B
:10BEA8009B4B9C4D1B782A6887B002F0070273B938
:10BEB80042B1994A2946CDE9013218460122009338
:10BEC80019F051FB6FF0150007B0BDE8F08F022A9A
:10BED800DFF88C921ED90024904B03220293294646
:10BEE80023462046CDE90044CDF80C9019F03BFBE1
:10BEF8002B6803F00703022B0CD999F82D30032285
:10BF08000393874B2946CDE90143204623460094F5
:10BF180019F029FB4FF00008824EDFF848A27D4F48
:10BF2800DFF844B299F82D30984501DB0020CBE7C3
:10BF38002B6803F00703022B69D9002433880322F6
:10BF4800CDE902A3394623462046CDE9004419F03D
:10BF58000AFB2B6803F00703022B58D973880322C6
:10BF6800CDE902B3394623462046CDE9004419F00D
:10BF7800FAFA2B6803F00703022B48D931796A4A89
:10BF88006A4B2046A14218BF13460393684B03220D
:10BF9800CDE9014339462346009419F0E4FA2B68A9
:10BFA80003F00703022B32D9B3693946D3E90023DA
:10BFB800CDE904235F4B0322CDE901432046234604
:10BFC800009419F0D0FA2B6803F00703022B1ED94E
:10BFD800B36903221B8939460393574B2046CDE9A1
:10BFE80001430094234619F0BEFA2B6803F00703B7
:10BFF800022B0CD9B36903229B7A394603934F4B22
:10C008002046CDE901430094234619F0ACFAB36900
:10C01800D97A012902D81A7B012A11D92A6802F093
:10C028000702022A0CD91B7B0322CDE90313444BD8
:10C038003946029300231846CDE9003319F093FAE4
:10C04800B369597B4B1EDBB2072B96BF3D4A3E4A6C
:10C0580052F823202B6803F00703022B0BD93B4B24
:10C06800CDE9032102930023032239461846CDE97E
:10C07800003319F078FAB3692A68DB8902F00702FD
:10C08800002B38D0022A32D90393314B0322029372
:10C09800002339461846CDE9003319F064FA2B68B5
:10C0A80003F00703022B22D9B068FCF7B5F9002486
:10C0B800284BCDE904010293032223463946204642
:10C0C800CDE9004419F04FFA2B6803F00703022B5F
:10C0D8000DD9D6E90423CDE904231F4B0322CDE96A
:10C0E8000143394623462046009419F03CFA08F1EA
:10C0F8000108203616E7022AF9D9184A3946CDE947
:10C10800013218460322009319F02DFAC7E700BF41
:10C118008AAD0020148600207E120300BC050300AF
:10C128001E060300088A0020160503001A050300EE
:10C1380066060300B2120300D9050300C212030009
:10C14800DB12030070EC020076120300EF1203000A
:10C158009F060300B2060300C70603000813030086
:10C16800F49E002034060300490603002DE9F04F31
:10C178008846064689B050B98C490B685D072CD0B3
:10C188008B4B0090CDE901030346012223E0DFF841
:10C1980050A2DAF8000088B984490B685C0707D018
:10C1A800844B0122CDE901030090034619F0DBF925
:10C1B8006FF07F05284609B0BDE8F08F7E4B1B78ED
:10C1C80073B97A490A68520707D07C4A0292012259
:10C1D8001846CDE9003319F0C6F96FF01505E9E7FF
:10C1E8001DF02BFA044648B970490B685F07F4D074
:10C1F800734B0090CDE901030346C6E74FF00009F1
:10C20800704D95F827306BB107222146284621F05A
:10C2180005FB38B93146E81DFCF770FD07460028D4
:10C2280000F0B18009F10109B9F1050F05F1280500
:10C23800E7D15E490B685B07CFD0634B01220293BD
:10C24800002303961846CDE9003319F08CF9C4E7AA
:10C258000725DFF8909199F82D3005EB83052846DE
:10C2680021F0D4FA044670B950490B685D0707D02D
:10C27800564B0122CDE901030090034619F073F9EA
:10C288006FF00B0596E7BB23037019F05EF984F88D
:10C298000680030EDFF85081A370030C6170E37011
:10C2A8006071030A224641460120237199F82D3016
:10C2B800BB4222DC0027CDE9017700972B46DAF84C
:10C2C80000002246BBF808100EF0A8FBDFF8DCA03F
:10C2D8000546DAF80030F8B15A070AD03C4B03900B
:10C2E800CDE9017301223B4651463846009719F0C3
:10C2F8003AF9204621F083FA5CE70B881072D37173
:10C308008B690137DB890432002B08BF4023537146
:10C318001B0A93712031C9E703F00703022B0CD9DC
:10C3280099F82D300322CDE903632A4B5146CDE914
:10C3380001030090034619F016F900263746DFF886
:10C34800ACB01A4999F82D309E42D2DADAF80030AA
:10C3580003F00703022B12D9D8F81830DA890692AD
:10C368001B8903220593B8F80030CDE9017BCDE99C
:10C37800036300230097184619F0F5F80B490136B6
:10C3880008F12008DEE7144B1B7833B1DFF860B002
:10C39800BBF80830002B7FF45BAF04490B685E07DD
:10C3A8003FF41BAF0D4B0293002310E714860020C7
:10C3B800C30F0300E50C03008AAD00201F13030020
:10C3C800A20F03008CAD0020E30F0300200F030031
:10C3D800501303007C13030030B40020CD0E03007B
:10C3E800509F0020F49E0020088A0020AC13030010
:10C3F800D081002010B5094C0A44914200D110BDEB
:10C4080011F8013B58400309E35C0001C0B2434006
:10C418001809205C1B01DBB25840EEE71714030033
:10C428002DE9F04F91B0009302F004030293C2F398
:10C43800C2030133840705460E46DDF8689003926F
:10C44800059340F0BB81041D30B1072909D86FF06E
:10C458001B0011B0BDE8F08F01F00706341DC6F1CE
:10C468000806009B4FF000084FF0040A591E4FF0D1
:10C47800FF3347460193C3465346CDF810800DB1AC
:10C48800009820600598002800F3E8809848009AF2
:10C49800824203D397488242C0F0E080039AA4EB1B
:10C4A800050E92074FEA9E0000F103810F2F00F25C
:10C4B800B180002D00F0058107F140020DEB020C60
:10C4C800019A0CF8200C0CF8102C049801300490F8
:10C4D800E7E07A285DD84B280ED8472859D829286C
:10C4E8002DD8252852D054D820287AD02338D0F1F6
:10C4F800000B4BEB000B74E04C382E2849D8DFE8D2
:10C5080000F07048484848484848484848484B4818
:10C518004848484848484859484B4B595959704B1E
:10C528006D487048184B184848827F4B48484B481C
:10C538007F0000204FF0000B4FF0040A38E0012282
:10C548002A38C0B202FA00F010EA0E0F49D110F0F2
:10C55800625C2FD110EA020B43D06046013C544480
:10C56800B4FBFAF40AFB04F4002D61D0A3EB050C2C
:10C57800A444B4453FF66BAF002868D1042B47D1DB
:10C5880059F8043B2360042304342AE0019A013A51
:10C5980001924FF0000B24E011F8010C6C2834D103
:10C5A800002011F8023C83466C2BC5D14FF0080AD5
:10C5B8005346D3E709F1070929F00709073424F09E
:10C5C8000704F9E802AB35B106982044B0423FF6BB
:10C5D8003EAFC4E900AB4FF0000B08344FF0080A37
:10C5E800534611F8010F002878D0BBF1000F7FF4F3
:10C5F80070AF2528F5D14FF0010B019B0133019352
:10C608004FF0040AECE7584694E700208346A5E774
:10C61800082B02D06FF015001BE709F1070929F074
:10C628000709B9EC027B84ED007B08230834D8E7BE
:10C6380068B9042B02D109F10409A4E7082BE9D150
:10C6480009F1070929F0070909F10809EDE7059833
:10C658000138059059F8040B009010E7039A9007E9
:10C6680020D54FF0010CA4EB050E4FEA9E00BEF555
:10C67800007FCFD20F2FCDD8F5B107F140020DEBD7
:10C68800020E019AC0B20EF8200C0EF8102CBCF164
:10C69800000F3FF41AAF60F07F000EF8200C08F18D
:10C6A80001080137C5F108024FF6DA7E0434069214
:10C6B80097E74FF0000CDAE7BCF1000F01D0013624
:10C6C800EFE7029A0236002AEBD10098CDE906314D
:10C6D800FCF726FBDDE906310644E2E7631BB3F508
:10C6E800806F97D245B9A6F10804E018B1E600BFFB
:10C6F80020E00200A45B0300029A9B0828602B70CC
:10C708009DF81030C2B1EB7085F80280B8F1000FC7
:10C7180005D0002208A8C5F1010C97420ED14FF0B0
:10C72800000AC5F101030DF1200901930DF1300B49
:10C73800574512D1601B8CE66B70E5E710F8013B9A
:10C74800190608D504EB0C0EB64503F07F033FF637
:10C758007EAE04F8013B0132DFE7B8F1000F03D0E9
:10C7680099F90020002A17DB029BD3B11AF80B2095
:10C7780004F8012B0022019B98182044B0423FF690
:10C7880066AE99F80000009904F8010B2046039260
:10C7980021F0FDFA039A14440AF1010A09F101098A
:10C7A800C6E799F8002055F822300093029B0098BC
:10C7B80045F82230FCF7B4FA421CDCE76FF00D00B4
:10C7C80047E600BF014B1860704700BF0882002091
:10C7D80080B505460E461746984616F04DFD0346A9
:10C7E80021F010FC0446DFF81890424649F8003062
:10C7F80039463046A84754F8090004F013FE00BF34
:10C80800080000002DE9F047058B044628079046EC
:10C8180011D4022905F0070540F0CC80204619F014
:10C8280049FA78B10138218B042811D8DFE800F0E3
:10C83800C2106D85950001290CBF45F0100545F023
:10C848002005258388F31188BFF36F8FBDE8F08733
:10C8580001F0070AAA4500F0A5800027B9463E4620
:10C86800A368002B00F0BC8041F00801218388F305
:10C878001188BFF36F8FA168002900F0BA800D6896
:10C88800002900F0B680334652462046D1F804808D
:10C89800C047002D76D02B6829461D46F0E701F0E9
:10C8A80007035A1F012A1BD8002221F00701062B73
:10C8B800276889B2C4E9002209D13B4603E0628BAC
:10C8C800013262831B68002BF9D141F00201204636
:10C8D800218319F0EFF900287AD041F0200176E0A1
:10C8E800042B0AD121F0070189B22046218319F0CF
:10C8F800E1F910B141F020012183218B01F0070AF1
:10C90800AA454FD00027B946AAE7236921F00701B5
:10C9180041F00601062DD3F8009021832DD1B9F1FD
:10C92800000F3FD041F00801218388F31188BFF33D
:10C938006F8F20463949C84729E021F0070123694C
:10C9480041F0040189B2042DD3F804902183E6D084
:10C9580000274FF0040A3E4682E721F007012369C9
:10C9680041F0050189B2052DD3F808902183D6D06E
:10C9780000274FF0050A3E4672E700274FF0060AE7
:10C988003E466DE72B4687E7B9F1000FD1D1EFF3AB
:10C998001188202383F31288BFF36F8F238B23F032
:10C9A80008032383258BEA062ED525F0100323835D
:10C9B80005F007056669218B002EBFF670AF0023CE
:10C9C8002768C4E9003321F0070141F00101218300
:10C9D800218B4FF0000901F0070AAA457FF440AF08
:10C9E800002F9CD041F00801218388F31188BFF300
:10C9F8006F8F002FC8D03D683946334652462046CF
:10CA080019F084F92F46F4E7AB067FF51BAF25F044
:10CA18002003238305F0070500E700BF415D0200FE
:10CA28002DE9F7430F4606460821C06A19F067FB4F
:10CA380080463C68DFF84890241A3C6004EA0905FF
:10CA4800AC4203D8002003B0BDE8F08308236A464F
:10CA58002146304619F0DCFA0028F4D16946304600
:10CA680019F057FB40B1BDF80230BDF8042005EAC3
:10CA7800090513441D443C60A4EB0804E0E700BF2B
:10CA88000000FFFF73B504464FF6FF72C06A082125
:10CA980019F035FB002563680F4EADF800208DF8BE
:10CAA8000620A289191833401344181A6060684692
:10CAB800ADF80210ADF8045019F009FB694620469C
:10CAC80019F0E7FB2046211D19F0DBFA28466368B8
:10CAD8003340A36002B070BD0000FFFF2DE9F047AE
:10CAE80004468EB000F11407384620F06CF9A06AAD
:10CAF8008368DB6898470346E06248B99A490A6840
:10CB080055071AD0994A0090CDE90102012212E096
:10CB1800A06A8368DB6898470368013B1F2B0FD91D
:10CB280091490B685C0708D0914B029300230122BE
:10CB38001846CDE9003319F0D3FA6FF0150544E033
:10CB4800A06A21680BAA1EF0A5FE28B186490B68C9
:10CB58005807F2D0874BE8E7A5892DB10C9BB5FBA8
:10CB6800F3F203FB12552DB17F490B685A07E4D045
:10CB7800814BDAE7E389012B09D87B490B685B070E
:10CB8800DBD07E4B0095CDE901532B46BEE7E36A27
:10CB9800069593F805904FF0FF334FF0FF32384673
:10CBA80015F03EFC0821E06A19F0A9FAA8460646E5
:10CBB800E3891FFA85FA53450BD8E389434526D103
:10CBC800384615F0A5FC6FF02C0528460EB0BDE8D8
:10CBD800F087A1892B04891B13FA81F14A4608239F
:10CBE8002046069119F022FA78B1204606A919F0D4
:10CBF80048FA08F1010808234A46204606991FFA10
:10CC080088F819F013FA0028D7D00135D0E7534532
:10CC18000BD1069908234A462046891B19F006FAC3
:10CC280018B9204606A919F02CFA204606A9FFF7DC
:10CC3800F7FE054618B1384615F06AFCC5E7069BAD
:10CC48004FEA13484FEA08486360C4F80880D4E9FB
:10CC5800011399420FD30823204607AA19F0D8F9DF
:10CC680005460028E7D107AB13F8012B914544D1BD
:10CC78000135082DF8D1636820461B0C1B0406A952
:10CC8800069319F0FEF94A462046A389069919F039
:10CC9800CDF9051ECFDB636800F0A2804FF6FF795F
:10CCA80003EB0608A3891FFA88F29B1B9A42CDF86A
:10CCB80018803ED300232C490A6802F00702002B93
:10CCC80060D0022A08D92E4B03220293002318466B
:10CCD800CDE9003319F004FA636820461B0C1B04E5
:10CCE80006A9069319F0CDF92046069919F0D6F948
:10CCF8000546002D00F092809DE7204607A919F00F
:10CD080008FA626810B9921B6260A0E7BDF820506B
:10CD1800BDF81E10E06AC4F80880294419F0EFF93C
:10CD280040449042A060EED1002DECD06FF01C057D
:10CD3800C2E008234146204609AA19F069F90546C8
:10CD480000287FF478AF204609A919F0E2F930B13C
:10CD5800BDF824304B4502D1BDF828300BB1B044A2
:10CD6800A0E70123A7E700BF788600204C14030042
:10CD78006E1403008B140300A3140300B7140300FC
:10CD8800DA140300022A07D94E4A1846CDE90132BF
:10CD98000093032219F0A4F92046616819F07EF97E
:10CDA800054600287FF447AF6368474AA1891340C6
:10CDB8000B44A3EB4603636013402046A36019F0BD
:10CDC80090FA95E74A4620465B1A19F02FF9051E96
:10CDD800FFF631AF08D0E26AA36812681344A36073
:10CDE800D4E901318B42EDD86168A38901EB460291
:10CDF8009A427FF47EAFDFF8D080A26801EA080388
:10CE08009A423FF476AF204619F048F905460028C3
:10CE18007FF411AF636803EA0803A360A389A288BB
:10CE2800A3EB46039A4243D0384615F071FB012321
:10CE3800264E2374336803F00703022B36D90025E6
:10CE4800A38903220493E38931460393204B2846A0
:10CE58000293CDE900552B4619F042F9336803F0E7
:10CE68000703022B22D96268314693B20493194B07
:10CE7800120CCDE9015303922B4603222846009554
:10CE880019F02EF9336803F00703022B0ED9A268B4
:10CE9800314693B20493104B120CCDE9015303921F
:10CEA8002B4603222846009519F01AF900258CE62E
:10CEB800204619F0FFF90546384615F029FB002DE4
:10CEC800B5D082E6EF1403000000FFFF788600204B
:10CED800161503002D1503003F1503002DE9F04F2B
:10CEE8001D46037C95B00446069104928BB96749A8
:10CEF8000A68520707D0664A1846CDE901320093FE
:10CF0800012219F0EDF86FF00C06304615B0BDE8B7
:10CF1800F08FC26A0821104619F0F1F829460590E9
:10CF2800104619F0ECF8A389059A0746A3EB82038B
:10CF3800AB42C0F0A8801DB1049B002B00F0A38079
:10CF48006368099320460AAA09A9DDF824A019F004
:10CF58001DF906460028D8D1BDF82830069A934214
:10CF680006D06268099B9A42ECD1002D35D1CCE7F6
:10CF780020460AA919F0CDF80028F2D0BDF82A9069
:10CF8800BDF82C303DB39D4227D14FEA1A4A4FEAEB
:10CF98000A4AD144AA46E36ADDF810B01B685B422E
:10CFA80003F020030793079B4946534528BF534680
:10CFB80020460CAA984619F02BF800284AD1424678
:10CFC80058460CA920F02AFC38B9BAEB080AC14423
:10CFD800C344E8D199E7002B97D0002F3DD1B9463B
:10CFE80004F1140A4FF0FF324FF0FF33504615F0AA
:10CFF80017FAE3899E4243D0A168626809EB0103EE
:10D008009A422FD3069B2046ADF83030FF23049A6E
:10D018008DF836302B46ADF83210ADF8345019F093
:10D02800FFF829460746E06A19F069F8A36803443F
:10D03800A36057B90CA819F04AF820460CA919F0B2
:10D0480028F9002814BF07462F46504615F060FA05
:10D058003E465AE7C1DC064657E7059B1F441FFAC0
:10D0680087F9BDE72046FFF70DFD07460028ECD1FC
:10D07800204619F036F907460028E6D10136B8E708
:10D088006FF01B07E1E76FF015063EE77886002092
:10D09800381403002DE9F0471E46037C88B0044687
:10D0A8000F469046BDF8409083B930490A68520748
:10D0B80007D02F4A1846CDE901320093012219F012
:10D0C8000FF86FF00C0008B0BDE8F0870821C06ABF
:10D0D80019F015F8A389A3EB4003B34243D3002505
:10D0E800D4F804A0CDF814A04D455146DDF814A09D
:10D0F80009D9636853451ED1BDF81830BB421AD010
:10D108006FF00100DFE7204606AA05A919F03EF8EE
:10D118000028D8D1BDF81830BB4206D1204606A950
:10D1280018F0F7FF08B10135ADB26268059B9A4265
:10D13800DAD15146E0E7BDF81C30002BE0D0A94514
:10D14800DED8BDF81A00090CB3424FEA014128BFE6
:10D15800334601444246204618F05AFF0028B2D10F
:10D16800BDF81C00AFE76FF01500ACE7788600202B
:10D17800381403001FB5034678B914490A685207E2
:10D1880006D0134A0090CDE90102012219F081F975
:10D198006FF0150005B05DF804FB836873B90B499F
:10D1A8000A68520707D00B4A1846CDE901320093A6
:10D1B800012219F06EF96FF00400EBE71B681BB150
:10D1C80005B05DF804EB18471846E3E780860020B1
:10D1D80057150300681503001FB5034678B91449AD
:10D1E8000A68520706D0134A0090CDE901020122CD
:10D1F80019F04FF96FF0150005B05DF804FB83686E
:10D2080073B90B490A68520707D00B4A1846CDE98B
:10D2180001320093012219F03CF96FF00400EBE7AA
:10D228005B681BB105B05DF804EB18471846E3E7E7
:10D2380080860020571503006815030030B585B0B7
:10D2480008B101B182B916490B685A0708D0154BC5
:10D258000122029300231846CDE9003319F019F989
:10D268006FF0150005B030BD84680CB1E5687DB974
:10D278000B490B685B0708D00B4B01220293002374
:10D288001846CDE9003319F004F96FF00400E9E716
:10D2980041F8040BE36805B0BDE83040184700BF0B
:10D2A8008086002086150300681503001FB5044614
:10D2B80078B91E490B685B0707D01D4B0122CDE9E1
:10D2C80001030090034619F0E4F86FF0150004B06C
:10D2D80010BD036873B915490A68520707D0154A83
:10D2E8001846CDE901320093012219F0D2F86FF007
:10D2F8000100ECE79A680AB112697AB90B490B6820
:10D308005B0708D00C4B0122029300231846CDE995
:10D31800003319F0BEF86FF00400D8E741681846EA
:10D3280090470028D3D12060D1E700BF8086002035
:10D33800B2150300C31503006815030030B5134682
:10D34800044685B078B91E490B685D0707D01D4BA8
:10D358000122CDE901030090034619F09AF86FF015
:10D36800150005B030BD006870B915490B685A073B
:10D3780007D0154B0122CDE901030090034619F0AF
:10D3880088F86FF00100ECE782680AB195687DB90A
:10D398000B490B685B0708D00C4B01220293002352
:10D3A8001846CDE9003319F074F86FF00400D8E797
:10D3B8000A46AC46616805B0BDE83040604700BF2A
:10D3C80080860020B2150300C3150300681503000A
:10D3D800034A13680BB9526813600020704700BFF6
:10D3E8000C82002030B50C460E4985B00291D0F869
:10D3F800D4110546CDE9003100F1F0014FF0FF33BB
:10D40800204614F06BFB50B9012384F86C30D5F832
:10D41800D03123B1204605B0BDE83040184705B0EB
:10D4280030BD00BFAB65020038B50C461146054655
:10D4380019F0B9F8034638B92846044919F0B3F881
:10D4480003460020236038BD0120FBE7AE19030026
:10D458002DE9F04F01238146056946688FB005F232
:10D468000447D7E8EF2F002A03D1C7E8E13F002996
:10D47800F7D10CBF1A46002240F0BF80B368B16AEA
:10D4880005F5F8781C1F104619F011F984427DD86B
:10D49800013A00F0AC80B2FA82F24FF00044D44076
:10D4A80072682046073222F00302C5F88822B16A62
:10D4B80019F0FDF8C5F88C02B36A4046634303339C
:10D4C80023F0030302EB4302230103EB4403093374
:10D4D80023F0030303EBC403C5F880221A4408327F
:10D4E800C5F87C227368C5F88442C5F87832444B85
:10D4F800C5E9B363D9F80030C5F82432316800F0C3
:10D50800EBF9044600283FD1D9F810B0D9F804A0A7
:10D51800D9F800300BF53A79059004934846DAE9D2
:10D528000734012B08BF103C1FF0C5FDDAF82400B2
:10D53800344904AB009301EB0031234648464FF4CD
:10D54800805215F019FA2021DAF824302E4A06A85C
:10D5580016F08CF906A9484615F0ECFA2B490BF59C
:10D5680036701FF052FDDAE9050183685C684CB13A
:10D578005B46274AA047044630B9DAE905018368C3
:10D588001B692BB96FF05704002129E001327AE7B3
:10D598000122984704460028F6D11E4B2846C5F8B4
:10D5A800D0311D4BC5F8D4311C4B0393D5F8383214
:10D5B8000293D5F83032CDE90083D5F89032B26ABB
:10D5C800D5F8001400F050F904460028DCD105F124
:10D5D800F00014F029FB0028C5F808040ADB022132
:10D5E800384619F014F820460FB0BDE8F08F6FF0F8
:10D5F8000B04C9E76FF01504C6E76FF07704F2E78C
:10D608000166020088B50020E8150300E7650200FE
:10D61800DB65020029D600008D670200476602001C
:10D6280013B5044640B100230122CDE90032074B6F
:10D63800D0E9091214F002FA236F1B6823B1606F56
:10D6480002B0BDE81040184702B010BDAE19030083
:10D6580013B504460846216901F20441D1E8AF1F19
:10D66800022910D193B1A0B10121CDE900311346AF
:10D67800D0E9091214F0E2F9074B984208BF6FF09D
:10D688000B0002B010BD6FF00F00FAE76FF04C000E
:10D69800F7E76FF00100F4E72EF8FFFF2DE9F743F5
:10D6A80088461546066906F20443D3E8AF3F022BC5
:10D6B8005FD1136823B96FF0150003B0BDE8F0839C
:10D6C8001B78002BF7D0D6F80094B9F1000F33D1AE
:10D6D80006F5EC774FF0FF324FF0FF33384614F081
:10D6E8009FFE30462A6801A9FFF79EFE019C1CB9DF
:10D6F800384618F08AFFDEE705F1080323676B69EF
:10D7080084F86C906367646460B1384618F07DFFF4
:10D7180021463046A36E2A68FFF764FE0020C8F849
:10D728000040CAE72022296804F1480020F0A5F843
:10D73800384618F06AFFF1E730460F4918F033FF12
:10D7480004460028B7D005F1080303676B694064F5
:10D758004367002380F86C3020222968483020F085
:10D768008CF822460121304600F060F80028D5D018
:10D77800A1E76FF00F00A0E7AE19030010B50C4643
:10D78800006900F20443D3E8AF3F022B0FD189B1FF
:10D798000A4900F536701FF073FC20461EF052FF50
:10D7A80078220021204620F019FB002010BD6FF0E0
:10D7B8000F00FBE76FF00100F8E700BF549F00205F
:10D7C8002DE9F04F05460E4690460027D0F8C4A034
:10D7D80085B0AAF5BE7421463046FBF78FFAE0B94A
:10D7E800114BA4F1480B0293DAF810303246CDE918
:10D7F800008329464FF0FF335846AAF5E27914F022
:10D808006DF960B97823012203FB079383F86C2034
:10D81800DAF80C300BB158469847783417B105B090
:10D82800BDE8F08F0127D6E7BB6702001FB5144695
:10D8380090B18AB1012912D10A4B00F1F00102938B
:10D84800D0F8D431483201934FF0FF33204600938B
:10D8580014F044F904B010BD6FF01500FAE7002089
:10D86800F8E700BFBB6702002DE9F04387B00E461A
:10D87800DDE90E811446DDE910251F4630B329B3D2
:10D88800DFF850C000F1F009002D08BF65469EB9C9
:10D89800CDE9034400F5E274204605961FF06CF9C3
:10D8A80003ABCDE900432A463B464146484614F0BF
:10D8B80033FA07B0BDE8F083002241460E9248468D
:10D8C8002A4607B0BDE8F04314F07CBB6FF01500A2
:10D8D800EFE700BFC9D70000F0B50E46044689B08F
:10D8E800002872D0436B0BB9394B4363012322469E
:10D8F800E3630023D4F8981004F1400042F8301F85
:10D90800CDE901334FF0FF330093D4F89C301EF07B
:10D918006BFB304A06AB92E8030083E80300184625
:10D9280013F092FF0546D8B904F1340013F06EFFE6
:10D938000546A8B9616B284805AA1EF031FB0546C3
:10D9480070B9059B9A6872B10C33D4F89400C4F886
:10D95800A03018F05FFFC4F8D40030B96FF00B05A1
:10D96800284609B0F0BD0346EFE7D4F8940018F054
:10D9780051FFC4F8D8000028F0D0D4F88C30D4F87F
:10D98800A010C4F8A8300423C4F8AC30C4F8C430DC
:10D998000223A362114BB4F89420D4F8D470C4F8CD
:10D9A800B810C4F8D010D4F89010236204F1A4037E
:10D9B800A4F8B020C4F8A470C4F8C010A4F8C82013
:10D9C800C4F8BC00A661E362CAE76FF01505C7E7B3
:10D9D800F415030094E70200FE150300E8EC0200CA
:10D9E8002DE9F84F81462F480F4618F055FF064697
:10D9F80070B92D4C0546A0464FF0010BDFF8ACA0DE
:10DA0800544507D3B9F1000F02D04FF0010AE5B928
:10DA1800BDE8F88F237B6BB12368DB680BB1204628
:10DA2800984723681B6943B963680422204619682C
:10DA380000F08EF901361034E2E7204698470028B6
:10DA4800F2D00BFA06F31D43F4E7A94695FAA5F4BC
:10DA5800B4FA84F40AFA04F3260108EB04146FEA12
:10DA6800030B25EA0305237B63B158F806301B69CD
:10DA780093B94644736804222046196809EA0B09D9
:10DA880000F066F9002DE1D127B14FF4A470002110
:10DA980015F0D4FB4D46BAE7204698470028F1D147
:10DAA800E7E700BF849F002078E5020088E50200D0
:10DAB80008B5034608462BB1044A136000F07EFB04
:10DAC800002008BD6FF01500FBE700BF388200207A
