:020000040100F9
:10000000E859002109CB010171580201F5CA01012B
:10001000F5CA0101F5CA0101F5CA0101000000009D
:10002000000000000000000000000000B5CC01014D
:10003000F5CA01010000000075CC0101F5CA0101FB
:1000400071CE010171CE010171CE010171CE0101AC
:1000500071CE010171CE010171CE010171CE01019C
:100060003F5D020171CE010171CE010171CE01012E
:100070000B5D020171CE010171CE010171CE010152
:1000800071CE0101255D020171CE010171CE010128
:1000900071CE010171CE010171CE010171CE01015C
:1000A00071CE010171CE010171CE010171CE01014C
:0800B00071CE010171CE0101C6
:1000B8002DE9F00791E8F807B2E802105B1854EB55
:1000C8000C04B2E802104D4156EB0C06B2E80210DF
:1000D8004F4158EB0C08B2E8021059EB01095AEBF2
:1000E8000C0A80E8F80780410130BDE8F007704746
:1000F8002DE9F00791E8F807B2E802105B1A74EBF3
:100108000C04B2E802108D4176EB0C06B2E802103E
:100118008F4178EB0C08B2E8021079EB01097AEB11
:100128000C0A80E8F80780414042BDE8F0077047B4
:100138002DE9F007524290E87800B1E880071740AF
:10014800DB1918EA020854EB080419EA020955EB0E
:1001580009051AEA020A56EB0A0678C090E8780000
:10016800B1E8800717407B4118EA020854EB0804FD
:1001780019EA020955EB09051AEA020A56EB0A06BA
:1001880078C080410130BDE8F00770472DE9F007DD
:10019800524290E87800B1E880071740DB1B18EA64
:1001A800020874EB080419EA020975EB09051AEA52
:1001B800020A76EB0A0678C090E87800B1E8800772
:1001C8001740BB4118EA020874EB080419EA02094F
:1001D80075EB09051AEA020A76EB0A0678C080412F
:1001E8004042BDE8F00770472DE9F00152424FF058
:1001F800040890E8300091E8C000A31B1340E41AFB
:10020800F618EB1B1340ED1AFF1830C0C0C1B8F147
:100218000108EED1BDE8F001704700BF00B592E8D3
:10022800DC072DE9DC07B1E8805702B4A7FB0251CF
:100238000A95A8FB020B09180020E7FB03105BEBEB
:10024800000B00204041E9FB02B00B91A8FB0351D1
:10025800401800214941EAFB02011BEB050B002570
:10026800E7FB04B568410025E7FB06056941002561
:100278006D41E8FB0615CDF830B0A9FB03B6891926
:100288000026EAFB0316754100267641ECFB03566F
:1002980010EB0B005FF0000BE8FB040B51EB0B01BC
:1002A8005FF0000BE9FB041B55EB0B055FF0000B3F
:1002B800EAFB045B56EB0B065FF0000B5BEB0B0BEA
:1002C800ECFB046B0D90ACFB0230059C2D18002054
:1002D800EEFB025046410020E9FB04605BEB000B9B
:1002E80000204041EAFB04B05B180021E7FB043121
:1002F8004D410021E8FB0451069C4E410021E8FBDA
:1003080004615BEB010B0021E9FB04B148410021CA
:100318004941EAFB04010E93A7FB0432079CB61877
:100328000022E7FB04625BEB020B0022E8FB04B24D
:1003380050410022E9FB0402514100225241EAFBEC
:100348000412049CED180023E9FB04535E410023CA
:10035800EAFB0463089C5BEB030B0023E7FB04B395
:1003680058410023E8FB040359410023E9FB041327
:100378005A4100235B41EAFB04230F955DF8049B77
:1003880099E80006DDF80080A9FB08541BEB040B74
:100398000024EAFB08B4DDF8108060410024ECFB7F
:1003A800080461410024EEFB081462410024E9FBC3
:1003B8000824634100246441EAFB0834DDF8048022
:1003C80076190025EEFB08655BEB050B0025E9FBBC
:1003D80008B568410025EAFB0805DDF81480694185
:1003E8000025ECFB08156A410025EEFB08256B414A
:1003F8000025E9FB08356C4100256D41EAFB0845FD
:100408000F96DDF80880AEFB087680190026E9FB18
:10041800080671410026EAFB0816DDF818807241CB
:100428000026ECFB082673410026EEFB08367441D3
:100438000026E9FB0846754100267641EAFB085686
:10044800DDF80C801BEB070B0027ECFB08B77841A5
:100458000027EEFB080779410027E9FB08177A41D6
:100468000027EAFB0827DDF81C807B410027ECFB0E
:1004780008377C410027EEFB08477D410027E9FB50
:1004880008577E4100277F41EAFB086708B000BD96
:100498002DE9F14F87B0FFF7C1FEDDF81C8008F1A8
:1004A800200888E8FF00FFBC87E87F08BDE8F08FD8
:1004B80000B591E84C57A2FB02410194A2FB034509
:1004C80024190020E2FB06506D417F416418029414
:1004D8000021E2FB0801A3FB034B654103950024BF
:1004E800E3FB060440417F41091900246441E2FB13
:1004F8000914FF0750EB0B0004900025E2FB0A45A6
:100508005FF0000BE3FB081B49415FEA370714EB78
:100518000B045FF0000BE3FB094B55EB0B055FF099
:10052800000B5BEB0B0BE2FB0C5BFF0F0020E2FB0D
:100538000EB000225141E6FB061205910021E6FBB0
:10054800084164417F416D180021E3FB0A515BEBD0
:10055800010B0021E3FB0CB1484100214941E3FBB9
:100568000E010023E6FB09531BEB030B0023E6FBFC
:100578000AB358410023E6FB0C03594100235B41B1
:10058800E6FB0E13FF07544106946D417F41A8FB1B
:100598000826554107950022E8FB09B25BEB0B0BD7
:1005A8007F4180180022E8FB0A0251410022E8FB43
:1005B8000C125A4100235B41E8FB0E230024E9FB9F
:1005C8000E340025E9FB0A1552190025E9FB0C2514
:1005D8006B410025EAFB0C356C4100256D41EAFBB7
:1005E8000E45FF075BEB060B0026ECFB0E56404161
:1005F800494152415B4164416D417641AEFB0EE891
:1006080048F100087F00A9FB0979784151EB0901FD
:10061800AAFB0A7A7A4153EB0A03ACFB0C7C7C41B7
:1006280055EB0C0556EB0E0648F1000700BD00BF60
:100638002DE9F14F87B0FFF73BFFDDF81C8008F18B
:10064800200888E8FF00FFBC87E87F08BDE8F08F36
:1006580030B44FF0000310F8014B11F8015B013A78
:1006680084EA050443EA0403F5D1A3F101034FEA40
:10067800D37030BC704700BF4FF0000310F8012B57
:10068800013943EA0203F9D1A3F101034FEAD37018
:10069800704700BF30B411F8014B12F8015B6C4091
:1006A80000F8014B013BF6D130BC70472DE9F0074B
:1006B80091E8F807B2E802105B1854EB0C04B2E8B2
:1006C80002104D4156EB0C06B2E802104F4158EBB0
:1006D8000C08B2E8021059EB01095AEB0C0A8941DF
:1006E800B3F1FF3374F1FF3475F1FF3576F100068D
:1006F80077F1000778F1000879F101097AF1FF3AFA
:1007080051F100015B184C414D4156F1000657F17B
:10071800000758F1000859EBD1795AEB010A80E833
:10072800F807BDE8F00770472DE9F00791E8F807EA
:10073800B2E802105B1A74EB0C04B2E802108D41A7
:1007480076EB0C06B2E802108F4178EB0C08B2E8A1
:10075800021079EB01097AEB0C0A89415B184C41CC
:100768004D4156F1000657F1000758F1000859EBC2
:10077800D1795AEB010A80E8F807BDE8F00770471D
:1007880018EB040859EB05095AEB060A5BEB070B53
:100798005FF0000C4CF1000C18EB050859EB06094A
:1007A8005AEB070A5BEB070B50EB0C005FF0000CF1
:1007B80051EB0C0152EB0C0263414CF1000CB8EB0D
:1007C800070879F100097AF1000A7BEB040BA841CC
:1007D800B141A241B3416CF1000CBBEB050BB04138
:1007E800B941AA41BB416CF1000C4CF001068CF0F8
:1007F800020718EB060859EB6C095AEB6C0A7BEBFD
:100808006C0B70EB6C0471EB6C0572EB670653EBC9
:100818006C076CEB6C0C18EB0C0059EB0C015AEBE9
:100828000C025BF1000354F1000455F1000556EB8E
:10083800DC7657EB0C0770472DE9F14F87B0FFF7CF
:10084800EDFCDDF81080DDF81490DDF818A0FFF756
:1008580097FFBDE8000FFFF793FF03B05DF8048B27
:1008680088E8FF00BDE8F08F2DE9F14F87B0FFF76A
:100878001FFEDDF81080DDF81490DDF818A0FFF7F2
:100888007FFFBDE8000FFFF77BFF03B05DF8048B27
:1008980088E8FF00BDE8F08F1FB50B4B01A9019355
:1008A8004FF4B873ADF8083008238DF80A30837810
:1008B80003208DF80B30FF238DF80C3000F0C4FEB8
:1008C80005B05DF804FB00BF77AE01011FB50B4B07
:1008D80001A901934FF44273ADF8083008238DF84D
:1008E8000A30437802208DF80B3000238DF80C3045
:1008F80000F0AAFE05B05DF804FB00BFADB201012F
:100908001FB5002301A9012003930193084B02930B
:10091800084B1B78002B14BF022301238DF80B30E2
:10092800FF238DF80C3000F08FFE05B05DF804FB56
:1009380040010800300900211FB50A4B01A90193A5
:100948004FF42673ADF8083008238DF80A30037881
:1009580000208DF80B308DF80C0000F075FE05B006
:100968005DF804FB47B401011FB572B6194B5D6809
:10097800E5B9BFF34F8F1849184BCA6802F4E06213
:100988001343CB60BFF34F8F00BFFDE7B4FBF6F412
:10099800D3B20132002CF9D103F110026A4402F8F3
:1009A8000C4C0A2233B901A8A847E2E70446002202
:1009B8000A26EDE7013BDBB203F110040DEB040658
:1009C800B0FBF2F402FB1400303006F80C0C2046A1
:1009D800E8E700BF3009002100ED00E00400FA0557
:1009E80013B5114C6846237C8DF80130E37B8DF8F4
:1009F8000030A37BADF80430637BADF802300AF019
:100A08004BFE18B1DE210320FFF7AEFFA07E0AF0EF
:100A1800A7FE08B1E121F6E7607E0AF09BFE08B167
:100A2800E221F0E702B010BD300900212DE9F341C1
:100A380004460D4671B91C4B93F82E3053B9012169
:100A480001A80193FFF7F2FF20B94FF403710320C7
:100A5800FFF78AFF2368002D144F4FF0000603F1BB
:100A68000703DFF84C800CBF2046002023F0070363
:100A7800236000F0C1FD57F8043B0BB1404698478E
:100A88000136102EF7D100F02FFE031E09DB206877
:100A980018440DB1002804DB2060012002B0BDE835
:100AA800F0810020FAE700BF30090021580000213A
:100AB800380900212DE9FF41B0FA80F60546039078
:100AC80003A876093146FFF7B1FF20B96FF00B0094
:100AD80004B0BDE8F0818F4CA17B607B0331237C9F
:100AE800E27B033016F012FC011EEFDB0398002DA9
:100AF800237A627A00F10300134420F0030003FB19
:100B080001F1039008BF002000F030FF039B0DB9EE
:100B1800C342DBD41844A37A0390C3B1E17D1944DE
:100B2800E37A1944FF29D1DC0330002D628AC9B267
:100B380020F00300039008BF002000F087FF031E89
:100B4800C4DB039818440DB90028BFDB0390724F2B
:100B58007B68F3B1617CE1B194F82F300398002BE6
:100B680000F1070014BF4023252320F0070014BF1D
:100B78004FF481722822002D039008BF002006F050
:100B880023FC031EA2DB039818440DB900289DDB43
:100B98000390217DC1B1A37A1BB97B68A3B1637CA3
:100BA80093B10398002D00F1070020F0070003908F
:100BB80008BF00200CF0A6FE031E87DB039818442C
:100BC8000DB9002882DB0390544B1B68B3B1217B1D
:100BD800A1B10398002D627D00F1030020F003000D
:100BE800039008BF00209847031EFFF66FAF0398D5
:100BF800184415B90028FFF669AF0390484B1B68E5
:100C0800ABB1A17D99B10398002D00F1030020F04C
:100C18000300039008BF00209847031EFFF656AF55
:100C28000398184415B90028FFF650AF03903D4BC0
:100C3800D3F80080B8F1000F19D0E17DB9B103985D
:100C4800002DA37E00F10300227E009320F0030014
:100C5800637E039008BF0020C047031EFFF636AF2F
:100C68000398184415B90028FFF630AF0390FB69C4
:100C7800BBB1217BA9B10398002D227F00F10300AD
:100C880020F00300039008BF002000F0CDFF031EF2
:100C9800FFF61CAF0398184415B90028FFF616AFE5
:100CA800039094F82700C0B1039A94F821300332D6
:100CB800A17F22F007021944334642F00402C9B268
:100CC800039200F0F3FF031EFFF600AF03981844E9
:100CD80015B90028FFF6FAAE039094F828100029F9
:100CE80075D0039F002D628D07F1070708BF00200C
:100CF80027F0070718BF3846039716F01CFB031E9A
:100D0800FFF6E4AE0398184475B90028FFF6DEAE86
:100D18000AE000BF30090021580000219800002196
:100D2800A00000219C00002103901DB1618D384670
:100D380011F0AAFE94F8221000294AD094F826301F
:100D4800002B46D00398002DA28C00F1070002F179
:100D5800240220F0070092B2039008BF002016F08A
:100D6800EAFA021EFFF6B2AE039F3A4415B9002A0A
:100D7800FFF6ACAE033294F82030A17F22F00702D0
:100D880094F826001944334642F00402C9B203928B
:100D980000F07EFF031EFFF699AE0398184415B9BC
:100DA8000028FFF693AE03903DB1A28C384694F824
:100DB8002210083292B211F06DFE236BA3B1039B8F
:100DC80005B12363283303934DB1002080E60F4615
:100DD800ABE7002DF1D0002211461046EBE7002BBF
:100DE800FFF674AE039873E6002DEED1FAE700BF64
:100DF80038B50546002844D015F01EF810B94FF054
:100E0800FF3038BD1AF015FCB0F5FA7FF7D81F4C43
:100E18001F486560002500F0CFFA402229461D488A
:100E280084F82E5015F086FB2622294604F1080086
:100E3800257084F82F50256315F07CFB1B2240F2A7
:100E48000113627340F21B3223810123E28140F2D5
:100E58000232A37222821F222377F72362824FF481
:100E68000272A384FB23A28244F6011263852283C3
:100E7800EFF3108472B600F029FF2CB962B6204651
:100E8800BFE76FF01500BCE72846BAE73009002134
:100E9800E90900015800002110B5002840F0AB8096
:100EA800564C94F82E30032B00F0A280A1B1002AF2
:100EB80070D00139142900F29E80DFE801F00B1C84
:100EC8001F2F575F78356265733B414E537D808E87
:100ED80091958500137823720020FFF7EBFD002819
:100EE800B7BF012302236FF00B0084F82E30A8BF90
:100EF80084F82E3010BD13786372EDE79378002BD9
:100F080048D0D378002B45D013781A2B42D9537880
:100F18001A2B3FD91368C4F80D30DDE71378E27A4D
:100F2800934237D3A372D7E71378A27A934231D882
:100F3800E372D1E71378A27A93422BD8E375CBE713
:100F480013783BB35378013BDBB2F82B22D81388D4
:100F5800927823832A4B9A70BEE71078E07610F0D7
:100F680045F8B9E71378ABB12377B5E71378254A85
:100F780052680AB1012B0DD96374ADE713886382F7
:100F8800AAE713782373A7E71E491378C96921B91B
:100F9800012B04D86FF01500ACE7002BFAD01378BA
:100FA800637599E71378082BF4D8A37594E7138829
:100FB800FF2BEFD823758FE7137863778CE71378C7
:100FC8000E2BE7D8A37787E713680F49C4F82230B8
:100FD80053684B6013890B817EE71378E3777BE7CF
:100FE800137884F8213077E7137884F8203073E792
:100FF8004FF0FF307EE76FF02C007BE730090021CF
:10100800480900215800002152090021F8B50D4671
:10101800074660B359B311F0070428D1154E96F866
:101028002E30012B02D16FF00B00F8BD032B02D13B
:101038004FF0FF30F9E700F0F3F80028F8D0284621
:10104800FFF738FD0028EEDB384615F069F886F81A
:1010580034000FF0D1FF96F83400316B0AF058FCD9
:10106800FFF7BEFC0323204686F82E30DDE76FF03D
:101078001500DAE73009002110B5084C94F82E3035
:10108800032B05D10AF060FC94F8340015F064F8DD
:1010980016F099FA002084F82E0010BD30090021BE
:1010A80050B1074B03F1140253F8041B934240F864
:1010B800041BF9D1002070476FF01500704700BF7E
:1010C800A3920201074B10B593F82E4034B90AF0E9
:1010D800B1FB054B054A2046DA6010BD4FF0FF30E2
:1010E800FBE700BF3009002158000021A1080001DA
:1010F800074B10B593F82E4034B90AF0AFFB054BF7
:10110800054A20469A6010BD4FF0FF30FBE700BF4C
:101118003009002158000021D508000108B50B4B03
:1011280093F82E2072B993F82F3043B10AF0D4FB0C
:10113800074B0020074A5A60074A1A6008BD0AF0A0
:10114800AFFBF5E74FF0FF30F8E700BF30090021AB
:10115800580000210909000141090001054B10B59B
:1011680093F82E401CB90AF017FB204610BD4FF02B
:10117800FF30FBE730090021054B10B593F82E40EE
:101188001CB90AF0FBFA204610BD4FF0FF30FBE710
:1011980030090021054B10B593F82E401CB917F003
:1011A800BEFB204610BD4FF0FF30FBE730090021A1
:1011B800054B10B593F82E401CB917F0B3FB204629
:1011C80010BD4FF0FF30FBE730090021054B10B58B
:1011D80093F82E401CB917F0A8FB204610BD4FF01D
:1011E800FF30FBE730090021054B10B593F82E407E
:1011F8001CB917F09CFB204610BD4FF0FF30FBE7F1
:101208003009002102680020014B1A60704700BFB6
:1012180068090021014B1B68184700BF68090021B5
:10122800024B1868003818BF012070476809002170
:10123800F7B504462D4E071D2C4837600BF0F4FB1C
:101248000228054606D12949204615F04EFA2846B7
:1012580003B0F0BD042842D13378092B0AD0252BDE
:101268001ED03146204615F0BAFAB0F5817F2DD34D
:10127800722112E005213E2015F00AFA0028F0D16B
:10128800F37801A93279684643EA0223ADF80030C1
:1012980015F012FE0028CFD053210820FFF764FB79
:1012A8001A213E2015F0F4F90028DAD1736869464E
:1012B80001A8C3F30F23ADF8043011238DF80630CD
:1012C80015F01CFE0028B7D06521E6E70028B3D04A
:1012D800A178207815F0DCF90028B8D1ACE7082807
:1012E800B5D10249204615F038FAB0E76C0900215B
:1012F800074B4FF0FF3141F6FF72C3E90012054971
:101308000022C1E900221F21C3E90212704700BF71
:1013180000000021700A00213F280CD801380B4B2F
:10132800C0F3421200F01F0053F8223023FA00F0F5
:1013380000F001007047FF2806D04038044BC0F386
:10134800421200F01F00EFE7012070470000002163
:10135800700A0021074B0146006849681A4603C213
:1013680040F48C221A6041F0107242F4FF625A6015
:10137800704700BF000000210246024B0068516818
:1013880003C37047700A00210246024B0068516887
:1013980003C37047080000210138064BC0F342120E
:1013A80000F01F0003EB82039B6823FA00F000F0B3
:1013B8000100704700000021014B1860704700BF12
:1013C800780A002110B5FFF793FF16F0BDFC034B18
:1013D80004461B6803B19847204610BD780A0021CF
:1013E80038B5274B0446D3F8A022D3F8A41201310C
:1013F80006D1D3F8A8324FF6FF719BB28B423DD08D
:10140800D3073BD51E4DD5F8A422D5F8A832C4F889
:101418000120A4F80530C3F3072363F03F03A37149
:10142800D5F89032013323D0D5F8943201331FD048
:10143800D5F8983201331BD0D5F89C32013317D038
:1014480000200AF0F9FB98B9D5F89002D5F8941263
:10145800D5F89822D5F89C32C4F80700C4F80B10C8
:10146800C4F80F20C4F8133001230020237038BDBE
:1014780010220021E01D15F05DF8F5E70023F4E7E0
:101488000000FF0170B5274D102200210446D5F851
:10149800A06215F04FF810220021A01815F04AF8A4
:1014A800D5F8803201330BD1D5F88432013307D116
:1014B800D5F88832013303D1D5F88C3201330BD0FB
:1014C800D5F88002D5F88412D5F88822D5F88C3260
:1014D80020616161A261E36100200AF0ADFB08B9F7
:1014E800F3071CD40F4BD3F8902201320BD1D3F859
:1014F8009422013207D1D3F89822013203D1D3F8CC
:101508009C2201320BD0D3F89002D3F89412D3F86E
:101518009822D3F89C3220606160A260E3600020CA
:1015280070BD00BF0000FF0170B50C88C27CA6B278
:10153800C4F30E04931C058804F114021D44825A56
:10154800ADB21A4443882A44013AB2FBF5F202FBD1
:10155800054292B29342044B8BBF3340B3431343CB
:101568009BB20B8070BD00BF0080FFFF4A1E062A99
:1015780008B50346084604D84FF4D1711520FFF783
:10158800F3F9094A914202D940F2A311F6E711B9D9
:1015980003B1196008BD2BB11B680022C3E9012102
:1015A8001A1D1A600430F5E7FAFFFF7F10B5114BDA
:1015B80000EB41041A786389B3FBF2F303FB0223BF
:1015C800013A1A44B2F5706F027928BF00231A4411
:1015D8008378B2FBF3F0194403FB1020091AB1FB1E
:1015E800F3F003FB101313446FEA43436FEA5343CA
:1015F800638110BD7C0A0021124B10B5E0B15A7806
:10160800022A04D040F22B111720FFF7ADF903226C
:101618005A70026812F0070102D04FF49871F3E78C
:101628005C685A602244BDE81040026003F10C0077
:101638009A60402214F07EBF0122C3E901005A706B
:1016480010BD00BF7C0A00212DE9F041254E96F817
:1016580001E00EF0FD0CBCF1010F04D040F2451181
:101668001720FFF781F991F80680B8F1080F02D921
:1016780040F24711F4E7CF7997B345467B1D72686E
:10168800022D4FEA430402EB430338BF02256A1ECA
:101698006D421344C8F100022B408D884544013D3A
:1016A8002A40B2F5803F02D34FF4A971D8E7BEF1C2
:1016B800030F12D106EB80001C1BC56815B140F260
:1016C8005711CDE7C460A770228084F803C0087A58
:1016D80009682071080C2181E08007FB02337360E0
:1016E800BDE8F0817C0A00212DE9F047364C63788B
:1016F800012B65D0032B04D040F267111720FFF7A8
:1017080033F9D4E901329A4202D04FF4B571F5E7C2
:10171800002325460F221E46994605F80C3B55F82E
:101728002200013A58B190F804808178B8F1FF0F8F
:101738002FD180F804908E423CBFCEB20123511CB9
:10174800EDD103B126700F2640F6FF6955F82670D3
:101758009FBB013EFAD2042300206370BDE8F087E6
:1017680055F82CE0BEF1000F06D09EF804A0C24543
:1017780004BF9EF802E077440CF1FF3CBCF1000F77
:10178800EEDA3944FF2907D903B126704FF4837183
:10179800B4E794460027F1E70771CCE707EB41036C
:1017A80008F101083846A3F80A90FFF7FFFE5FFA30
:1017B80088F1BB788B42F1D8CBE74FF00008F6E709
:1017C800022360686370C9E77C0A0021F8B54FF608
:1017D800FF7305460380184B03EB8103D868B8B143
:1017E80086780379B3FBF6F206FB1233DBB21946AF
:1017F8000A1D00EB4202B2F902705488002F09DB7F
:101808000131B1FBF6F206FB1211C9B28B42EFD1DE
:101818000020F8BDFF29FBD0C4F30E03C4782B8049
:1018280024B94FF4D9711720FFF79EF85380BDE80B
:10183800F84015F04ABD00BF7C0A00211D4B03EBA0
:10184800810370B5DC68054644B3030404D54FF43E
:10185800E0711720FFF788F80146204615F018FDBB
:10186800FF28014604D02046BDE8704015F02DBD84
:10187800A078B5FBF0F300FB1353DBB219460A1D41
:1018880004EB4206B6F90260002E09DB0131B1FB18
:10189800F0F200FB1211C9B28B42F0D1002070BDEA
:1018A800FF29FBD08B4204EB42021CBF0023E370EC
:1018B8005580D8E77C0A0021094B03EB81030146D8
:1018C80010B5DC68204615F0E3FCFF28014604D07B
:1018D8002046BDE8104015F0F8BC002010BD00BF40
:1018E8007C0A0021F8B5104B074603EB810301463B
:1018F800DC68204615F0CCFCFF28054611D0E688A8
:10190800238953EA064606D00146204615F0DDFC39
:1019180001463846B04720462946FFF747FE0020D3
:10192800F8BD0520FCE700BF7C0A002138B50E4B46
:101938000446827903EB8203D86808B9052038BDCC
:101948008278E1799142F9D24B1CE37100EB4103B3
:101958005D89B3F90A30002BF3DBA58015F0B5FCDF
:1019680020600020EBE700BF7C0A002170B5044628
:1019780010F003000E4603D04F211820FEF7F4FFA5
:10198800FFF7F4FD054624B1034831460460FFF72C
:10199800EDFD284670BD00BFC80A00212DE9F14FB2
:1019A800DFF870B01E4607460D46DBF8003090465B
:1019B8009DF828A09DF82C901BB961211820FEF7EE
:1019C800D3FF52460921404615F0E9FA4A4684B247
:1019D8000921304615F0E3FA81B2DBF80000214412
:1019E80015F02BFC386018B9286001B0BDE8F08FFD
:1019F80004445346414609222C60386815F088FA99
:101A08004B4609223146286801B0BDE8F04F15F071
:101A18007FBA00BFC80A002170B50E46044615F00B
:101A2800D1FA0546304615F0CDFA044B2A1821465E
:101A38001868BDE8704015F024BC00BFC80A002132
:101A4800014B186815F0EDBBC80A00211F2AF8B52C
:101A5800044613460ED89200033222F00303B3F56E
:101A6800803F2DD2184DACB1A00710D05F210920BE
:101A7800FEF77AFFFF2B4FEA420204D9FF339A425E
:101A8800A8BF1A46E8E77C2AB8BF7C22E4E7297099
:101A98006C602B8122F0030228230127120403FB28
:101AA80001F06B680025120CEEB28E4200D3F8BD2F
:101AB80014B126181F705E60104401352833F3E70F
:101AC8004FF0FF30F3E700BFCC0A0021144A002191
:101AD80038B553681478C8B2844203D8AB210920BA
:101AE800FEF742FF1846013128330578002DF2D061
:101AF80000218170012412898161051D44709208BA
:101B0800C16100F12001446821F8022B994245F88F
:101B1800044B1444F8D100234361037038BD00BF5F
:101B2800CC0A00210A4B1B89B3F5FF7F4FEA9300CB
:101B380006D25A089B1A9BB2984238BF184670477B
:101B4800B3F5EE6F01D8FF22F4E740F27263F3E7D2
:101B5800CC0A00212DE9F8434B7880460C4602F068
:101B6800040602F0FB07D3B1DFB12E4BD4F8049082
:101B78001D89B7BB0123AD084A46211D637004F1D6
:101B8800280004F12003A761E76123F8025B98426B
:101B980041F8042B2A44F8D10023636101E0002FA7
:101BA800E3D0FF23A370002E18BF0226A3191B7DC4
:101BB800032B03D1022F1CBF0136F6B2A319012251
:101BC8001A7506F10C02002304EB860624F812307D
:101BD8007268A3704046C8F80020A8F80430BDE831
:101BE800F883002114226170A01814F0A3FCB5F545
:101BF800FF7F0FD26B08ED1AADB209EB0502C4F8EE
:101C080004902584A2606384C4F80C90A5842261A2
:101C1800E384C6E7B5F5EE6F4FF0FF03EBD940F26A
:101C28007265EAE7CC0A00212DE9F84305460C461F
:101C3800F7200521914615F0B2F9061E22DB1DB9E1
:101C480006FB04F0BDE8F88315F0030703D09821DC
:101C58001920FEF789FEDFF83480C8F81050A5B2C5
:101C6800A8F81460BBB29D42EAD9B8F814C04B4634
:101C7800D8F810000522F72107FB0C00013715F0F2
:101C880047F9EFE74FF0FF30DCE700BFE00A00213B
:101C980007B5CDE900230B4603490246081D15F098
:101CA8006CFC03B05DF804FBF80A002113B5064C80
:101CB800CDE900230B46024604F1080104F10C00AB
:101CC80015F05BFC02B010BDF80A0021144B01228C
:101CD80000214FF0FF309A60C3F80012C3F80803E0
:101CE800C3F80015C3F804259A60C3F808034FF435
:101CF8008040C3F80015C3F8042503F5805341F666
:101D0800F8720849C3F80825C1F88000BFF34F8F5F
:101D1800BFF36F8FC1F88001C3F80825704700BF73
:101D280000E0004100E100E08C463022064B00B59F
:101D38000CF8032B8E4607CBCEF80300CCF8041022
:101D4800CCF808205DF804FB140B002110B5154CE5
:101D580010F042F90FF0FAFA0021636A608C984794
:101D6800237E9BB9104B628C93E803000BF054FE62
:101D7800E36A18880BF07AFD636B94F8301094F8D6
:101D880031009847002384F8383010BD94E80700E4
:101D980004F10C0383E80700044904F1190017F063
:101DA800D4FFDFE7080B0021300B0021311D0001B3
:101DB800034B93F8383003B97047FFF7C7BF00BF2C
:101DC800080B002140F21F41062008B5FEF7CCFDA4
:101DD80008B5094B93F83820022A07D1DA7A42F07D
:101DE8000102DA72BDE80840FFF7B0BF40F25321A4
:101DF8002720FEF7B9FD00BF080B002138B5364D86
:101E0800044695F828300BB1C2071FD4012924D8FD
:101E18002B6C2046984700B395F83000E8B995F840
:101E28002820E2B18CB995F84430D806C3F30014E1
:101E38002ED4EB6C23B30123AAB16A8F910713D573
:101E4800EB6BD878023818BF012038BD6B8F1B07A1
:101E5800DCD5EB6BDB78022BD8D1012038BD002C08
:101E6800E1D1204638BD6A8F002AF6D16A6D107814
:101E780003EA10102043C0F1010000F0010038BD52
:101E8800B5F85030B3FA83F35B09002AEBD0D4E7F6
:101E9800E96B0B7803F00303032B02D1CB78022BF9
:101EA80018D0A86C15F020F948B9EB6B1B7803F033
:101EB8000303032B06D195F828200446B9E795F8C3
:101EC8002820B6E709F07AFE80F0010095F828206E
:101ED800C4B2AEE70024ACE7080B0021F8B5234CE8
:101EE8000646E56A636D95F8A42005F1900794F815
:101EF8005C00A3650AB1031DD8B2FF2895F87D10D0
:101F080004D11EB995F87C30994202D00FF0E0FB5D
:101F18003A7D22B3206E10F073F994F82830216EC0
:101F2800003BA06D18BF012384F88030D7E91E2339
:101F3800C4E91E230FF0A8F946B995F87D30033B94
:101F4800012B94BF2820002010F0C0F995F87C10D0
:101F5800002010F01FFA022384F83830F8BDA06D75
:101F680010F04EF90FF0F2F9E6E700BF080B002178
:101F78002DE9F041394C82B006460F4694F83830C6
:101F8800E56A012B5FFA83F805F190055ED12B799C
:101F98006BB1638F0021042043F004032971638728
:101FA800636A984794F828300BB185F80680E16B8E
:101FB8000B7803F00303032B31D04B7863B3022370
:101FC800AB722B7DDBB194F82830003B18BF01239E
:101FD80084F88030D5E91E23C4E91E23E36A94F807
:101FE8005C2093F87D30013BDBB2032B33D81C49CE
:101FF8000020CB5C009001201A490FF0DBF8012F7C
:1020080005D126B931463046FFF7F8FEC8B102B00F
:10201800BDE8F041FFF79ABE0123AB72D1E7AB7A76
:1020280063B9638F022043F002036387636A9847AA
:10203800E16B0B7803F00303032BBED10323AB72D0
:10204800BFE702B0BDE8F041FFF748BF40F2A44146
:102058002720FEF789FCFFF7B5FE00BF080B00211B
:10206800D46F0201700B002170B5804C002382B040
:10207800E56A8DF8053095F8A42005F1900694F8E6
:102088005C300AB10433DBB2FF2B11D180B995F86B
:102098007D3095F87C108B4202D0FF200FF018FBA2
:1020A800B37A032B00F2DD80DFE803F0051F8171AE
:1020B80095F87C10F1E794F8C2306D48ADF8063019
:1020C800A5F86C3009F054FD002840F095800DF11A
:1020D80005020DF10601A06C14F09CFFE06320B12D
:1020E80096F85130002B00F09E80624B1846E3634F
:1020F800F37ADB0003F00802037803F0F3031343D9
:10210800327B920002F00402134303F0EF0203F063
:102118000303032B027002D1C378022B11D0A06CE9
:1021280014F0E2FF48B9E06B027802F00303032BD6
:1021380007D009F043FD00286ED1E06B027842F029
:1021480010020270F37C13B14378002B41D110F0D8
:1021580057F80FF0FBF8E66B0AF05CFD20B1337816
:1021680003F00303032B5AD095F87D10012010F0DB
:1021780011F9E26B012340491088927884F8C43041
:10218800A4F8440084F838308A7002B070BD38482A
:1021980009F0EEFC00285AD0E06BC3781B2B14D151
:1021A800012105F110000FF0C3FAE06B0DE0B5F85E
:1021B8006C300DF105020DF10601A06CADF806308A
:1021C80014F028FFE063002846D0012384F8C330C8
:1021D8008EE7206E10F014F894F82810206ED6E9D7
:1021E8001C23B1FA81F6E16B7609C4E91E2384F851
:1021F80080600FF049F8AEE7638F4FF48070E16BB1
:1022080043F48073626A638790470121E06B7171C0
:10221800C3781B2BD9D1C4E7E06B027891E7012082
:1022280011F092F8A0E79DF8053043B1BDF806100B
:1022380017F04FFD0123E06B84F8C33058E70380A3
:1022480001218370E06B17F02EFCE06BEEE740F2A3
:10225800FD212720FEF788FB40F2F3212720FEF717
:1022680083FB40F20B312720FEF77EFB080B002191
:10227800440B0021980B00214C0B00210D4B0E4AFA
:1022880070B50E4C1A6094F838301BB1E121272044
:10229800FEF76AFB03F0FF0206460D4622760BF0B6
:1022A800B3FB012104F1900017F0FDFB666525667C
:1022B80070BD00BFA4000021C02B0001080B002145
:1022C800074A10B592F8383013B10C24204610BDD7
:1022D80003F0FF0414760BF097FB204610BD00BFF7
:1022E800080B0021024B012283F8C520704700BF6C
:1022F800080B00212DE9F04184B0BC4C02AD85E803
:10230800030094F838100A98002940F0A081002BA7
:1023180018BF002A00F09B81B0FA80F14909002813
:1023280000F09581236404F12803606384F8C510E4
:1023380084F8301084F8C61084F8311084F8C4107A
:1023480084F8C31061876184626295E8030083E8BA
:102358000300E56A0FF020FA0EF0F8FF95F9800007
:1023680005F190060FF024FBA86B0FF02DFF286AEB
:102378000FF024FB96F824000FF02AFB94F828703D
:10238800EA6941F64B53002F00F0B6809A4200F2FA
:1023980028814D200FF018F901200FF07BFC7321E4
:1023A80095F87D2001200FF097FC914B18680FF0ED
:1023B80011FFD5E90523A264C4F8C83095F88B301D
:1023C8003BB9D5F8843023B1F18F32898A4200F0C5
:1023D8002881D6F88410D6F88C30864FD6F880003D
:1023E800D6F888200FC7D6F8903094F82810C4F88B
:1023F8008130D6F89430C7F80D30002940F0BB8002
:10240800E36A93F89E20263A012A40F2848093F8E2
:102418009F20262A7FD093F87C70032F08BF0427BB
:1024280005F144083946404617F050FD394616F084
:10243800ADFFB5F85030024695F87D1040469342FE
:1024480028BF134684F8C23017F006FD95F87D10B2
:1024580096F814800429B5F8587008BF032116F0BF
:1024680095FFB8F1000F01D1043080B2B84228BFFF
:102478003846C7B284F8CC700AF0CCFB10B12B2FC9
:1024880038BF2B2794F8280084F85C70002857D1AF
:10249800F37CDBB1012395F87C1084F88030013996
:1024A800D6E91C23C9B2C4E91E23EA6941F64B5395
:1024B8009A4298BF0420032900F2CE8000224E4B96
:1024C8000092FB225B5C4B490EF074FE0120FFF783
:1024D800CBFD002396F82400C4E90033A360D5F8A7
:1024E8008C302A8831892071618022800BB10122C9
:1024F8001A6004B0BDE8F0819A427FD84D200FF0F1
:1025080063F838460FF0C6FB7D2195F87C20002043
:102518000FF0E2FB49E793F87C7093F84232002B06
:102528003FF47EAFFA1E012A40F28880DA1E012AA3
:1025380040F28480012F72D0012B70D002276FE700
:10254800337DA3B195F87D100120013984F880000E
:10255800C9B2D6E91E230329C4E91E237CD8264B19
:102568003A465B5C0021009122490EF023FE0120CF
:10257800FFF7B4FCADE7E26A92F89E30A3F12600BB
:10258800012827D992F89F70262F23D0A3F1210084
:102598001346012801D8242F4AD100293FF43BAF24
:1025A800242F7FF438AF92F84E3192F87C7092F86D
:1025B800752013405A0741D413F0010240D19B07FC
:1025C8007FF52EAFFB1EDBB2012B37D9012F18BFC9
:1025D800022725E792F8D63292F87C70002BA1D119
:1025E8001EE796200EF0F0FF9C21D9E6080B00218B
:1025F800A4000021700B0021D46F020196200EF078
:10260800E3FF164B95F87C2003EB42039988144BA3
:1026180001F5FA71A3FB013189097D3177E70127BB
:10262800FEE6B5F888100A44F28701221A60D0E65F
:1026380092F84E3192F87C705907BDD50427EFE621
:10264800FB1EDBB2012B8CBF17460427E8E640F2DD
:102658006F112720FEF788F9FFF7B4FBD46F02014A
:10266800D34D621008B5124B93F8382092B193F805
:10267800282022B993F83830012B14D108BD93F8DB
:102688003820022A0AD1DB6AD3F81802BDE80840CC
:102698000FF0EEBDBDE80840FFF758BB40F235210A
:1026A8002720FEF761F940F231212720FEF75CF977
:1026B800080B0021FFF74ABB014B1876704700BF93
:1026C800080B0021014B93F8C4007047080B002148
:1026D800034B93F8C30010B9588CC0F3003070470F
:1026E800080B0021024B588CC0F3C020704700BF74
:1026F800080B0021014B93F8C6007047080B002116
:102708002DE9F0411E4F820782B00546FC6A0E464D
:1027180004F1900411D4EB070CD5217BD4E91E32C7
:10272800013342F100020129C4E91E320CBF002323
:102738000123237302B0BDE8F081FB6CDBB1B7F86D
:1027480050201846B96D033291F8018013F07CFED1
:102758000DF1020201A9B865D7F8C80014F057FDB9
:10276800019814F03EFD012230604146D7F8C800B8
:1027780014F004FDCFE740F295412720FEF7F4F866
:10278800080B00212DE9F04F0023B74C87B006460F
:10279800E56A8846CDE9043394F8383005F19007A6
:1027A800022B40F0F781638C13F0400106D1636A75
:1027B80040209847638C43F040036384002E5BD02D
:1027C8003B7D002B40F02B81D4F858B09BF80130AA
:1027D80099B2A4F85010002940F039810023E3642D
:1027E8009BF80090638CF97AC9F3800243F4007374
:1027F8009142638400F0D380E26A94F8280002F1E1
:10280800900A9AF80A20EAB1022A00F09881002179
:102818008AF80A1020B19AF80630002B40F085811A
:102828009AF80530002B40F031819AF80B30D4F833
:1028380058B0012B0CBF002301238AF80B30638C9E
:102848009BF80090397BC9F3C00243F400634FF052
:10285800000A9142638400F0A9804FF000090AF051
:10286800D9F9F0B19BF8003003F00303032B18D11A
:10287800012010F069FD14E03A7D002A40F0EF8055
:1028880043F480634FF00009638494F8C630013341
:1028980084F8C63095F87D30033B012B40F2B180B7
:1028A800CA46FB7C03B394F8283095F87C10B3FA39
:1028B80083F3E86901395B09C9B284F8803041F6CD
:1028C8004B53984294BF042000200329D7E91C23C6
:1028D800C4E91E2300F263810022644B0092FB22AC
:1028E8005B5C63490EF066FCB8F1000F08D194F800
:1028F800C6100120FFF782FA0546002800F0BC80C8
:1029080001250FF081FDB9F1000F38D1BAF1000FA0
:1029180008D094F82830002B78D1B4F80930013366
:10292800A4F8093086B3B4F805300022013384F8DE
:10293800C620A4F805304F480AF086FF049830B145
:1029480014F04FFCE16A002202720AF0ABF8059B12
:1029580033B1E16A00221A720C2205980AF082F853
:10296800C5B9638C1B0607D4636A2946802098473B
:10297800638C43F08003638407B0BDE8F08F05A93A
:102988000220FFF7BDFEC1E7B4F807300133A4F811
:102998000730D0E7FFF7DAF907B0BDE8F08F397BE9
:1029A800C9F3C002B24691427FF457AF09F0030160
:1029B800E26A032902F1900265D143F480530120B1
:1029C8005946039263844FF00009638F107143F0F6
:1029D80001036387636A9847D4F858B0039A137B56
:1029E800013B18BF012313739BF80130002B3FF400
:1029F80036AF936F01339367D36F43F10003D36707
:102A08002DE70120CA4610F09FFC4AE7B4F80530CC
:102A1800B4F807103A890B43134383D07DE70EF0CF
:102A2800D9FC0EF0BBFCD4F858B000287FF4CEAE29
:102A38009BF80110002946D09BF800303A7BC3F37D
:102A4800C0039A4200F08E8089B2A4F85010D4F8DE
:102A5800C80014F06AFBD4F858B0E064C0E60EF081
:102A6800F3FC638C0CE700BF080B0021D46F020154
:102A7800700B0021300B0021FFF7F6FAB9F1000FB7
:102A88003FF444AF7BE709BB8946A8E74FF000094C
:102A98008AF8059009F07CF8002800F08280638F9E
:102AA8004946082043F008036387636A9847DAF8C1
:102AB80070300133CAF87030DAF8743043F100032B
:102AC800CAF87430B1E6A4F8501087E69BF80110F4
:102AD8000029D9D043F4805392F814900392638468
:102AE8000EF08CFD042894F8CC30039A07D1B9F184
:102AF800000F14BF1B211F218B4228BF0B46D4F89F
:102B080058B09BF80110994232D8E36C002B3FD0A3
:102B180094F8C530002B39D0636A002120204FF08B
:102B280000099847D4F858B099E6638F10208AF8BE
:102B3800061043F010036387636A984770E604A998
:102B4800A06C14F089FA88B3DAF8703094F8280089
:102B58000133CAF87030DAF8743043F10003CAF868
:102B6800743054E6012384F83130FFF7EFF803E7B7
:102B780094F8303001204FF0000943F0100384F836
:102B8800303010F0E1FBD4F858B068E6B14626E7DB
:102B9800994664E64FF4A3612720FDF7E5FEFFF7A9
:102BA80011F940F225412720FDF7DEFE40F20E41E3
:102BB8002720FDF7D9FE00BFD91D00018D27000190
:102BC800791F0001B91D00012DE9F843002800F024
:102BD800E3800446072900F2D380DFE801F0AB2543
:102BE80025A7D1209ECD0146204618F04AF9D4F8F1
:102BF8004C3100F1EC059D4240F2C680E81A0321F1
:102C0800402838BF402012F087FD0346C4F84C51D5
:102C180020461D4618F0F4F9002D00F09C8020464F
:102C2800BDE8F84318F0EDB918F06CF90023D4F8B2
:102C38001C2105460E4684F8483184F85131BAB152
:102C480050EA010314D0CA00C30042EA50721B1AAA
:102C580062EB0102D4F838115B18D4F83C1142EB4E
:102C68000102D4E95601834272EB0103C0F092805D
:102C7800022304F5A47784F85031384611F098FF00
:102C8800002800F08D8094F8683103F0FF01002BD4
:102C98006AD16FF00043D4E958029A4208BFB0F1F4
:102CA800FF3F12D02046D4E9569818F0EAF8D4F835
:102CB8006031EC30D4F86421B3EB090362EB08020D
:102CC8001B1A62F10002002A4BDB394694F81801FE
:102CD80012F05AF800286DD0D4E95601D4E94C32E4
:102CE800834272EB01071FD255EA06071CD0C01AAF
:102CF800334661EB02012A4613F0E8FA05FB01F1BD
:102D0800A5FB005300FB0616D4E94C2133445519A2
:102D180043EB0103C4E94C5306E090F8180111F0A5
:102D28001FFF002384F84031BDE8F883BDE8F8436D
:102D38000FF07EBB0BF058FED4F84C01DC3812F0D3
:102D480049FC90B3204618F01BF900283FF44BAF1C
:102D5800204618F055F9D4E95623C4E94E23BDE8B6
:102D6800F88320460BF048FE94F8180111F0F8FE9D
:102D7800002384F84031AFE7F4213020FDF7F4FD5B
:102D8800F8213020FDF7F0FD2046C4F84C5118F02A
:102D980037F9E0E701236CE7D7213020FDF7E4FDA0
:102DA80040F292613020FDF7DFFD40F251213020E2
:102DB800FDF7DAFD40F296613020FDF7D5FD00BF42
:102DC8002DE9F04F044689B000201F460E46914673
:102DD80094F87DA0049015F07EFE94F800320B2B39
:102DE80000F21883704A94F89F8032F8135089F0E3
:102DF80001032844029385B2B9F1000F1AD0B4F840
:102E0800901204F51879B4F898B0711AA6EB0B0B68
:102E180009B20FFA8BFB0029C0F24982384694F8B0
:102E28004432032B00F21083DFE813F0BD01830165
:102E3800C4003A0094F84432032BE0D1B8F10E0FE5
:102E4800DDD1B4F8D432B342D9D1B4F81C2220462B
:102E5800B4F892321344C4F84032D4F84C32C4F86F
:102E68003832E369C4F83C320DF000F8D4F8DC32AB
:102E7800E2699A4205D004F1280018F084FBD4F8DE
:102E8800DC32E361D4F8D832E363B4F8D632A4F87C
:102E98004030D4F8E0326362022384F84432AEE76B
:102EA800E36903FB01F20492002F00F00A82B4F8F0
:102EB8001C52002D40F0058284F85B52D4F84CC2B5
:102EC80094F89E300CFB1121262B049100F0088207
:102ED80094F89F30262B00F0038200283CD0002D68
:102EE8003AD1D4E9A0E0D4E99E237245834180F029
:102EF800A68294F87D00C31E012B40F280820391C4
:102F08000FF0D4FC4AF2A13CD4F88032274D844417
:102F1800A3F1830194F87D00A5FB0C3CA0F1030EFE
:102F2800D4E99E23BEF1010FA1EB020303991944D2
:102F3800A1EB9C1140F27D8203910FF0B7FC00F2E7
:102F4800E730D4F84CC20399A5FB0030B4F81C5202
:102F58008009014410390491AB44AAF103030CFB26
:102F68000BFBDBB20BF1300B012B4FEA4B0B40F2A2
:102F7800FF8150460D4D0FF099FC4AF2A1330344EE
:102F8800A5FB03239D0950460FF088FC0BF1730342
:102F980041F64B521D44E36928449342044D28608E
:102FA80040F22182049A6FE0E46F0201D34D62106F
:102FB800D80B0021E36B2946D4F83C02184418F0DA
:102FC80032FB2946C4F84802E06918F02CFB41F6A8
:102FD8004B53E26994F87DA09A42C74D98BF0230DE
:102FE800C4F84C0250460FF061FCAAF1030A4DF6F2
:102FF8004171BAF1010F01442046A5FB013194BF8C
:103008002823002303EB9111803116F0C7FFB4F891
:103018001C3213B9002F40F0AD81D4F83C32E26B7A
:1030280094F87DB01344D4F84802ABF103011B1A9D
:10303800C9B20493D4F838320129D4F84022B4F83C
:1030480040A002FB03050AF1730A05F130054FEAB7
:10305800450540F23D8158460FF028FC4AF2A1335D
:103068000344A548A0FB03239B09584603935544F2
:103078000FF014FC039B049A1D44A04B28441860CD
:10308800012384F84432E369D4F84C52D4F8881206
:103098005D1B6FF4B3731D44D4F88C32854228BF8E
:1030A8000546891804F1440043F10003C4F8185296
:1030B800C4F87012C4F87432002384F8603216F031
:1030C800C9FE2844A4F89062C4F86402D4E99C2399
:1030D800C4E9A2230CF012F920B1D4F864321E33EB
:1030E800C4F86432B4F8081200238E1B84F86832DE
:1030F80036B29E4202DD022384F86832B8F10E0F20
:1031080000F0FE80002F40F0FE8094F84432002B3F
:1031180040F01981494694F85C0211F035FE002808
:1031280000F07D81029B84F85832002009B0BDE888
:10313800F08FD4F84C02E269D4F84052B4F81C324B
:10314800121AB4F840A09B4402FB01F1D4F84832AB
:10315800EA430AF1730A049130339344D4F83822CD
:1031680002FB053594F87D20D31E00FB0B55012B7F
:103178004FEA450540F2AE80104603920FF096FBE9
:103188004AF2A13303445C48A0FB0323039A4FEAA5
:10319800931B554410460FF081FB584B5D44049A2D
:1031A8002844186081E094F87D1094F8160216F00F
:1031B80014F98246E06B2946DFF83CB1504418F018
:1031C80032FA2946C4F84802E06918F02CFAE26994
:1031D80041F64B5305A99A4298BF0230C4F84C02F5
:1031E80006A80FF019F9059B0093DDE90623D4E939
:1031F800A20112F0EBFC94F87D30054618460393C3
:103208000FF054FB039B4DF64171033B01442046EC
:10321800012BABFB013194BF2823002303EB911151
:10322800803116F0BBFED4F89432E26B94F87D003E
:10323800049303920FF03AFB4AF2A133039AC3189E
:10324800D4F84802ABFB0331049B933B13441B1A8D
:103258005344B4F840A05B1B00F130050AF1950A0D
:10326800A3EB91136D00049394F87D30DA1E012AC4
:1032780033D9184603930FF019FB00F52340A1300A
:10328800ABFB003B039B4FEA9B1B184655440FF0D2
:1032980005FB049AD4F894325D441849D31A28449B
:1032A800B3F5A07F0860C0F0BF80E369ECE60023B7
:1032B8005946012084F85B32D4E99E23C4E9A2234D
:1032C800ADE594F85B52002D4FD00C490868DBE659
:1032D8006523CAE64FF0650B5BE74FF0650BD4E753
:1032E800B4F8D432F31A1A043FF5F7AD94F8D7328C
:1032F800002B18BF9A46F0E5D34D6210D80B002179
:10330800002F3FF407AFB4F83022CAB1B4F8320244
:1033180094F8341200FB011101308A427FF7FAAEAB
:10332800002B3FF4F7AE0023A4F8320284F8683289
:1033380009F076FC00F00700013084F83402E9E671
:10334800A4F83222E6E6D4F84C324846E169C91AB4
:1033580015F0EBFF83B2002B3FF4DCAE129A01208C
:10336800002A3FF4E3AE1380E0E6B4F81C52A5E56A
:10337800652508E6E26BD4F83C3294F87D0003EB4F
:10338800020A0FF093FA4AF2A13394F87DB0AAF139
:10339800930A0344ABF10301D4F84802A5FB0323C5
:1033A800C9B2D4F88022AAEB000A9B0901299244E9
:1033B8000393D4E99E23AAEB020A29D958460FF0B1
:1033C80075FA94F87DB000F2E732D4F84802ABF110
:1033D8000301A5FB0235C9B2AD09039BAAEB0302A1
:1033E8002A44049226E618462A4604AB594616F0A3
:1033F80011F8049A84F85B02E369286844E6AEF1A0
:10340800E80E3C20D4E99E23AEEB020E7144A0E501
:103418003C25E2E740F2B5310620FDF7A5FA40F277
:103428007B513020FDF7A0FA40F2C6413020FDF76D
:103438009BFAB4F81C523C20D4F84CC289E540F2FF
:103448001A513020FDF790FA40F232513020FDF742
:103458008BFA00BFF0B585B0002800F0158104464E
:10346800072900F20081DFE811F092000800080047
:103478007B00FE0080008800FA000FF063FFD4E9AB
:103488009E23801A61EB0301012871F10003C0F249
:103498000D816FF00102002382428B41C0F201814D
:1034A800E3690BB1B0FBF3F394F89F200E2A00F008
:1034B800CF80B4F89810B4F856220B449BB2D11AB6
:1034C8000D0454BF531C01339BB2A4F8563294F830
:1034D8005932B4F8561223B9B4F80C328B4200F0C2
:1034E800C680B4F8D40002ADB4F89830B4F892228B
:1034F8000344B4F8D20001326F4E013BA4F8922283
:103508001B1A9FB2336853B101390022204689B291
:103518009847B4F85612014489B2A4F856127B1A97
:1035280018046ED40023204600951A46FFF748FC7D
:1035380000284AD1D4F884303BB3B4F8CE20B4F88C
:1035480056329B1A1BB2002B1FDDB4F888100B44AF
:10355800013BB3FBF1F303FB0123A4F8CE3014E0E5
:1035680005B0BDE8F0400EF063BF01200FF0ECFE9F
:1035780005B0BDE8F040FFF79DB890F84432042B41
:1035880040F08B80002380F8443205B0F0BD90F8FD
:10359800583253B3B0F85632B0F8982093426BD0F3
:1035A8009A1AA0F89830A0F80E222046D4E99C2355
:1035B800C4E99E230CF048FB94F81332002BE4D0A6
:1035C80005B0BDE8F04017F092BE012860D1B4F80C
:1035D8005612B4F80832CA1A12042FD4BDF80830AB
:1035E800194489B2A4F856128CE7B0F85432B0F8EE
:1035F8009810B0F854225B1AA0F89820A0F80E3260
:10360800D3E794F8A220012328460394002A8DF8D2
:1036180008300CBF3E23082384F8C13009F096FE19
:10362800204617F066FE002394F85C0284F84432C2
:1036380011F096FA202384F85C32A6E7BDF808203A
:10364800114489B27A1A12F4004F18BF1946C9E713
:10365800B4F85612013189B2A4F8561241E7CB21C9
:103668003020FDF781F9CF213020FDF77DF90131B8
:1036780089B2A4F8561234E7B0F80C22D31AA0F88D
:103688009820A0F80E3290E7A6213020FDF76CF9BB
:1036980040F254613020FDF767F9C5213020FDF76D
:1036A80063F940F207613020FDF75EF940F20661E8
:1036B8003020FDF759F900BFA80000212DE9F0439B
:1036C800D0F81C31002683B0054680F820610F46EB
:1036D800D0E9568983F8162280F840610121D0F894
:1036E8001C0108F08DFED5F81C41324631462046B3
:1036F800C4E99E8995F81831C4F8947284F85C324C
:10370800334684F84462A4F89062C4E9A28900961A
:10371800FFF756FBD0B90123C4F84002C4F83802B9
:1037280084F84432A4F85602A4F8540284F85902E2
:10373800B4F89830A4F89202013BA4F898300EF03F
:10374800D5FC03B0BDE8F04311F094B840F2F31192
:103758003020FDF709F900BFD0F81C01704700BF01
:103768002DE9F043002385B00322FF26CDE900337D
:103778008DF806206846FEF7D9F8044620BB009D60
:1037880095F84031002BF5D085F86861012128466D
:1037980017F039FC95F84031002BEBD095F818015B
:1037A80011F04EFD95F8180112F0DAF895F81801A5
:1037B80011F0D6F900283CD085F840416846FEF75C
:1037C800B5F804460028DAD0DFF87C80012300250C
:1037D80002264FF6FF7788F804301AE0029BE3B11F
:1037E80093F85C22202A18D01888B8421BD00221EE
:1037F800FEF762F8814608B390F85C0212F0B0F860
:1038080099F85C0289F8444211F0AAF9202389F852
:103818005C32CDE902558DF80E6002A8FEF786F8F5
:1038280004460028DAD0002388F8043005B0BDE843
:10383800F08340F2DF113020FDF796F840F22B11AB
:103848003020FDF791F800BFD80B0021044B00226F
:1038580042F210715A71D9801A71FFF781BF00BF07
:10386800D80B00212DE9F84390F84031002B76D190
:103878000446884601465648154603F0FF0711F0EE
:1038880043F9202806466AD05822394604F58C7038
:1038980012F050FE84F81861C4F81C81FF2384F8E4
:1038A8004031B8F1000F06D009F0D2F900F0070056
:1038B800013088F8340202234FF00008A4F8503190
:1038C80084F8488117F0B7FE00F1BC062046B6B26E
:1038D80017F056FB002846D015F0FDF800F5CD612D
:1038E80028464FF0010989B217F09DFE2844C4F814
:1038F8004C010FF027FD3018A4F8268041F1000193
:10390800C4F8580184F820912046C4F85C1117F0D7
:103918004DFB002845D0A5F59D654946204617F082
:10392800B0FA2D1AC4F824514FF0FF326FF000435B
:10393800C4E9582304F5A47194F8180111F024FA85
:1039480000283FD020460021D4E95623C4E94C235F
:10395800C4E94E2317F057FB3846BDE8F8830C2717
:103968003846BDE8F8830146204617F08AFADFF8A2
:103978006480EC30C4F84C01B8F8060008B1E08C5B
:10398800B8B906440FF0DEFC361841F10001C4E96D
:103998005661002DC8D0AE1941F10001C4E9586143
:1039A800C8E7EC3D484617F0CBFB2D1AC4F8245164
:1039B800BAE709F04DF9B8F80630B0FBF3F202FBAC
:1039C8001300DEE740F2C1113020FCF7CDFF00BF45
:1039D800D12B0001D80B002190F840310BB9002001
:1039E800704710B50446FF2380F86831012117F0AD
:1039F8000AFB94F840310BB9002010BD94F8180167
:103A080011F01EFC94F8180111F0AAFF94F818019F
:103A180011F0A6F820B1002384F84031002010BD31
:103A280040F2DF113020FCF79FFF00BF014B5871B7
:103A3800704700BFD80B002190F8682182B910B5F3
:103A480002F0FF0490F8202112B90122104610BD9F
:103A5800D0E949319942F9D90AF0CEFF2246F5E773
:103A680000221046704700BF10B504460DF0EAFD6D
:103A7800074B9A68824208D3E16941F64B5291425A
:103A880003D9187980F0010010BD002010BD00BFD7
:103A9800D80B002140F20B2108B516F087FAB0F5D3
:103AA800296F28BF4FF4296080B208BD90F81332FF
:103AB800002B73D1F0B503F0FF0590F8443285B0C0
:103AC8000446032B01D005B0F0BD0FF03BFCD4E950
:103AD8009E23801A61EB0301012871F10003F2DBD8
:103AE8006FF00103834275EB01035ADBE369B4F815
:103AF8009820002B53D0B0FBF3F080B20132B4F819
:103B08000C32104480B2A4F85402B4F854229B1A20
:103B18001BB2002BD7DD94F85C0211F091FB002852
:103B2800D1D0FF2384F85932B4F898500DF10E061D
:103B3800B4F8D420B4F8D23015441F4F013DED1A23
:103B48003B68ADB263B1B4F8541200222046013983
:103B580089B29847B4F85432184480B2A4F8540291
:103B6800B4F85432EB1A1B04ADD4B4F85412002341
:103B78000122204689B20096FFF722F90028A2D038
:103B8800012813D1B4F85432BDF80E2013449BB267
:103B9800A4F854323B68002BD5D1E1E770471846AA
:103BA800ACE740F2AF513020FCF7DEFE40F2F651B0
:103BB8003020FCF7D9FE00BFA80000212DE9B04352
:103BC800044682B0062900F29780DFE801F0041D60
:103BD8000A1A232A6D004B4B1B7903F0FF02002BB6
:103BE8007CD0042384F844320EF080FA10F042FEB0
:103BF8000023B4F89820A4F89232A4F8562284F846
:103C0800593202B0BDE8B083032380F8443202B0D1
:103C1800BDE8B0830DF03AFDC4E9A00102B0BDE8EB
:103C2800B08390F87D30C569033BD0F84C12DFF8BB
:103C3800D480012B98F8053094BF4FF4BD794FF428
:103C4800A9798D428CBF6D1A00251BB9436C9D4222
:103C580028BF1D46D4F8187204F1440016F0FAF88B
:103C68000744022011F004FD0221ED1B25EAE57549
:103C7800854228BF0546284611F04EFD00B92F445D
:103C88004A463946204616F076F9E269D4F81832E1
:103C9800C8F80800D01811F09DFC0028B1D140F2F6
:103CA80079313020FCF760FE90F87D502846033DBE
:103CB8000EF0FCFD4DF641710246134B012D2046D6
:103CC8001144A3FB013194BF2823002303EB911176
:103CD800803102B0BDE8B04316F060B9B0F80C12FC
:103CE80001230092FFF76CF800283FF47DAF40F203
:103CF800CA613020FCF738FE40F265713020FCF7CD
:103D080033FE00BFD80B0021D34D6210012A70B5D5
:103D1800064609D0022A14460D461ED04AB140F282
:103D28008F713020FCF720FE0DF08CFCC6F8940251
:103D380070BD0DF087FC224601462846FFF7BEFC01
:103D480032460F4995F818010FF0E8FA0028EFD12C
:103D58004FF4EF613020FCF707FED0F894120122EF
:103D68002846FFF7ABFC3246054995F818010FF0D5
:103D7800D5FA0028DCD140F289713020FCF7F4FD37
:103D88005D340001F8B5044651B1012960D1002322
:103D980080F820310EF0AAF9BDE8F84010F06ABDAD
:103DA800C58C002D4CD12046D4E94C7617F0AAF8E2
:103DB80040194FF0000341F10001C01984F848315F
:103DC8004FF0020346EB0101C4F85801C4F8300172
:103DD800C4F85C11A4F85031C4F8341194F868316F
:103DE80003F0FF01002BD5D16FF00043D4E958024E
:103DF8009A4208BFB0F1FF3F0CD104F5A47194F8C2
:103E0800180110F0C1FF0028C4D140F2E961302048
:103E1800FCF7AAFD2046D4E9565617F032F8D4F834
:103E28006031EC30D4F864215B1B62EB06021B1A8C
:103E380062F10002002AE0DA20460AF0DDFDA9E777
:103E480008F0EEFEE58CB0FBF5F303FB1505AAE7D9
:103E580040F29F713020FCF787FD00BF90F84001C9
:103E6800003818BF01207047014BD880704700BF49
:103E7800D80B002106220B4603F8032BB0F809C023
:103E8800C27AA1F803C09A70704700BF18230B705C
:103E9800704700BF40F2A921322008B5FCF764FD45
:103EA80070B5002844D0437A04460E467BB30021FF
:103EB8004089FDF701FD054600283ED0008807F03F
:103EC80017FE00212888FDF70DFD00283AD113219F
:103ED800334604F10902293403F8031BD2F800C061
:103EE800103252F80C5C103352F8080C52F8041CCB
:103EF800A24243F810CC43F80C5C43F8080C43F892
:103F0800041CEBD1107800221870B27170BD036DDB
:103F1800D0F80E20C3F80320428AA3F80720427B7A
:103F2800036D12F0FD0F14BF012200229A70CEE734
:103F380040F2F2213220FCF717FD40F2FE21322038
:103F4800FCF712FD40F202313220FCF70DFD00BFF4
:103F5800044B00221B68A3F8BA2083F8BC2083F81E
:103F680070207047E40B002108B508F005FB034BEF
:103F780018700EF031F8032008BD00BF10000021B2
:103F880008B508F0F9FA024B024601201A7008BD7C
:103F98001000002138B50D4D2C6894F8893063B9AC
:103FA80000230121204684F87010A4F8BA3084F860
:103FB800BC30BDE8384005F005B90EF0D1F90DF078
:103FC80065F8002384F889302C68E9E7E40B0021C0
:103FD80038B5114C002003F08BFA256803F01CFA61
:103FE8002368E867D86F60B103F052FA70B10EF039
:103FF80007F900200EF06AF92368042283F870207C
:1040080038BD40F2B6413220FCF7AEFC4FF4976160
:104018003220FCF7A9FC00BFE40B002108B508F02A
:10402800ABFA044B024600201A7003F0B7FB0120DC
:1040380008BD00BF1000002170B53D4C064623683E
:1040480093F87020032A34D093F87020042A30D0D3
:1040580093F854309B0731D16568002D4FD0236801
:1040680093F85420002A40D06EB3284615F0E4FC9B
:1040780018B9284615F0FBFC20B3236893F8702084
:10408800022A4BD993F87020082A4CD893F870105C
:104098002846A268274B12690B4452F823309847E8
:1040A8000C2827D8A368DB68BDE8704053F8203097
:1040B8001847D86F03F0ECF90546CEE703F000FA8D
:1040C8000546CAE7236893F87020022A1CD993F89A
:1040D8007020082A1DD893F87010A268154B5269F1
:1040E8000B4452F823309847DAE741F291313220F5
:1040F800FCF73AFC41F2A4313220FCF735FC41F2DE
:104108008B313220FCF730FC41F271313220FCF760
:104118002BFC41F272313220FCF726FC41F21131BE
:104128003220FCF721FC41F212313220FCF71CFC52
:10413800E40B0021FDFFFF3F38B5144C236893F8CA
:1041480054309B0719D16568DDB12368FF2093F8C7
:10415800B9100DF0BDFA28460EF052F8236893F80E
:10416800B930033B012B94BF282000200EF0AEF895
:104178002368072283F8702038BD03F0A1F90546AB
:10418800E2E740F2DD413220FCF7EEFBE40B0021D0
:10419800F0B5514C00220E460546236841F2707076
:1041A80083B0196D5A72CA69B1F800C0A3F80AC081
:1041B800A2F57A7C844540F281804848A0FB02023F
:1041C800C2F38F221A848A8C5A84CA8C9A844FF438
:1041D8007F42DA844FF6FF721A85002D64D00121E0
:1041E800304615F065FB3278D209236893F84810F9
:1041F80009B1002A36D193F88600002108285961B0
:1042080019833CD003F10E0203F10D0107F062FFA0
:1042180000285BD023685A7B03F11A0742F0020298
:104228005A73002D3AD103F1980002683A608288E7
:10423800BA8093F95810186D08F082F92068284957
:1042480015F07AFD236827491A6D03F12A001488AE
:10425800A3F8334092F8A62083F8352015F075FDB1
:1042680003B0F0BD427902F0C002402AC3D102680F
:104278005A61828893F886001A830828C2D193F875
:104288009E10D3F89820B3F89C0059730021C3F806
:104298000E205882C3F81A10D983CAE70021304685
:1042A80015F006FB2368C0E76068694615F0B3F9A6
:1042B800636868461A78C2F3801296E70A48A0FB3A
:1042C8000202920902F5506292B27BE741F2DA31BA
:1042D8003220FCF749FB00BFE40B00215917B7D186
:1042E800A93E00017D3E0001D34D621008B50020B3
:1042F80003F02AFA08F040F9024B024601201A702E
:1043080008BD00BF10000021034A0223106880F88E
:10431800703004F0DBBD00BFE40B002140F25A31DD
:10432800322008B5FCF720FB30B504788DB004F0D6
:104338000F0402A9224603F0C7FB0DF04DFE08F05A
:104348001BF9204B042C187002D003200DB030BD8F
:104358001D490546039A0868147890F898108C420D
:10436800F3D1547890F899108C42EED1947890F863
:104378009A108C42E9D1D47890F89B108C42E4D101
:10438800147990F89C108C42DFD1517990F89D20D7
:104398009142DAD19DF8191090F89E209142D4D11B
:1043A8007F2D0CD07F2202A97C301A7090F82C3017
:1043B800827A009503F0E2FA03200DB030BDFFF7D2
:1043C800ADFF00BF10000021E40B00212DE9F04FE4
:1043D800044687B006290CD8DFE801F0AC34110B8D
:1043E8000B0B0400BA4D286890F88C30002B40F075
:1043F800CD800DF0F1FD032007B0BDE8F08F0DF082
:10440800EBFDB34B186890F854309D07F3D090F843
:104418008C30002BEFD0AF4B93F900207F2A00F0AF
:1044280009820292FF2590F886107F22CDE900517B
:104438001A70214600F1420302227C3003F0F2F99F
:104448000320D9E7A24D867C2968012E91F88C308B
:1044580091F88D90059391F8483083F0010B00F0A6
:10446800B480002691F85420374612F0040000F07A
:10447800B48091F84D30002B00F0AF8091F888801F
:10448800B8F1080F40F0AC8091F841800027C4468D
:1044980020B3626891F85B0092F800E0864500F06E
:1044A80062814FF0000A91F88520082A05D091F81A
:1044B8008800904208BF4FF0010A002F40F0F280B8
:1044C800BBF1000F40F048813846B9F1000F40F0C9
:1044D800EB800DF081FD2B6893F8542093078AD068
:1044E8000DF07AFD059B002B85D02868A36800F1A4
:1044F8004201A27C90F8410014F08DFE17B9002803
:1045080000F06E81734A92F900307F2B00F092819F
:1045180002932146286890F8864000F14203CDF8BE
:1045280000807C3001947F241470012203F07AF912
:10453800032061E7664D286890F854305F071BD563
:1045480090F88D30002B5DD0636890F85B20197867
:10455800914200F0DC8090F85630012B00F0B380D7
:1045680090F88830082B04D090F885209A4200F003
:10457800AA800DF031FD286890F88C30002B46D1C8
:1045880090F88D30002B7FF436AF32E790F8543036
:10459800990769D54F4A92F900307F2B00F04A817C
:1045A8000293214690F886307F240193FF230093DD
:1045B80000F1420314707C30062203F033F92B68B3
:1045C8000022092083F8A82016E78268527902F0B1
:1045D800C002402A7FF445AF44E791F885804FE751
:1045E800404607F085FC002818BF8346002F40F09E
:1045F800E780296891F8418091F85420C44602F078
:10460800040045E790F88C30002B3FF4F2AE90F8A8
:1046180054309E0760D4D8077FF5EDAE590700F1F6
:1046280002812C4B93F900207F2A00F003817F2020
:104638000292FF26002218702146286890F88630DA
:10464800CDE9006300F142037C3003F0EBF82B68FE
:10465800032093F88D20002A7FF4CEAE93F88C3097
:10466800002B7FF4C9AEC4E6DA077FF5C2AE5B075C
:1046780000F1D680174B93F900207F2A00F0DA80EA
:104688002868FF2502927F2290F88610CDE9005114
:104698001A70214600F1420306227C3003F0C2F86A
:1046A8000320A9E6012010E72B6893F85630012B68
:1046B80006D0002B7FF40DAFBAF1000F3FF409AF1D
:1046C80000283FF406AF0A2007B0BDE8F08F00BF0E
:1046D800E40B002110000021574A92F900307F2B8B
:1046E80000F0A8800293214690F886307F24019339
:1046F800FF23009300F1420314707C30002203F082
:1047080091F82B680122092083F8A820A1E759789D
:1047180090F85C2091427FF41EAF997890F85D2064
:1047280091427FF418AFD97890F85E2091427FF4D7
:1047380012AF197990F85F2091427FF40CAF5A7943
:1047480090F860309A427FF406AF627C90F85A3055
:104758009A427FF400AFB6E742316046A368A27C74
:1047680014F059FDB1E692F801E091F85C00864535
:104778007FF497AE92F802E091F85D0086457FF4E9
:1047880090AE92F803E091F85E0086457FF489AE1A
:1047980092F804E091F85F0086457FF482AE507984
:1047A80091F8602090427FF47CAE94F811A091F8C3
:1047B8005A20AAEB0202D2F1000A4AEB020A72E678
:1047C800A168404607F076FD2968074691F841C080
:1047D80091F8542050B34CF0020802F0040057E658
:1047E800286890F85530023B012B3FF604AE002EA6
:1047F8003FF401AE104B93F900207F2A1AD00292A1
:10480800FE2590F886107F22CDE900511A702146C6
:1048180000F1420301227C3003F004F80320EBE5A9
:104828000DF0DAFB26E70DF0D7FBFAE6E04602F0DA
:1048380004002DE6FFF772FD1000002130B5184C7A
:1048480085B094F900307F2B27D00A467F2121704C
:1048580014490C6894F87010032916D094F8701055
:1048680006290CBF03210121CDE9023194F88650B5
:10487800014604F14203019594F8B9000090002024
:1048880002F05CFE18B905B030BD0021ECE700204D
:1048980005B0BDE8304002F057BFFFF73FFD00BF4D
:1048A80010000021E40B00210F4A136810B593F89B
:1048B800701002290ED993F8701008290FD893F8B0
:1048C80070109268094B92680B44BDE8104052F88A
:1048D8002330184741F291413220FCF745F841F264
:1048E80092413220FCF740F8E40B0021FDFFFF3F26
:1048F80038B51C4D2B6893F87020022A2DD8027CFD
:10490800044683F884201A44C168596792F8BD2088
:1049180083F8B9204268C3F88020037A022B0ED0AE
:104928000CF03AFF0DF01CFD0CF0B0FB0E480DF03A
:1049380051FC0E480DF048FC0D480DF03FF8637C23
:1049480003B938BD2868643014F05BFC2B68DB6E53
:10495800002BF6D001221A6038BD40F6AC01322097
:10496800FCF702F8E40B0021C4010021555555005D
:10497800D6BE898E38B505460C4607F02BF8420797
:1049880004D4A37803F0E003402B0DD007F022F8FD
:10499800830704D4A37803F0E003202B04D0237802
:1049A80003F03F03242B01D9002038BD0CF02CFE66
:1049B80094F9003094F802C0002B62780CF01F03C1
:1049C800ACBF1E214FF4967142EA032301FB03F3A7
:1049D8001A1AB2F5877FE7D39842E5D8054A2946DF
:1049E80023881068A0F8BA3080F8BCC0BDE8384009
:1049F80004F004BAE40B002170B5334E84B0336878
:104A080093F88C507DB30A4693F8A810044631B940
:104A1800017800290CBF0121022183F8A81093F81E
:104A280070100629C8B241D0072814BF01250225F5
:104A3800264991F900007F2843D04233CDE9020589
:104A480093F84400019093F8770000907F20087055
:104A58002146002002F072FD40B9022D28D0002026
:104A6800054602F09BFE284604B070BD6378DB065D
:104A78001ED5A1690220FFF77DFF05460028EED06C
:104A88003368002283F894206169C1B14A780978B3
:104A9800100902F00F0241EA0222A3F8962083F8D7
:104AA80095000DF099FA284604B070BD0325BFE7BC
:104AB8000020054602F048FE284604B070BDFF20DD
:104AC800EDE7FFF72BFC00BFE40B002110000021ED
:104AD80010B504468AB007F04FFD194A23781070C4
:104AE80003F00F03072B02D001200AB010BD2046A7
:104AF800694603F087F8684603F072F99DF80030BC
:104B0800002BF1D19DF80130DB07EDD50D4C019953
:104B180022689DF8110002F1980392F89E2014F083
:104B28007AFB0028E0D020680121903013F0A2FF22
:104B3800FF216846FFF760FF0028D5D00220D4E7A0
:104B480010000021E40B00212DE9F04104468AB051
:104B580007F012FD4E4A2378107003F00F03082B5C
:104B680004D0012420460AB0BDE8F08169462046F9
:104B780002F0DEFF9DF80030002BF2D19DF80130E5
:104B880003F00303032BECD1424E356895F84D3002
:104B9800002B46D095F8888095F88930002B43D1B2
:104BA800002705F1980395F89E2001999DF81100BA
:104BB80014F031FB08B9002FD3D0336895F848209A
:104BC80093F8417003F14205002A49D19DF812007B
:104BD8000299012834D02B463A4614F01CFB0028D1
:104BE800BFD030680121903013F044FF356895F844
:104BF8008930002B43D121460120FFF7C9FA3068DC
:104C080090F8543013F0030432D023F00403032146
:104C180080F854300C4604F0FFFA002002F068FCDB
:104C2800A0E795F88580B7E714F039FB0828B7D0D6
:104C3800A0EB080785F88600B7FA87F77F09B0E781
:104C48004B7903F0C003402BC5D12B463A4614F0EC
:104C5800E2FA0028C5D10299404607F02BFBBEE7CF
:104C6800404607F061FB0028B0D005460127ADE7B4
:104C7800022104F0D1FA204602F03AFC72E70DF066
:104C88006FFB0CF003FA002385F88930B3E700BF07
:104C980010000021E40B00212DE9F04FDFF8F8A007
:104CA8009346847C83B0DAF800200646012C8946B6
:104CB80092F84870984687F001073ED0002492F891
:104CC8008950234605B392F85410490725D47068D3
:104CD800002839D092F88550082D26D0284601930F
:104CE80007F006F9019B002818BF07461BB3DAF83E
:104CF800003093F88B3083B314F0DBFADAF8003025
:104D08000022054683F88B208BF8005089F8004074
:104D180088F8007003B0BDE8F08F92F84D100029B4
:104D2800D5D092F88850082DD8D123B1DAF80050A0
:104D380095F88A10B9B10025E6E783685B7903F036
:104D4800C003402BBAD1BAE7019302F093FE019B4E
:104D58000028EAD0DAF80020BCE72846B16807F056
:104D6800A9FA0546D0E7B068019107F0CBF9DAF85F
:104D7800003085F8890093F88950002DC4D014F0CC
:104D88008EFA0828019904D0DAF8003083F88500F3
:104D9800BAE70D46B8E700BFE40B00212DE9F04162
:104DA8006A4C002205460F466368D4F8008018460E
:104DB8001A800DF025FA032D37D0052D4AD06068EA
:104DC80008F1980114F02EFC98F89E10606814F011
:104DD8003DFC236893F8482003F1420693F841709C
:104DE80052B193F85420520718D493F8850007F06D
:104DF8009BFA08B1064601273146606814F004FCA6
:104E08003946606814F015FC514BD3F80431002B77
:104E180040F09680052D12D0BDE8F08193F84D2022
:104E2800002AE2D093F88800E1E76068037823F06D
:104E38000F0343F0030303700C234370C0E7236898
:104E480031681A6DC2F80A10B188D1811B6D5F7282
:104E5800BDE8F081D4E9000622233178737021F08F
:104E68002F0141EA471141F00501317041F64B51DC
:104E7800036D1B6AC6F80F30026D936BF3741F0A3B
:104E88001B0C37757375D369B2F840708B42D16BC0
:104E98003BD9DFF8C0C0ACFB01E1ACFB07C7890A0E
:104EA800BF0AF175C1F30721B77531762949A1FB0E
:104EB8000313C3F38F2373761B0AB376938CF376AD
:104EC8001B0A3377D38C73771B0AB377D2F8A730D2
:104ED800C6F81F3092F8AB3096F8242086F82330B5
:104EE800036D22F01F0293F8B23003F01F0313433F
:104EF80086F8243006F094FD96F8243003F01F035A
:104F080043EA401386F8243059E7DFF84CC0ACFB7D
:104F180001E1ACFB07C749097F09F175C1F3072116
:104F2800B775A3F57A77317641F270718F42BDD8A3
:104F38000A49A1FB03139B0903F550639BB2BAE727
:104F480040F2F9513220FBF70FFD00BFE40B0021BE
:104F5800008000415917B7D11F85EB51D34D62101E
:104F680010B507F009FB0B4A0B4B1468187094F83E
:104F780089301BB90DF030F8032010BD0DF0F0F9A1
:104F88000CF084F8002384F889300DF025F803200C
:104F980010BD00BFE40B00211000002170B51F4CAC
:104FA8000E20236893F8B9100CF092FB236893F84D
:104FB80054309B0729D165685DB328460DF020F968
:104FC800236893F8B930033B012B94BF28200020B5
:104FD8000DF07CF92668681D96F8B95007F0C0F8FE
:104FE800236886F8890093F8892052B1033D012D82
:104FF80094BF552550250CF02DF828460DF0A4F93E
:105008002368082283F8702070BD02F059FA05461B
:10501800D2E740F2CA413220FBF7A6FCE40B00219C
:10502800F8B52E4C0546236893F8BC205F2A2CD887
:1050380051092B4A565C93F8BA0000F03F000CF077
:10504800C7FC236893F958000CF0B2FCFDB1236843
:1050580032460120596F0CF03FFE2368314693F821
:105068009430022B0CBF4020FF200CF031FB256848
:1050780095F854309B0710D195F8A8306768A3B10C
:105088003846BDE8F8400DF0BBB80026D3E73246F5
:10509800732101200CF020FEDFE702F011FA2568E9
:1050A800074695F8A830002BEAD1781D07F058F884
:1050B800236885F8890093F88930002BE0D0033EF7
:1050C800012E94BF552450240BF0C4FF20460DF048
:1050D8003BF93846BDE8F8400DF092B8E40B0021E2
:1050E800FC6F0201F0B52F4C83B00546236893F896
:1050F800BC205F2A30D851092B4A575C5A6F7ABBBB
:10510800D3F880000DF0B4F8266896F854309A0762
:1051180003D596F89420022A34D05B072ED425BBF9
:10512800284602F0A7FC014628460D4602F0ACFCD2
:10513800024606F1A9002946256895F8943095F8A5
:10514800B950009502F0F4FD2368002283F8B97085
:1051580083F88A2003B0F0BD5A6F0027002ACFD009
:105168000120FFF75DFF2368CAE7002002F09CFCDE
:10517800014606F1A90002F0D1FDE5E796F8943062
:10518800012BCCD1FB1E012B05D9394600200DF08F
:1051980001F92668C3E796F85930012B14BF394640
:1051A8000321F3E7E40B0021FC6F020107292DE935
:1051B800F04F0D4687B004469046476803D12FB993
:1051C800002A00F0C880002F00F09080637CDFF890
:1051D800C092012B5DD0072D40D0D9F8003093F84C
:1051E8008500082840D00DF10F0104AA06F072FFCF
:1051F800002800F0488104A99DF80F0015F097FBDE
:105208000746D9F8006096F8543013F0030076D1B9
:10521800824613F0040386F88CA040F0C880002171
:105228009C4B86F88D101B6833B141462046984741
:1052380086F88E00D9F80060636843B1627C86F80E
:105248009E201A68C6F898209B88A6F89C30A0680B
:1052580008B1072D39D007B0BDE8F08FD9F8006044
:1052680096F885000828BED16168607C15F05FFB60
:10527800D9F80020074661688532607C06F060FE38
:105288000028BED1D9F80060A6F88C0086F88E00F8
:10529800DDE77B7903F0C003402B9CD1D9F800608F
:1052A800072D96F8893000F0A480002BD8D013F091
:1052B800F6FFD9F8003086F88500012293F88500BA
:1052C80083F88A2083F886008BE7D6F88C3096F826
:1052D800851033F07F43BED00829BCD006F030FFDC
:1052E800D9F80030012283F88B20B4E7DFF8A091C9
:1052F800D9F8006096F8543013F0030088D0062DD2
:1053080096F84CA070D9082D00F28C8096F88CB0D5
:105318008BF00101B8F1000F0CBF002101F0010171
:1053280000297FD16268002A5ED1B8F1000F40F0F1
:1053380093806278D00640F18F80012086F88C0037
:1053480058077FF56DAF96F84D1096F88DA0D306E7
:1053580074D5012164E7DFF83891D9F8002092F874
:10536800543013F0030118BF012113F0040382F82D
:105378008C1005D00378A3F10103B3FA83F35B091A
:1053880082F88D3092F8AF30002B3FF464AFD9F833
:105398000030D3F8B000503016F0CDF800287FF474
:1053A8005AAFD9F80030012283F88E2053E7062D32
:1053B80096F84D1004D800297FF432AF39462FE70C
:1053C80096F88DA0082D3FF62AAFBAF1010F03D049
:1053D800B8F1000F7FF423AF6368002BEBD1B8F16D
:1053E800000F2BD16278B2E7BAF1000F08BFBA46B6
:1053F8000FE7002B3FF434AFB8F1000F7FF455AF3F
:1054080096F8B91001297FF452AF384606F07AFEB3
:1054180086F88900D9F8006096F88930002B3FF4A7
:105428001FAF44E7002213F0040386F88C203FF4F2
:10543800F6AE96F84D1096F88DA0C3E700200191BE
:1054480002F018FB1AEA000702D10199A9B10F4628
:10545800D9F800603946E3E6002002F00BFB1BEAAE
:10546800000B0ED1BAF1000F02D106F063FD82469F
:10547800D9F8006096F85430CBE606F05BFD074695
:10548800E6E7DA46F4E740F664313220FBF76CFAD7
:10549800E40B0021AC00002130B505468BB007F0C5
:1054A8006BF8134B2C7802466946284604F00F0423
:1054B8001A70224602F008FB214600226846FFF7D0
:1054C80075FE21466846FEF781FF0A4B04461D68B3
:1054D80095F8893013B920460BB030BD0CF040FF69
:1054E8000BF0D4FD0023204685F889300BB030BD81
:1054F80010000021E40B002138B50F4D002002F008
:105508004DF92C6894F8893063B9002301212046AD
:1055180084F87010A4F8BA3084F8BC30BDE838407C
:1055280003F050BE0CF01CFF0BF0B0FD002384F814
:1055380089302C68E9E700BFE40B002138B50F4D2E
:1055480007F01AF80E4B2C68187094F8893063B974
:1055580000230121204684F87010A4F8BA3084F89A
:10556800BC30BDE8384003F02DBE0CF0F9FE0BF05E
:105578008DFD002384F889302C68E9E7E40B0021CD
:105588001000002138B5114D002002F007F906F08F
:10559800F3FF2C680E4A94F88930107063B9002321
:1055A8000121204684F87010A4F8BA3084F8BC3081
:1055B800BDE8384003F006BE0CF0D2FE0BF066FDE5
:1055C800002384F889302C68E9E700BFE40B002148
:1055D8001000002138B5124D06F0CEFF114A002107
:1055E8002B68107003F1900013F044FA2C6894F8BB
:1055F800893063B900230121204684F87010A4F88B
:10560800BA3084F8BC30BDE8384003F0DBBD0CF09C
:10561800A7FE0BF03BFD002384F889302C68E9E7EE
:10562800E40B00211000002138B5144D002002F0D1
:105638008BF806F0A1FF024628680021104B903035
:105648001A7013F017FA2C6894F8893063B900239C
:105658000121204684F87010A4F8BA3084F8BC30D0
:10566800BDE8384003F0AEBD0CF07AFE0BF00EFD3D
:10567800002384F889302C68E9E700BFE40B002197
:105688001000002170B5154D0521286803F0B6FB00
:1056980050B12B68012093F8B9100CF07BFE2B68F1
:1056A8000B2283F8702070BD2E6896F8893063B994
:1056B80000230121304686F87010A6F8BA3086F823
:1056C800BC30BDE8704003F07DBD04460CF048FED8
:1056D8000BF0DCFC86F889402E68E9E7E40B002132
:1056E80070B5164D00210320FFF758FB03212868E9
:1056F80003F084FB40B1012108460CF04BFE2B68F7
:10570800092283F8702070BD2E6896F8893063B935
:1057180000230121304686F87010A6F8BA3086F8C2
:10572800BC30BDE8704003F04DBD04460CF018FED7
:105738000BF0ACFC86F889402E68E9E7E40B002101
:1057480070B5244C236893F8BC205F2A29D85109E6
:10575800214A565C5A6F42BBD3F880000CF088FD92
:10576800256895F854309A0703D595F89420022AAD
:1057780020D05B0703D595F89430012B1AD0002070
:1057880002F092F9014605F1A90002F0C7FA236870
:105798000021062283F8B96083F88A1083F8702004
:1057A80070BD5A6F0026002AD6D00120FFF738FCBA
:1057B8002368D1E7F31E012B05D9314600200CF0F0
:1057C800E9FD2568DBE795F85930012B14BF314610
:1057D8000321F3E7E40B0021FC6F0201F0B52B4C29
:1057E80083B0236893F8BC205F2A35D85109284A2A
:1057F800575C5A6FA2BBD3F880000CF039FD2568BE
:1058080095F854309A0703D595F89420022A2CD09D
:105818005B0703D595F89430012B26D0002002F0C1
:1058280029F90646002002F02FF9024605F1A900E1
:105838002568314695F8943095F8B950009502F0EE
:1058480077FA23680021052283F8B97083F88A1053
:1058580083F8702003B0F0BD5A6F0027002ACAD021
:105868000120FFF7DDFB2368C5E7FB1E012B05D9E7
:10587800394600200CF08EFD2568CFE795F85930A1
:10588800012B14BF39460321F3E700BFE40B0021C5
:10589800FC6F020170B5234C236893F854309B07C2
:1058A8002FD16068C0B30C232068012180F87030C4
:1058B80003F0B2FC00210520FFF770FA06212068EA
:1058C80003F09CFA054658B12368012093F8B910F3
:1058D8000CF060FD236801221B6D83F8A62070BDC3
:1058E800266896F889307BB900230121304686F86E
:1058F8007010A6F8BA3086F8BC30BDE8704003F0E6
:1059080061BC01F0DDFDCDE70CF02AFD0BF0BEFB1C
:1059180086F889502668E7E740F247513220FBF7BE
:1059280023F800BFE40B0021012970B515D1A0B9F7
:105938001E4A136893F8701008292DD993F870102F
:105948000C292ED893F870109268194B52680B44A2
:10595800BDE8704052F823301847144D002001F07C
:105968001DFF2C6894F889306BB9002304F1BA0242
:1059780001212046A4F8BA3084F870109370BDE86D
:10598800704003F01FBC0CF0EBFC0BF07FFB002316
:1059980084F889302C68E8E741F261413220FAF74F
:1059A800E3FF41F262413220FAF7DEFFE40B002107
:1059B800F7FFFF3F30B5244D83B02B68D86F01F057
:1059C80067FD00283BD004460A232868002180F898
:1059D800703003F021FC2A6823780520126D92F8B4
:1059E800A64004EA531404F001042146FFF7D6F94F
:1059F8000421286803F002FA28B12B681B6D83F88C
:105A0800A64003B030BD2C6894F889306BB90023E8
:105A18000121204684F87010A4F8BA3084F8BC300C
:105A280003B0BDE8304003F0CDBB01900CF098FC0A
:105A38000BF02CFB019884F889002C68E7E740F20A
:105A480022513220FAF790FFE40B0021F0B5684CA0
:105A580083B0002001F04CFD256801F0DDFC2368CF
:105A6800E867D86F002800F0BD8001F011FD0546F9
:105A7800002800F0B280236893F8B430002B67D177
:105A8800206890F8843090F87020034493F8BD7033
:105A980080F8B9701AB190F87030012B76D190F86F
:105AA8008720544B134418790BF092FF236893F81E
:105AB8008420134493F8BD60022E65D041D9F31EAB
:105AC800012B40D801F0A2FC31460BF001FE28461C
